{
  "contractName": "TBookFactory",
  "abi": [
    {
      "inputs": [],
      "stateMutability": "nonpayable",
      "type": "constructor"
    },
    {
      "anonymous": false,
      "inputs": [
        {
          "indexed": true,
          "internalType": "address",
          "name": "owner",
          "type": "address"
        },
        {
          "indexed": true,
          "internalType": "address",
          "name": "approved",
          "type": "address"
        },
        {
          "indexed": true,
          "internalType": "uint256",
          "name": "tokenId",
          "type": "uint256"
        }
      ],
      "name": "Approval",
      "type": "event"
    },
    {
      "anonymous": false,
      "inputs": [
        {
          "indexed": true,
          "internalType": "address",
          "name": "owner",
          "type": "address"
        },
        {
          "indexed": true,
          "internalType": "address",
          "name": "operator",
          "type": "address"
        },
        {
          "indexed": false,
          "internalType": "bool",
          "name": "approved",
          "type": "bool"
        }
      ],
      "name": "ApprovalForAll",
      "type": "event"
    },
    {
      "anonymous": false,
      "inputs": [
        {
          "indexed": true,
          "internalType": "address",
          "name": "previousOwner",
          "type": "address"
        },
        {
          "indexed": true,
          "internalType": "address",
          "name": "newOwner",
          "type": "address"
        }
      ],
      "name": "OwnershipTransferred",
      "type": "event"
    },
    {
      "anonymous": false,
      "inputs": [
        {
          "indexed": true,
          "internalType": "address",
          "name": "from",
          "type": "address"
        },
        {
          "indexed": true,
          "internalType": "address",
          "name": "to",
          "type": "address"
        },
        {
          "indexed": true,
          "internalType": "uint256",
          "name": "tokenId",
          "type": "uint256"
        }
      ],
      "name": "Transfer",
      "type": "event"
    },
    {
      "inputs": [
        {
          "internalType": "address",
          "name": "to",
          "type": "address"
        },
        {
          "internalType": "uint256",
          "name": "tokenId",
          "type": "uint256"
        }
      ],
      "name": "approve",
      "outputs": [],
      "stateMutability": "nonpayable",
      "type": "function"
    },
    {
      "inputs": [
        {
          "internalType": "address",
          "name": "owner",
          "type": "address"
        }
      ],
      "name": "balanceOf",
      "outputs": [
        {
          "internalType": "uint256",
          "name": "",
          "type": "uint256"
        }
      ],
      "stateMutability": "view",
      "type": "function",
      "constant": true
    },
    {
      "inputs": [
        {
          "internalType": "uint256",
          "name": "tokenId",
          "type": "uint256"
        }
      ],
      "name": "getApproved",
      "outputs": [
        {
          "internalType": "address",
          "name": "",
          "type": "address"
        }
      ],
      "stateMutability": "view",
      "type": "function",
      "constant": true
    },
    {
      "inputs": [
        {
          "internalType": "address",
          "name": "owner",
          "type": "address"
        },
        {
          "internalType": "address",
          "name": "operator",
          "type": "address"
        }
      ],
      "name": "isApprovedForAll",
      "outputs": [
        {
          "internalType": "bool",
          "name": "",
          "type": "bool"
        }
      ],
      "stateMutability": "view",
      "type": "function",
      "constant": true
    },
    {
      "inputs": [],
      "name": "name",
      "outputs": [
        {
          "internalType": "string",
          "name": "",
          "type": "string"
        }
      ],
      "stateMutability": "view",
      "type": "function",
      "constant": true
    },
    {
      "inputs": [],
      "name": "owner",
      "outputs": [
        {
          "internalType": "address",
          "name": "",
          "type": "address"
        }
      ],
      "stateMutability": "view",
      "type": "function",
      "constant": true
    },
    {
      "inputs": [
        {
          "internalType": "uint256",
          "name": "tokenId",
          "type": "uint256"
        }
      ],
      "name": "ownerOf",
      "outputs": [
        {
          "internalType": "address",
          "name": "",
          "type": "address"
        }
      ],
      "stateMutability": "view",
      "type": "function",
      "constant": true
    },
    {
      "inputs": [],
      "name": "renounceOwnership",
      "outputs": [],
      "stateMutability": "nonpayable",
      "type": "function"
    },
    {
      "inputs": [
        {
          "internalType": "address",
          "name": "operator",
          "type": "address"
        },
        {
          "internalType": "bool",
          "name": "approved",
          "type": "bool"
        }
      ],
      "name": "setApprovalForAll",
      "outputs": [],
      "stateMutability": "nonpayable",
      "type": "function"
    },
    {
      "inputs": [
        {
          "internalType": "bytes4",
          "name": "interfaceId",
          "type": "bytes4"
        }
      ],
      "name": "supportsInterface",
      "outputs": [
        {
          "internalType": "bool",
          "name": "",
          "type": "bool"
        }
      ],
      "stateMutability": "view",
      "type": "function",
      "constant": true
    },
    {
      "inputs": [],
      "name": "symbol",
      "outputs": [
        {
          "internalType": "string",
          "name": "",
          "type": "string"
        }
      ],
      "stateMutability": "view",
      "type": "function",
      "constant": true
    },
    {
      "inputs": [
        {
          "internalType": "uint256",
          "name": "tokenId",
          "type": "uint256"
        }
      ],
      "name": "tokenURI",
      "outputs": [
        {
          "internalType": "string",
          "name": "",
          "type": "string"
        }
      ],
      "stateMutability": "view",
      "type": "function",
      "constant": true
    },
    {
      "inputs": [
        {
          "internalType": "address",
          "name": "from",
          "type": "address"
        },
        {
          "internalType": "address",
          "name": "to",
          "type": "address"
        },
        {
          "internalType": "uint256",
          "name": "tokenId",
          "type": "uint256"
        }
      ],
      "name": "transferFrom",
      "outputs": [],
      "stateMutability": "nonpayable",
      "type": "function"
    },
    {
      "inputs": [
        {
          "internalType": "address",
          "name": "newOwner",
          "type": "address"
        }
      ],
      "name": "transferOwnership",
      "outputs": [],
      "stateMutability": "nonpayable",
      "type": "function"
    },
    {
      "inputs": [
        {
          "internalType": "uint256",
          "name": "tokenId",
          "type": "uint256"
        }
      ],
      "name": "getOwnerOf",
      "outputs": [
        {
          "internalType": "address",
          "name": "",
          "type": "address"
        }
      ],
      "stateMutability": "view",
      "type": "function",
      "constant": true
    },
    {
      "inputs": [
        {
          "internalType": "uint256",
          "name": "tbsn",
          "type": "uint256"
        },
        {
          "internalType": "uint256",
          "name": "copyNumber",
          "type": "uint256"
        }
      ],
      "name": "getId",
      "outputs": [
        {
          "internalType": "uint256",
          "name": "",
          "type": "uint256"
        }
      ],
      "stateMutability": "view",
      "type": "function",
      "constant": true
    },
    {
      "inputs": [
        {
          "internalType": "uint256",
          "name": "id",
          "type": "uint256"
        }
      ],
      "name": "tbsnFromId",
      "outputs": [
        {
          "internalType": "uint256",
          "name": "",
          "type": "uint256"
        }
      ],
      "stateMutability": "view",
      "type": "function",
      "constant": true
    },
    {
      "inputs": [
        {
          "internalType": "uint256",
          "name": "id",
          "type": "uint256"
        }
      ],
      "name": "copyNumberFromId",
      "outputs": [
        {
          "internalType": "uint256",
          "name": "",
          "type": "uint256"
        }
      ],
      "stateMutability": "view",
      "type": "function",
      "constant": true
    },
    {
      "inputs": [
        {
          "internalType": "address",
          "name": "from",
          "type": "address"
        },
        {
          "internalType": "address",
          "name": "to",
          "type": "address"
        },
        {
          "internalType": "uint256",
          "name": "tokenId",
          "type": "uint256"
        }
      ],
      "name": "safeTransferFrom",
      "outputs": [],
      "stateMutability": "nonpayable",
      "type": "function"
    },
    {
      "inputs": [
        {
          "internalType": "address",
          "name": "from",
          "type": "address"
        },
        {
          "internalType": "address",
          "name": "to",
          "type": "address"
        },
        {
          "internalType": "uint256",
          "name": "tokenId",
          "type": "uint256"
        },
        {
          "internalType": "bytes",
          "name": "_data",
          "type": "bytes"
        }
      ],
      "name": "safeTransferFrom",
      "outputs": [],
      "stateMutability": "nonpayable",
      "type": "function"
    },
    {
      "inputs": [
        {
          "internalType": "uint256",
          "name": "tbsn",
          "type": "uint256"
        }
      ],
      "name": "getPrice",
      "outputs": [
        {
          "internalType": "uint256",
          "name": "",
          "type": "uint256"
        }
      ],
      "stateMutability": "view",
      "type": "function",
      "constant": true
    },
    {
      "inputs": [
        {
          "internalType": "uint256",
          "name": "tbsn",
          "type": "uint256"
        },
        {
          "internalType": "address",
          "name": "collector",
          "type": "address"
        }
      ],
      "name": "collect",
      "outputs": [
        {
          "internalType": "uint256",
          "name": "",
          "type": "uint256"
        }
      ],
      "stateMutability": "payable",
      "type": "function",
      "payable": true
    },
    {
      "inputs": [
        {
          "internalType": "uint256",
          "name": "tbsn",
          "type": "uint256"
        },
        {
          "internalType": "address payable",
          "name": "author",
          "type": "address"
        }
      ],
      "name": "publish",
      "outputs": [],
      "stateMutability": "nonpayable",
      "type": "function"
    },
    {
      "inputs": [
        {
          "internalType": "uint256",
          "name": "id",
          "type": "uint256"
        }
      ],
      "name": "getCopyInfo",
      "outputs": [
        {
          "components": [
            {
              "internalType": "bool",
              "name": "exists",
              "type": "bool"
            },
            {
              "internalType": "uint256",
              "name": "tbsn",
              "type": "uint256"
            },
            {
              "internalType": "uint256",
              "name": "copyNumber",
              "type": "uint256"
            },
            {
              "internalType": "uint256",
              "name": "numTransactions",
              "type": "uint256"
            },
            {
              "internalType": "uint256",
              "name": "nextLinkId",
              "type": "uint256"
            },
            {
              "internalType": "uint256",
              "name": "prevLinkId",
              "type": "uint256"
            },
            {
              "internalType": "address",
              "name": "initHolder",
              "type": "address"
            },
            {
              "internalType": "address",
              "name": "currentHolder",
              "type": "address"
            },
            {
              "internalType": "address",
              "name": "lastHolder",
              "type": "address"
            }
          ],
          "internalType": "struct TBookFactory.CopyInfo",
          "name": "",
          "type": "tuple"
        }
      ],
      "stateMutability": "view",
      "type": "function",
      "constant": true
    },
    {
      "inputs": [
        {
          "internalType": "address",
          "name": "userAddress",
          "type": "address"
        }
      ],
      "name": "getUserInfo",
      "outputs": [
        {
          "internalType": "bool",
          "name": "",
          "type": "bool"
        },
        {
          "internalType": "uint256",
          "name": "",
          "type": "uint256"
        },
        {
          "internalType": "uint256",
          "name": "",
          "type": "uint256"
        },
        {
          "internalType": "uint256",
          "name": "",
          "type": "uint256"
        }
      ],
      "stateMutability": "view",
      "type": "function",
      "constant": true
    }
  ],
  "bytecode": "0x60806040523480156200001157600080fd5b506040518060400160405280600581526020017f54426f6f6b0000000000000000000000000000000000000000000000000000008152506040518060400160405280600381526020017f54424b00000000000000000000000000000000000000000000000000000000008152506200009e62000092620000e360201b60201c565b620000eb60201b60201c565b8160019080519060200190620000b6929190620001af565b508060029080519060200190620000cf929190620001af565b505050633b9aca00600c81905550620002c3565b600033905090565b60008060009054906101000a900473ffffffffffffffffffffffffffffffffffffffff169050816000806101000a81548173ffffffffffffffffffffffffffffffffffffffff021916908373ffffffffffffffffffffffffffffffffffffffff1602179055508173ffffffffffffffffffffffffffffffffffffffff168173ffffffffffffffffffffffffffffffffffffffff167f8be0079c531659141344cd1fd0a4f28419497f9722a3daafe3b4186f6b6457e060405160405180910390a35050565b828054620001bd906200028e565b90600052602060002090601f016020900481019282620001e157600085556200022d565b82601f10620001fc57805160ff19168380011785556200022d565b828001600101855582156200022d579182015b828111156200022c5782518255916020019190600101906200020f565b5b5090506200023c919062000240565b5090565b5b808211156200025b57600081600090555060010162000241565b5090565b7f4e487b7100000000000000000000000000000000000000000000000000000000600052602260045260246000fd5b60006002820490506001821680620002a757607f821691505b602082108103620002bd57620002bc6200025f565b5b50919050565b61437b80620002d36000396000f3fe6080604052600436106101665760003560e01c806383638710116100d1578063a22cb4651161008a578063e757223011610064578063e75722301461058e578063e7af4757146105cb578063e985e9c514610608578063f2fde38b1461064557610166565b8063a22cb465146104ff578063b88d4fde14610528578063c87b56dd1461055157610166565b806383638710146103d65780638a0dbe7a146104135780638d3c100a1461043c5780638da5cb5b1461046c57806395d89b41146104975780639a4b0f2b146104c257610166565b806342842e0e1161012357806342842e0e1461029f5780636352211e146102c85780636386c1c7146103055780636847e3091461034557806370a0823114610382578063715018a6146103bf57610166565b806301ffc9a71461016b57806306fdde03146101a8578063081812fc146101d3578063095ea7b31461021057806323b872dd1461023957806324fc65ed14610262575b600080fd5b34801561017757600080fd5b50610192600480360381019061018d9190612be8565b61066e565b60405161019f9190612c30565b60405180910390f35b3480156101b457600080fd5b506101bd610750565b6040516101ca9190612ce4565b60405180910390f35b3480156101df57600080fd5b506101fa60048036038101906101f59190612d3c565b6107e2565b6040516102079190612daa565b60405180910390f35b34801561021c57600080fd5b5061023760048036038101906102329190612df1565b610867565b005b34801561024557600080fd5b50610260600480360381019061025b9190612e31565b61097e565b005b34801561026e57600080fd5b5061028960048036038101906102849190612e84565b6109de565b6040516102969190612ed3565b60405180910390f35b3480156102ab57600080fd5b506102c660048036038101906102c19190612e31565b610a09565b005b3480156102d457600080fd5b506102ef60048036038101906102ea9190612d3c565b610e5c565b6040516102fc9190612daa565b60405180910390f35b34801561031157600080fd5b5061032c60048036038101906103279190612eee565b610f0d565b60405161033c9493929190612f1b565b60405180910390f35b34801561035157600080fd5b5061036c60048036038101906103679190612d3c565b610f87565b6040516103799190612ed3565b60405180910390f35b34801561038e57600080fd5b506103a960048036038101906103a49190612eee565b610f9e565b6040516103b69190612ed3565b60405180910390f35b3480156103cb57600080fd5b506103d4611055565b005b3480156103e257600080fd5b506103fd60048036038101906103f89190612d3c565b6110dd565b60405161040a9190612daa565b60405180910390f35b34801561041f57600080fd5b5061043a60048036038101906104359190612f9e565b61111d565b005b61045660048036038101906104519190612fde565b611258565b6040516104639190612ed3565b60405180910390f35b34801561047857600080fd5b50610481611475565b60405161048e9190612daa565b60405180910390f35b3480156104a357600080fd5b506104ac61149e565b6040516104b99190612ce4565b60405180910390f35b3480156104ce57600080fd5b506104e960048036038101906104e49190612d3c565b611530565b6040516104f69190612ed3565b60405180910390f35b34801561050b57600080fd5b506105266004803603810190610521919061304a565b611547565b005b34801561053457600080fd5b5061054f600480360381019061054a91906131bf565b61155d565b005b34801561055d57600080fd5b5061057860048036038101906105739190612d3c565b6115bf565b6040516105859190612ce4565b60405180910390f35b34801561059a57600080fd5b506105b560048036038101906105b09190612d3c565b611666565b6040516105c29190612ed3565b60405180910390f35b3480156105d757600080fd5b506105f260048036038101906105ed9190612d3c565b611725565b6040516105ff9190613326565b60405180910390f35b34801561061457600080fd5b5061062f600480360381019061062a9190613342565b6118a2565b60405161063c9190612c30565b60405180910390f35b34801561065157600080fd5b5061066c60048036038101906106679190612eee565b611936565b005b60007f80ac58cd000000000000000000000000000000000000000000000000000000007bffffffffffffffffffffffffffffffffffffffffffffffffffffffff1916827bffffffffffffffffffffffffffffffffffffffffffffffffffffffff1916148061073957507f5b5e139f000000000000000000000000000000000000000000000000000000007bffffffffffffffffffffffffffffffffffffffffffffffffffffffff1916827bffffffffffffffffffffffffffffffffffffffffffffffffffffffff1916145b80610749575061074882611a2d565b5b9050919050565b60606001805461075f906133b1565b80601f016020809104026020016040519081016040528092919081815260200182805461078b906133b1565b80156107d85780601f106107ad576101008083540402835291602001916107d8565b820191906000526020600020905b8154815290600101906020018083116107bb57829003601f168201915b5050505050905090565b60006107ed82611a97565b61082c576040517f08c379a000000000000000000000000000000000000000000000000000000000815260040161082390613454565b60405180910390fd5b6005600083815260200190815260200160002060009054906101000a900473ffffffffffffffffffffffffffffffffffffffff169050919050565b600061087282610e5c565b90508073ffffffffffffffffffffffffffffffffffffffff168373ffffffffffffffffffffffffffffffffffffffff16036108e2576040517f08c379a00000000000000000000000000000000000000000000000000000000081526004016108d9906134e6565b60405180910390fd5b8073ffffffffffffffffffffffffffffffffffffffff16610901611b03565b73ffffffffffffffffffffffffffffffffffffffff161480610930575061092f8161092a611b03565b6118a2565b5b61096f576040517f08c379a000000000000000000000000000000000000000000000000000000000815260040161096690613578565b60405180910390fd5b6109798383611b0b565b505050565b61098f610989611b03565b82611bc4565b6109ce576040517f08c379a00000000000000000000000000000000000000000000000000000000081526004016109c59061360a565b60405180910390fd5b6109d9838383611ca2565b505050565b600080600c54846109ef9190613659565b905082816109fd91906136b3565b90508091505092915050565b6000610a1482611530565b90506000600a600083815260200190815260200160002060050160008673ffffffffffffffffffffffffffffffffffffffff1673ffffffffffffffffffffffffffffffffffffffff16815260200190815260200160002054118015610acc57506000600860008673ffffffffffffffffffffffffffffffffffffffff1673ffffffffffffffffffffffffffffffffffffffff168152602001908152602001600020600201600083815260200190815260200160002054115b610ad557600080fd5b6000600960008481526020019081526020016000209050848160080160006101000a81548173ffffffffffffffffffffffffffffffffffffffff021916908373ffffffffffffffffffffffffffffffffffffffff160217905550838160070160006101000a81548173ffffffffffffffffffffffffffffffffffffffff021916908373ffffffffffffffffffffffffffffffffffffffff160217905550806003016000815480929190610b8790613709565b91905055506000600a600084815260200190815260200160002090508060050160008773ffffffffffffffffffffffffffffffffffffffff1673ffffffffffffffffffffffffffffffffffffffff1681526020019081526020016000206000815480929190610bf590613751565b91905055508060050160008673ffffffffffffffffffffffffffffffffffffffff1673ffffffffffffffffffffffffffffffffffffffff1681526020019081526020016000206000815480929190610c4c90613709565b91905055506000600860008873ffffffffffffffffffffffffffffffffffffffff1673ffffffffffffffffffffffffffffffffffffffff16815260200190815260200160002090506000600860008873ffffffffffffffffffffffffffffffffffffffff1673ffffffffffffffffffffffffffffffffffffffff16815260200190815260200160002090508160020160008681526020019081526020016000206000815480929190610cfd90613751565b9190505550816001016000815480929190610d1790613751565b91905055508060020160008681526020019081526020016000206000815480929190610d4290613709565b9190505550806001016000815480929190610d5c90613709565b919050555060008460050154905060008560040154905060008203610d8957808460030181905550610da5565b8060096000848152602001908152602001600020600401819055505b60008103610db7578184600401819055505b6000836004015490508087600501819055506000876004018190555060008103610de957888460030181905550610e05565b8860096000838152602001908152602001600020600401819055505b888460040181905550610e4f8b8b8b6040518060400160405280600181526020017f2000000000000000000000000000000000000000000000000000000000000000815250611f08565b5050505050505050505050565b6000806003600084815260200190815260200160002060009054906101000a900473ffffffffffffffffffffffffffffffffffffffff169050600073ffffffffffffffffffffffffffffffffffffffff168173ffffffffffffffffffffffffffffffffffffffff1603610f04576040517f08c379a0000000000000000000000000000000000000000000000000000000008152600401610efb906137ec565b60405180910390fd5b80915050919050565b6000806000806000600860008773ffffffffffffffffffffffffffffffffffffffff1673ffffffffffffffffffffffffffffffffffffffff16815260200190815260200160002090508060000160009054906101000a900460ff168160010154826003015483600401549450945094509450509193509193565b6000600c5482610f97919061383b565b9050919050565b60008073ffffffffffffffffffffffffffffffffffffffff168273ffffffffffffffffffffffffffffffffffffffff160361100e576040517f08c379a0000000000000000000000000000000000000000000000000000000008152600401611005906138de565b60405180910390fd5b600460008373ffffffffffffffffffffffffffffffffffffffff1673ffffffffffffffffffffffffffffffffffffffff168152602001908152602001600020549050919050565b61105d611b03565b73ffffffffffffffffffffffffffffffffffffffff1661107b611475565b73ffffffffffffffffffffffffffffffffffffffff16146110d1576040517f08c379a00000000000000000000000000000000000000000000000000000000081526004016110c89061394a565b60405180910390fd5b6110db6000611f64565b565b60006009600083815260200190815260200160002060070160009054906101000a900473ffffffffffffffffffffffffffffffffffffffff169050919050565b6000600a600084815260200190815260200160002090508060000160009054906101000a900460ff1615611186576040517f08c379a000000000000000000000000000000000000000000000000000000000815260040161117d906139b6565b60405180910390fd5b61118e611475565b73ffffffffffffffffffffffffffffffffffffffff163373ffffffffffffffffffffffffffffffffffffffff16146111c557600080fd5b6001600a600085815260200190815260200160002060000160006101000a81548160ff02191690831515021790555081600a600085815260200190815260200160002060040160006101000a81548173ffffffffffffffffffffffffffffffffffffffff021916908373ffffffffffffffffffffffffffffffffffffffff1602179055506112538383612028565b505050565b6000600a600084815260200190815260200160002060000160009054906101000a900460ff166112bd576040517f08c379a00000000000000000000000000000000000000000000000000000000081526004016112b490613a22565b60405180910390fd5b600066038d7ea4c680006112d085611666565b6112da9190613659565b90508034101561131f576040517f08c379a000000000000000000000000000000000000000000000000000000000815260040161131690613ab4565b60405180910390fd5b600060646050836113309190613659565b61133a9190613ad4565b90506000818361134a9190613b05565b90506000600a600088815260200190815260200160002060040160009054906101000a900473ffffffffffffffffffffffffffffffffffffffff1690506113918787612028565b8073ffffffffffffffffffffffffffffffffffffffff166108fc849081150290604051600060405180830381858888f193505050501580156113d7573d6000803e3d6000fd5b506113e0611475565b73ffffffffffffffffffffffffffffffffffffffff166108fc839081150290604051600060405180830381858888f19350505050158015611425573d6000803e3d6000fd5b50600860008773ffffffffffffffffffffffffffffffffffffffff1673ffffffffffffffffffffffffffffffffffffffff1681526020019081526020016000206004015494505050505092915050565b60008060009054906101000a900473ffffffffffffffffffffffffffffffffffffffff16905090565b6060600280546114ad906133b1565b80601f01602080910402602001604051908101604052809291908181526020018280546114d9906133b1565b80156115265780601f106114fb57610100808354040283529160200191611526565b820191906000526020600020905b81548152906001019060200180831161150957829003601f168201915b5050505050905090565b6000600c54826115409190613ad4565b9050919050565b611559611552611b03565b8383612345565b5050565b61156e611568611b03565b83611bc4565b6115ad576040517f08c379a00000000000000000000000000000000000000000000000000000000081526004016115a49061360a565b60405180910390fd5b6115b984848484611f08565b50505050565b60606115ca82611a97565b611609576040517f08c379a000000000000000000000000000000000000000000000000000000000815260040161160090613bab565b60405180910390fd5b60006116136124b1565b90506000815111611633576040518060200160405280600081525061165e565b8061163d846124c8565b60405160200161164e929190613c07565b6040516020818303038152906040525b915050919050565b6000600a600083815260200190815260200160002060000160009054906101000a900460ff166116cb576040517f08c379a00000000000000000000000000000000000000000000000000000000081526004016116c290613c77565b60405180910390fd5b6000600a90506000603290506000600a6000868152602001908152602001600020600201549050600082826117009190613ad4565b905080600261170f9190613dca565b8461171a9190613659565b945050505050919050565b61172d612aec565b60096000838152602001908152602001600020604051806101200160405290816000820160009054906101000a900460ff1615151515815260200160018201548152602001600282015481526020016003820154815260200160048201548152602001600582015481526020016006820160009054906101000a900473ffffffffffffffffffffffffffffffffffffffff1673ffffffffffffffffffffffffffffffffffffffff1673ffffffffffffffffffffffffffffffffffffffff1681526020016007820160009054906101000a900473ffffffffffffffffffffffffffffffffffffffff1673ffffffffffffffffffffffffffffffffffffffff1673ffffffffffffffffffffffffffffffffffffffff1681526020016008820160009054906101000a900473ffffffffffffffffffffffffffffffffffffffff1673ffffffffffffffffffffffffffffffffffffffff1673ffffffffffffffffffffffffffffffffffffffff16815250509050919050565b6000600660008473ffffffffffffffffffffffffffffffffffffffff1673ffffffffffffffffffffffffffffffffffffffff16815260200190815260200160002060008373ffffffffffffffffffffffffffffffffffffffff1673ffffffffffffffffffffffffffffffffffffffff16815260200190815260200160002060009054906101000a900460ff16905092915050565b61193e611b03565b73ffffffffffffffffffffffffffffffffffffffff1661195c611475565b73ffffffffffffffffffffffffffffffffffffffff16146119b2576040517f08c379a00000000000000000000000000000000000000000000000000000000081526004016119a99061394a565b60405180910390fd5b600073ffffffffffffffffffffffffffffffffffffffff168173ffffffffffffffffffffffffffffffffffffffff1603611a21576040517f08c379a0000000000000000000000000000000000000000000000000000000008152600401611a1890613e87565b60405180910390fd5b611a2a81611f64565b50565b60007f01ffc9a7000000000000000000000000000000000000000000000000000000007bffffffffffffffffffffffffffffffffffffffffffffffffffffffff1916827bffffffffffffffffffffffffffffffffffffffffffffffffffffffff1916149050919050565b60008073ffffffffffffffffffffffffffffffffffffffff166003600084815260200190815260200160002060009054906101000a900473ffffffffffffffffffffffffffffffffffffffff1673ffffffffffffffffffffffffffffffffffffffff1614159050919050565b600033905090565b816005600083815260200190815260200160002060006101000a81548173ffffffffffffffffffffffffffffffffffffffff021916908373ffffffffffffffffffffffffffffffffffffffff160217905550808273ffffffffffffffffffffffffffffffffffffffff16611b7e83610e5c565b73ffffffffffffffffffffffffffffffffffffffff167f8c5be1e5ebec7d5bd14f71427d1e84f3dd0314c0f7b2291e5b200ac8c7c3b92560405160405180910390a45050565b6000611bcf82611a97565b611c0e576040517f08c379a0000000000000000000000000000000000000000000000000000000008152600401611c0590613f19565b60405180910390fd5b6000611c1983610e5c565b90508073ffffffffffffffffffffffffffffffffffffffff168473ffffffffffffffffffffffffffffffffffffffff161480611c5b5750611c5a81856118a2565b5b80611c9957508373ffffffffffffffffffffffffffffffffffffffff16611c81846107e2565b73ffffffffffffffffffffffffffffffffffffffff16145b91505092915050565b8273ffffffffffffffffffffffffffffffffffffffff16611cc282610e5c565b73ffffffffffffffffffffffffffffffffffffffff1614611d18576040517f08c379a0000000000000000000000000000000000000000000000000000000008152600401611d0f90613fab565b60405180910390fd5b600073ffffffffffffffffffffffffffffffffffffffff168273ffffffffffffffffffffffffffffffffffffffff1603611d87576040517f08c379a0000000000000000000000000000000000000000000000000000000008152600401611d7e9061403d565b60405180910390fd5b611d92838383612628565b611d9d600082611b0b565b6001600460008573ffffffffffffffffffffffffffffffffffffffff1673ffffffffffffffffffffffffffffffffffffffff1681526020019081526020016000206000828254611ded9190613b05565b925050819055506001600460008473ffffffffffffffffffffffffffffffffffffffff1673ffffffffffffffffffffffffffffffffffffffff1681526020019081526020016000206000828254611e4491906136b3565b92505081905550816003600083815260200190815260200160002060006101000a81548173ffffffffffffffffffffffffffffffffffffffff021916908373ffffffffffffffffffffffffffffffffffffffff160217905550808273ffffffffffffffffffffffffffffffffffffffff168473ffffffffffffffffffffffffffffffffffffffff167fddf252ad1be2c89b69c2b068fc378daa952ba7f163c4a11628f55a4df523b3ef60405160405180910390a4611f0383838361262d565b505050565b611f13848484611ca2565b611f1f84848484612632565b611f5e576040517f08c379a0000000000000000000000000000000000000000000000000000000008152600401611f55906140cf565b60405180910390fd5b50505050565b60008060009054906101000a900473ffffffffffffffffffffffffffffffffffffffff169050816000806101000a81548173ffffffffffffffffffffffffffffffffffffffff021916908373ffffffffffffffffffffffffffffffffffffffff1602179055508173ffffffffffffffffffffffffffffffffffffffff168173ffffffffffffffffffffffffffffffffffffffff167f8be0079c531659141344cd1fd0a4f28419497f9722a3daafe3b4186f6b6457e060405160405180910390a35050565b600a600083815260200190815260200160002060000160009054906101000a900460ff1661205557600080fd5b6000600a6000848152602001908152602001600020600201549050600061207c84836109de565b9050600060096000838152602001908152602001600020905060018160000160006101000a81548160ff021916908315150217905550848160010181905550828160020181905550838160060160006101000a81548173ffffffffffffffffffffffffffffffffffffffff021916908373ffffffffffffffffffffffffffffffffffffffff160217905550838160070160006101000a81548173ffffffffffffffffffffffffffffffffffffffff021916908373ffffffffffffffffffffffffffffffffffffffff1602179055506000600860008673ffffffffffffffffffffffffffffffffffffffff1673ffffffffffffffffffffffffffffffffffffffff16815260200190815260200160002090508060000160009054906101000a900460ff166121b6576121ac856127b9565b8281600301819055505b6000808260010154141590508015612235576000600860008873ffffffffffffffffffffffffffffffffffffffff1673ffffffffffffffffffffffffffffffffffffffff168152602001908152602001600020600401549050846009600083815260200190815260200160002060040181905550808460050181905550505b838260040181905550816002016000888152602001908152602001600020600081548092919061226490613709565b919050555081600101600081548092919061227e90613709565b9190505550600a600088815260200190815260200160002060020160008154809291906122aa90613709565b9190505550600a600088815260200190815260200160002060050160008773ffffffffffffffffffffffffffffffffffffffff1673ffffffffffffffffffffffffffffffffffffffff168152602001908152602001600020600081548092919061231390613709565b91905055506001600b600082825461232b91906136b3565b9250508190555061233c3385612877565b50505050505050565b8173ffffffffffffffffffffffffffffffffffffffff168373ffffffffffffffffffffffffffffffffffffffff16036123b3576040517f08c379a00000000000000000000000000000000000000000000000000000000081526004016123aa9061413b565b60405180910390fd5b80600660008573ffffffffffffffffffffffffffffffffffffffff1673ffffffffffffffffffffffffffffffffffffffff16815260200190815260200160002060008473ffffffffffffffffffffffffffffffffffffffff1673ffffffffffffffffffffffffffffffffffffffff16815260200190815260200160002060006101000a81548160ff0219169083151502179055508173ffffffffffffffffffffffffffffffffffffffff168373ffffffffffffffffffffffffffffffffffffffff167f17307eab39ab6107e8899845ad3d59bd9653f200f220920489ca2b5937696c31836040516124a49190612c30565b60405180910390a3505050565b606060405180602001604052806000815250905090565b60606000820361250f576040518060400160405280600181526020017f30000000000000000000000000000000000000000000000000000000000000008152509050612623565b600082905060005b6000821461254157808061252a90613709565b915050600a8261253a9190613ad4565b9150612517565b60008167ffffffffffffffff81111561255d5761255c613094565b5b6040519080825280601f01601f19166020018201604052801561258f5781602001600182028036833780820191505090505b5090505b6000851461261c576001826125a89190613b05565b9150600a856125b7919061383b565b60306125c391906136b3565b60f81b8183815181106125d9576125d861415b565b5b60200101907effffffffffffffffffffffffffffffffffffffffffffffffffffffffffffff1916908160001a905350600a856126159190613ad4565b9450612593565b8093505050505b919050565b505050565b505050565b60006126538473ffffffffffffffffffffffffffffffffffffffff16612895565b156127ac578373ffffffffffffffffffffffffffffffffffffffff1663150b7a0261267c611b03565b8786866040518563ffffffff1660e01b815260040161269e94939291906141df565b6020604051808303816000875af19250505080156126da57506040513d601f19601f820116820180604052508101906126d79190614240565b60015b61275c573d806000811461270a576040519150601f19603f3d011682016040523d82523d6000602084013e61270f565b606091505b506000815103612754576040517f08c379a000000000000000000000000000000000000000000000000000000000815260040161274b906140cf565b60405180910390fd5b805181602001fd5b63150b7a0260e01b7bffffffffffffffffffffffffffffffffffffffffffffffffffffffff1916817bffffffffffffffffffffffffffffffffffffffffffffffffffffffff1916149150506127b1565b600190505b949350505050565b6000600860008373ffffffffffffffffffffffffffffffffffffffff1673ffffffffffffffffffffffffffffffffffffffff16815260200190815260200160002090508060000160009054906101000a900460ff166128735760018160000160006101000a81548160ff021916908315150217905550818160000160016101000a81548173ffffffffffffffffffffffffffffffffffffffff021916908373ffffffffffffffffffffffffffffffffffffffff1602179055505b5050565b6128918282604051806020016040528060008152506128b8565b5050565b6000808273ffffffffffffffffffffffffffffffffffffffff163b119050919050565b6128c28383612913565b6128cf6000848484612632565b61290e576040517f08c379a0000000000000000000000000000000000000000000000000000000008152600401612905906140cf565b60405180910390fd5b505050565b600073ffffffffffffffffffffffffffffffffffffffff168273ffffffffffffffffffffffffffffffffffffffff1603612982576040517f08c379a0000000000000000000000000000000000000000000000000000000008152600401612979906142b9565b60405180910390fd5b61298b81611a97565b156129cb576040517f08c379a00000000000000000000000000000000000000000000000000000000081526004016129c290614325565b60405180910390fd5b6129d760008383612628565b6001600460008473ffffffffffffffffffffffffffffffffffffffff1673ffffffffffffffffffffffffffffffffffffffff1681526020019081526020016000206000828254612a2791906136b3565b92505081905550816003600083815260200190815260200160002060006101000a81548173ffffffffffffffffffffffffffffffffffffffff021916908373ffffffffffffffffffffffffffffffffffffffff160217905550808273ffffffffffffffffffffffffffffffffffffffff16600073ffffffffffffffffffffffffffffffffffffffff167fddf252ad1be2c89b69c2b068fc378daa952ba7f163c4a11628f55a4df523b3ef60405160405180910390a4612ae86000838361262d565b5050565b6040518061012001604052806000151581526020016000815260200160008152602001600081526020016000815260200160008152602001600073ffffffffffffffffffffffffffffffffffffffff168152602001600073ffffffffffffffffffffffffffffffffffffffff168152602001600073ffffffffffffffffffffffffffffffffffffffff1681525090565b6000604051905090565b600080fd5b600080fd5b60007fffffffff0000000000000000000000000000000000000000000000000000000082169050919050565b612bc581612b90565b8114612bd057600080fd5b50565b600081359050612be281612bbc565b92915050565b600060208284031215612bfe57612bfd612b86565b5b6000612c0c84828501612bd3565b91505092915050565b60008115159050919050565b612c2a81612c15565b82525050565b6000602082019050612c456000830184612c21565b92915050565b600081519050919050565b600082825260208201905092915050565b60005b83811015612c85578082015181840152602081019050612c6a565b83811115612c94576000848401525b50505050565b6000601f19601f8301169050919050565b6000612cb682612c4b565b612cc08185612c56565b9350612cd0818560208601612c67565b612cd981612c9a565b840191505092915050565b60006020820190508181036000830152612cfe8184612cab565b905092915050565b6000819050919050565b612d1981612d06565b8114612d2457600080fd5b50565b600081359050612d3681612d10565b92915050565b600060208284031215612d5257612d51612b86565b5b6000612d6084828501612d27565b91505092915050565b600073ffffffffffffffffffffffffffffffffffffffff82169050919050565b6000612d9482612d69565b9050919050565b612da481612d89565b82525050565b6000602082019050612dbf6000830184612d9b565b92915050565b612dce81612d89565b8114612dd957600080fd5b50565b600081359050612deb81612dc5565b92915050565b60008060408385031215612e0857612e07612b86565b5b6000612e1685828601612ddc565b9250506020612e2785828601612d27565b9150509250929050565b600080600060608486031215612e4a57612e49612b86565b5b6000612e5886828701612ddc565b9350506020612e6986828701612ddc565b9250506040612e7a86828701612d27565b9150509250925092565b60008060408385031215612e9b57612e9a612b86565b5b6000612ea985828601612d27565b9250506020612eba85828601612d27565b9150509250929050565b612ecd81612d06565b82525050565b6000602082019050612ee86000830184612ec4565b92915050565b600060208284031215612f0457612f03612b86565b5b6000612f1284828501612ddc565b91505092915050565b6000608082019050612f306000830187612c21565b612f3d6020830186612ec4565b612f4a6040830185612ec4565b612f576060830184612ec4565b95945050505050565b6000612f6b82612d69565b9050919050565b612f7b81612f60565b8114612f8657600080fd5b50565b600081359050612f9881612f72565b92915050565b60008060408385031215612fb557612fb4612b86565b5b6000612fc385828601612d27565b9250506020612fd485828601612f89565b9150509250929050565b60008060408385031215612ff557612ff4612b86565b5b600061300385828601612d27565b925050602061301485828601612ddc565b9150509250929050565b61302781612c15565b811461303257600080fd5b50565b6000813590506130448161301e565b92915050565b6000806040838503121561306157613060612b86565b5b600061306f85828601612ddc565b925050602061308085828601613035565b9150509250929050565b600080fd5b600080fd5b7f4e487b7100000000000000000000000000000000000000000000000000000000600052604160045260246000fd5b6130cc82612c9a565b810181811067ffffffffffffffff821117156130eb576130ea613094565b5b80604052505050565b60006130fe612b7c565b905061310a82826130c3565b919050565b600067ffffffffffffffff82111561312a57613129613094565b5b61313382612c9a565b9050602081019050919050565b82818337600083830152505050565b600061316261315d8461310f565b6130f4565b90508281526020810184848401111561317e5761317d61308f565b5b613189848285613140565b509392505050565b600082601f8301126131a6576131a561308a565b5b81356131b684826020860161314f565b91505092915050565b600080600080608085870312156131d9576131d8612b86565b5b60006131e787828801612ddc565b94505060206131f887828801612ddc565b935050604061320987828801612d27565b925050606085013567ffffffffffffffff81111561322a57613229612b8b565b5b61323687828801613191565b91505092959194509250565b61324b81612c15565b82525050565b61325a81612d06565b82525050565b61326981612d89565b82525050565b610120820160008201516132866000850182613242565b5060208201516132996020850182613251565b5060408201516132ac6040850182613251565b5060608201516132bf6060850182613251565b5060808201516132d26080850182613251565b5060a08201516132e560a0850182613251565b5060c08201516132f860c0850182613260565b5060e082015161330b60e0850182613260565b50610100820151613320610100850182613260565b50505050565b60006101208201905061333c600083018461326f565b92915050565b6000806040838503121561335957613358612b86565b5b600061336785828601612ddc565b925050602061337885828601612ddc565b9150509250929050565b7f4e487b7100000000000000000000000000000000000000000000000000000000600052602260045260246000fd5b600060028204905060018216806133c957607f821691505b6020821081036133dc576133db613382565b5b50919050565b7f4552433732313a20617070726f76656420717565727920666f72206e6f6e657860008201527f697374656e7420746f6b656e0000000000000000000000000000000000000000602082015250565b600061343e602c83612c56565b9150613449826133e2565b604082019050919050565b6000602082019050818103600083015261346d81613431565b9050919050565b7f4552433732313a20617070726f76616c20746f2063757272656e74206f776e6560008201527f7200000000000000000000000000000000000000000000000000000000000000602082015250565b60006134d0602183612c56565b91506134db82613474565b604082019050919050565b600060208201905081810360008301526134ff816134c3565b9050919050565b7f4552433732313a20617070726f76652063616c6c6572206973206e6f74206f7760008201527f6e6572206e6f7220617070726f76656420666f7220616c6c0000000000000000602082015250565b6000613562603883612c56565b915061356d82613506565b604082019050919050565b6000602082019050818103600083015261359181613555565b9050919050565b7f4552433732313a207472616e736665722063616c6c6572206973206e6f74206f60008201527f776e6572206e6f7220617070726f766564000000000000000000000000000000602082015250565b60006135f4603183612c56565b91506135ff82613598565b604082019050919050565b60006020820190508181036000830152613623816135e7565b9050919050565b7f4e487b7100000000000000000000000000000000000000000000000000000000600052601160045260246000fd5b600061366482612d06565b915061366f83612d06565b9250817fffffffffffffffffffffffffffffffffffffffffffffffffffffffffffffffff04831182151516156136a8576136a761362a565b5b828202905092915050565b60006136be82612d06565b91506136c983612d06565b9250827fffffffffffffffffffffffffffffffffffffffffffffffffffffffffffffffff038211156136fe576136fd61362a565b5b828201905092915050565b600061371482612d06565b91507fffffffffffffffffffffffffffffffffffffffffffffffffffffffffffffffff82036137465761374561362a565b5b600182019050919050565b600061375c82612d06565b91506000820361376f5761376e61362a565b5b600182039050919050565b7f4552433732313a206f776e657220717565727920666f72206e6f6e657869737460008201527f656e7420746f6b656e0000000000000000000000000000000000000000000000602082015250565b60006137d6602983612c56565b91506137e18261377a565b604082019050919050565b60006020820190508181036000830152613805816137c9565b9050919050565b7f4e487b7100000000000000000000000000000000000000000000000000000000600052601260045260246000fd5b600061384682612d06565b915061385183612d06565b9250826138615761386061380c565b5b828206905092915050565b7f4552433732313a2062616c616e636520717565727920666f7220746865207a6560008201527f726f206164647265737300000000000000000000000000000000000000000000602082015250565b60006138c8602a83612c56565b91506138d38261386c565b604082019050919050565b600060208201905081810360008301526138f7816138bb565b9050919050565b7f4f776e61626c653a2063616c6c6572206973206e6f7420746865206f776e6572600082015250565b6000613934602083612c56565b915061393f826138fe565b602082019050919050565b6000602082019050818103600083015261396381613927565b9050919050565b7f5075626c69636174696f6e206d696e746564206265666f72652e000000000000600082015250565b60006139a0601a83612c56565b91506139ab8261396a565b602082019050919050565b600060208201905081810360008301526139cf81613993565b9050919050565b7f426f6f6b20646f65736e27742065786973740000000000000000000000000000600082015250565b6000613a0c601283612c56565b9150613a17826139d6565b602082019050919050565b60006020820190508181036000830152613a3b816139ff565b9050919050565b7f496e73756666696369656e742066756e64732e20506c6561736520636865636b60008201527f2070726963652e00000000000000000000000000000000000000000000000000602082015250565b6000613a9e602783612c56565b9150613aa982613a42565b604082019050919050565b60006020820190508181036000830152613acd81613a91565b9050919050565b6000613adf82612d06565b9150613aea83612d06565b925082613afa57613af961380c565b5b828204905092915050565b6000613b1082612d06565b9150613b1b83612d06565b925082821015613b2e57613b2d61362a565b5b828203905092915050565b7f4552433732314d657461646174613a2055524920717565727920666f72206e6f60008201527f6e6578697374656e7420746f6b656e0000000000000000000000000000000000602082015250565b6000613b95602f83612c56565b9150613ba082613b39565b604082019050919050565b60006020820190508181036000830152613bc481613b88565b9050919050565b600081905092915050565b6000613be182612c4b565b613beb8185613bcb565b9350613bfb818560208601612c67565b80840191505092915050565b6000613c138285613bd6565b9150613c1f8284613bd6565b91508190509392505050565b7f54426f6f6b20646f6573206e6f74206578697374000000000000000000000000600082015250565b6000613c61601483612c56565b9150613c6c82613c2b565b602082019050919050565b60006020820190508181036000830152613c9081613c54565b9050919050565b60008160011c9050919050565b6000808291508390505b6001851115613cee57808604811115613cca57613cc961362a565b5b6001851615613cd95780820291505b8081029050613ce785613c97565b9450613cae565b94509492505050565b600082613d075760019050613dc3565b81613d155760009050613dc3565b8160018114613d2b5760028114613d3557613d64565b6001915050613dc3565b60ff841115613d4757613d4661362a565b5b8360020a915084821115613d5e57613d5d61362a565b5b50613dc3565b5060208310610133831016604e8410600b8410161715613d995782820a905083811115613d9457613d9361362a565b5b613dc3565b613da68484846001613ca4565b92509050818404811115613dbd57613dbc61362a565b5b81810290505b9392505050565b6000613dd582612d06565b9150613de083612d06565b9250613e0d7fffffffffffffffffffffffffffffffffffffffffffffffffffffffffffffffff8484613cf7565b905092915050565b7f4f776e61626c653a206e6577206f776e657220697320746865207a65726f206160008201527f6464726573730000000000000000000000000000000000000000000000000000602082015250565b6000613e71602683612c56565b9150613e7c82613e15565b604082019050919050565b60006020820190508181036000830152613ea081613e64565b9050919050565b7f4552433732313a206f70657261746f7220717565727920666f72206e6f6e657860008201527f697374656e7420746f6b656e0000000000000000000000000000000000000000602082015250565b6000613f03602c83612c56565b9150613f0e82613ea7565b604082019050919050565b60006020820190508181036000830152613f3281613ef6565b9050919050565b7f4552433732313a207472616e736665722066726f6d20696e636f72726563742060008201527f6f776e6572000000000000000000000000000000000000000000000000000000602082015250565b6000613f95602583612c56565b9150613fa082613f39565b604082019050919050565b60006020820190508181036000830152613fc481613f88565b9050919050565b7f4552433732313a207472616e7366657220746f20746865207a65726f2061646460008201527f7265737300000000000000000000000000000000000000000000000000000000602082015250565b6000614027602483612c56565b915061403282613fcb565b604082019050919050565b600060208201905081810360008301526140568161401a565b9050919050565b7f4552433732313a207472616e7366657220746f206e6f6e20455243373231526560008201527f63656976657220696d706c656d656e7465720000000000000000000000000000602082015250565b60006140b9603283612c56565b91506140c48261405d565b604082019050919050565b600060208201905081810360008301526140e8816140ac565b9050919050565b7f4552433732313a20617070726f766520746f2063616c6c657200000000000000600082015250565b6000614125601983612c56565b9150614130826140ef565b602082019050919050565b6000602082019050818103600083015261415481614118565b9050919050565b7f4e487b7100000000000000000000000000000000000000000000000000000000600052603260045260246000fd5b600081519050919050565b600082825260208201905092915050565b60006141b18261418a565b6141bb8185614195565b93506141cb818560208601612c67565b6141d481612c9a565b840191505092915050565b60006080820190506141f46000830187612d9b565b6142016020830186612d9b565b61420e6040830185612ec4565b818103606083015261422081846141a6565b905095945050505050565b60008151905061423a81612bbc565b92915050565b60006020828403121561425657614255612b86565b5b60006142648482850161422b565b91505092915050565b7f4552433732313a206d696e7420746f20746865207a65726f2061646472657373600082015250565b60006142a3602083612c56565b91506142ae8261426d565b602082019050919050565b600060208201905081810360008301526142d281614296565b9050919050565b7f4552433732313a20746f6b656e20616c7265616479206d696e74656400000000600082015250565b600061430f601c83612c56565b915061431a826142d9565b602082019050919050565b6000602082019050818103600083015261433e81614302565b905091905056fea2646970667358221220185173c870d3b1716373ac7e805f1b879fac6a614aec505dc8c4f4f5941b010a64736f6c634300080d0033",
  "immutableReferences": {},
  "source": "// SPDX-License-Identifier: MIT\npragma solidity ^0.8.0;\n\nimport \"@openzeppelin/contracts/token/ERC721/ERC721.sol\";\nimport \"@openzeppelin/contracts/access/Ownable.sol\";\n\ncontract TBookFactory is Ownable, ERC721 {\n    // A Copy of a Book\n    struct CopyInfo {\n        // Basics\n        bool exists;\n        uint256 tbsn;\n        uint256 copyNumber;\n        uint256 numTransactions; // How many times sold/transacted\n        // Linked List info;\n        uint256 nextLinkId;\n        uint256 prevLinkId;\n        // Holder Info\n        address initHolder; // Who minted this\n        address currentHolder;\n        address lastHolder; // Who was the last person to hold this NFT\n    }\n    // A Single Book\n    struct TBookInfo {\n        bool exists;\n        uint256 tbsn;\n        uint256 numCopies; // Max 10 ** 12 copies\n        uint256 mintPrice;\n        address payable author;\n        mapping(address => uint256) collectors;\n    }\n\n    // A Single User\n    struct UserInfo {\n        bool exists;\n        address userAddress;\n        uint256 collectionSize;\n        mapping(uint256 => uint256) bookToCopies; // Maps TBSN to whether the number of copies the user has collected.\n        // LinkedList Info\n        uint256 firstLinkId;\n        uint256 lastLinkId;\n    }\n\n    uint256 numUsers;\n    mapping(address => UserInfo) addressToUser;\n\n    // This ID is the NFT ID, is completely seperate from TBSN and Copy Number\n    mapping(uint256 => CopyInfo) idToCopy;\n\n    // Maps TBSN to TBook Info\n    mapping(uint256 => TBookInfo) tbsnToBook;\n\n    uint256 totalCopies;\n\n    // Max copies of a single TBook\n    uint256 private _maxCopies;\n\n    constructor() ERC721(\"TBook\", \"TBK\") {\n        _maxCopies = 10**9;\n    }\n\n    // -------- Test functions -----------\n    function getOwnerOf(uint256 tokenId) public view returns (address) {\n        return idToCopy[tokenId].currentHolder;\n    }\n\n    // -----------------------------------\n\n    /**\n    Gets the ID from the TBSN and the Copy Number\n    Copy 1 of 75025 would be 75025000000001\n     */\n    function getId(uint256 tbsn, uint256 copyNumber)\n        public\n        view\n        returns (uint256)\n    {\n        uint256 id = tbsn * (_maxCopies);\n        id += copyNumber;\n        return id;\n    }\n\n    function tbsnFromId(uint256 id) public view returns (uint256) {\n        return id / _maxCopies;\n    }\n\n    function copyNumberFromId(uint256 id) public view returns (uint256) {\n        return id % _maxCopies;\n    }\n\n    function createUser(address userAddress) internal {\n        UserInfo storage newUser = addressToUser[userAddress];\n        if (!newUser.exists) {\n            newUser.exists = true;\n            newUser.userAddress = userAddress;\n        }\n    }\n\n    // Mint a copy of the book\n    function mint(uint256 tbsn, address mintAddress) internal {\n        require(tbsnToBook[tbsn].exists);\n        uint256 currentCopy = tbsnToBook[tbsn].numCopies;\n\n        // Generate the ID from the TBSN + Copy Number\n        uint256 id = getId(tbsn, currentCopy);\n\n        // Update CopyInfo\n        CopyInfo storage mintCopy = idToCopy[id];\n        mintCopy.exists = true;\n        mintCopy.tbsn = tbsn;\n        mintCopy.copyNumber = currentCopy;\n        mintCopy.initHolder = mintAddress;\n        mintCopy.currentHolder = mintAddress;\n\n        // Update UserInfo\n        UserInfo storage mintUser = addressToUser[mintAddress];\n        if (!mintUser.exists) {\n            // Init userInfo\n            createUser(mintAddress);\n            mintUser.firstLinkId = id;\n        }\n\n        // Update the LinkedList\n        bool hasCollected = mintUser.collectionSize != 0;\n        if (hasCollected) {\n            uint256 lastLink = addressToUser[mintAddress].lastLinkId;\n            idToCopy[lastLink].nextLinkId = id;\n            mintCopy.prevLinkId = lastLink;\n        }\n        mintUser.lastLinkId = id;\n        mintUser.bookToCopies[tbsn]++;\n        mintUser.collectionSize++;\n\n        // Update BookInfo\n        tbsnToBook[tbsn].numCopies++;\n        tbsnToBook[tbsn].collectors[mintAddress]++;\n\n        totalCopies += 1;\n        _safeMint(msg.sender, id);\n    }\n\n    function safeTransferFrom(\n        address from,\n        address to,\n        uint256 tokenId\n    ) public override {\n        uint256 tbsn = tbsnFromId(tokenId);\n        require(\n            (tbsnToBook[tbsn].collectors[from] > 0) &&\n                (addressToUser[from].bookToCopies[tbsn] > 0)\n        );\n\n        // Update CopyInfo\n        CopyInfo storage bookCopy = idToCopy[tokenId];\n        bookCopy.lastHolder = from;\n        bookCopy.currentHolder = to;\n        bookCopy.numTransactions++;\n\n        // Update TBookInfo\n        TBookInfo storage tbookInfo = tbsnToBook[tbsn];\n        tbookInfo.collectors[from]--;\n        tbookInfo.collectors[to]++;\n\n        // Update UserInfo\n        UserInfo storage fromUser = addressToUser[from];\n        UserInfo storage toUser = addressToUser[to];\n\n        fromUser.bookToCopies[tbsn]--;\n        fromUser.collectionSize--;\n        toUser.bookToCopies[tbsn]++;\n        toUser.collectionSize++;\n\n        // Handle Linked List Stuff\n\n        // Detach step\n        uint256 fromLinkPrev = bookCopy.prevLinkId;\n        uint256 fromLinkNext = bookCopy.nextLinkId;\n        if (fromLinkPrev == 0) {\n            // First book of the user\n            fromUser.firstLinkId = fromLinkNext;\n        } else {\n            idToCopy[fromLinkPrev].nextLinkId = fromLinkNext;\n        }\n        if (fromLinkNext == 0) {\n            fromUser.lastLinkId = fromLinkPrev;\n        }\n\n        // Attach step\n        uint256 toLastLink = toUser.lastLinkId;\n        bookCopy.prevLinkId = toLastLink;\n        bookCopy.nextLinkId = 0;\n        if (toLastLink == 0) {\n            toUser.firstLinkId = tokenId;\n        } else {\n            idToCopy[toLastLink].nextLinkId = tokenId;\n        }\n        toUser.lastLinkId = tokenId;\n\n        _safeTransfer(from, to, tokenId, \" \");\n    }\n\n    function getPrice(uint256 tbsn) public view returns (uint256) {\n        require(tbsnToBook[tbsn].exists, \"TBook does not exist\");\n        uint256 floor = 10;\n        uint256 step = 50;\n        uint256 copies = tbsnToBook[tbsn].numCopies;\n        uint256 power = copies / step;\n        return floor * (2**power); // returns in finneys\n    }\n\n    function collect(uint256 tbsn, address collector)\n        public\n        payable\n        returns (uint256)\n    {\n        // Check if tbsn exists\n        require(tbsnToBook[tbsn].exists, \"Book doesn't exist\");\n\n        uint256 priceWei = getPrice(tbsn) * (10**15); // convert to Wei\n        require(\n            msg.value >= priceWei,\n            \"Insufficient funds. Please check price.\"\n        );\n        uint256 authorPay = (priceWei * 80) / 100;\n        uint256 platformPay = priceWei - authorPay;\n        address payable author = tbsnToBook[tbsn].author;\n        mint(tbsn, collector);\n        author.transfer(authorPay);\n        payable(owner()).transfer(platformPay);\n        return addressToUser[collector].lastLinkId;\n    }\n\n    function publish(uint256 tbsn, address payable author) external {\n        // Use an oracle to check that this is a valid call with correct author (valid tbsn)\n        // TODO\n        TBookInfo storage book = tbsnToBook[tbsn];\n        require(!book.exists, \"Publication minted before.\");\n        // Only the Foundation can Publish\n        require(msg.sender == owner());\n        // Update BookInfo\n        tbsnToBook[tbsn].exists = true;\n        tbsnToBook[tbsn].author = author;\n        // Free mint for the author\n        mint(tbsn, author);\n    }\n\n    // ----------------------------\n    // Public Gets\n    // Can use this in order to iterate through an entire user's collection\n    function getCopyInfo(uint256 id) external view returns (CopyInfo memory) {\n        return idToCopy[id];\n    }\n\n    function getUserInfo(address userAddress)\n        public\n        view\n        returns (\n            bool,\n            uint256,\n            uint256,\n            uint256\n        )\n    {\n        UserInfo storage info = addressToUser[userAddress];\n        return (\n            info.exists,\n            info.collectionSize,\n            info.firstLinkId,\n            info.lastLinkId\n        );\n    }\n}\n",
  "sourcePath": "/Users/jayyu/Documents/OneDrive - Stanford/Work/Projects/TSalon/prototypes/tsalon-nft/contracts/TBookFactory.sol",
  "compiler": {
    "name": "solc",
    "version": "0.8.13+commit.abaa5c0e.Emscripten.clang"
  },
  "schemaVersion": "3.4.7",
  "updatedAt": "2022-07-13T19:39:27.208Z",
  "networkType": "ethereum",
  "devdoc": {
    "kind": "dev",
    "methods": {
      "approve(address,uint256)": {
        "details": "See {IERC721-approve}."
      },
      "balanceOf(address)": {
        "details": "See {IERC721-balanceOf}."
      },
      "getApproved(uint256)": {
        "details": "See {IERC721-getApproved}."
      },
      "isApprovedForAll(address,address)": {
        "details": "See {IERC721-isApprovedForAll}."
      },
      "name()": {
        "details": "See {IERC721Metadata-name}."
      },
      "owner()": {
        "details": "Returns the address of the current owner."
      },
      "ownerOf(uint256)": {
        "details": "See {IERC721-ownerOf}."
      },
      "renounceOwnership()": {
        "details": "Leaves the contract without owner. It will not be possible to call `onlyOwner` functions anymore. Can only be called by the current owner. NOTE: Renouncing ownership will leave the contract without an owner, thereby removing any functionality that is only available to the owner."
      },
      "safeTransferFrom(address,address,uint256)": {
        "details": "See {IERC721-safeTransferFrom}."
      },
      "safeTransferFrom(address,address,uint256,bytes)": {
        "details": "See {IERC721-safeTransferFrom}."
      },
      "setApprovalForAll(address,bool)": {
        "details": "See {IERC721-setApprovalForAll}."
      },
      "supportsInterface(bytes4)": {
        "details": "See {IERC165-supportsInterface}."
      },
      "symbol()": {
        "details": "See {IERC721Metadata-symbol}."
      },
      "tokenURI(uint256)": {
        "details": "See {IERC721Metadata-tokenURI}."
      },
      "transferFrom(address,address,uint256)": {
        "details": "See {IERC721-transferFrom}."
      },
      "transferOwnership(address)": {
        "details": "Transfers ownership of the contract to a new account (`newOwner`). Can only be called by the current owner."
      }
    },
    "version": 1
  },
  "userdoc": {
    "kind": "user",
    "methods": {
      "getId(uint256,uint256)": {
        "notice": "Gets the ID from the TBSN and the Copy Number Copy 1 of 75025 would be 75025000000001"
      }
    },
    "version": 1
  }
}