{
  "contractName": "TBookFactory",
  "abi": [
    {
      "inputs": [],
      "stateMutability": "nonpayable",
      "type": "constructor"
    },
    {
      "anonymous": false,
      "inputs": [
        {
          "indexed": true,
          "internalType": "address",
          "name": "owner",
          "type": "address"
        },
        {
          "indexed": true,
          "internalType": "address",
          "name": "approved",
          "type": "address"
        },
        {
          "indexed": true,
          "internalType": "uint256",
          "name": "tokenId",
          "type": "uint256"
        }
      ],
      "name": "Approval",
      "type": "event"
    },
    {
      "anonymous": false,
      "inputs": [
        {
          "indexed": true,
          "internalType": "address",
          "name": "owner",
          "type": "address"
        },
        {
          "indexed": true,
          "internalType": "address",
          "name": "operator",
          "type": "address"
        },
        {
          "indexed": false,
          "internalType": "bool",
          "name": "approved",
          "type": "bool"
        }
      ],
      "name": "ApprovalForAll",
      "type": "event"
    },
    {
      "anonymous": false,
      "inputs": [
        {
          "indexed": true,
          "internalType": "address",
          "name": "previousOwner",
          "type": "address"
        },
        {
          "indexed": true,
          "internalType": "address",
          "name": "newOwner",
          "type": "address"
        }
      ],
      "name": "OwnershipTransferred",
      "type": "event"
    },
    {
      "anonymous": false,
      "inputs": [
        {
          "indexed": true,
          "internalType": "address",
          "name": "from",
          "type": "address"
        },
        {
          "indexed": true,
          "internalType": "address",
          "name": "to",
          "type": "address"
        },
        {
          "indexed": true,
          "internalType": "uint256",
          "name": "tokenId",
          "type": "uint256"
        }
      ],
      "name": "Transfer",
      "type": "event"
    },
    {
      "inputs": [
        {
          "internalType": "address",
          "name": "to",
          "type": "address"
        },
        {
          "internalType": "uint256",
          "name": "tokenId",
          "type": "uint256"
        }
      ],
      "name": "approve",
      "outputs": [],
      "stateMutability": "nonpayable",
      "type": "function"
    },
    {
      "inputs": [
        {
          "internalType": "address",
          "name": "owner",
          "type": "address"
        }
      ],
      "name": "balanceOf",
      "outputs": [
        {
          "internalType": "uint256",
          "name": "",
          "type": "uint256"
        }
      ],
      "stateMutability": "view",
      "type": "function",
      "constant": true
    },
    {
      "inputs": [
        {
          "internalType": "uint256",
          "name": "tokenId",
          "type": "uint256"
        }
      ],
      "name": "getApproved",
      "outputs": [
        {
          "internalType": "address",
          "name": "",
          "type": "address"
        }
      ],
      "stateMutability": "view",
      "type": "function",
      "constant": true
    },
    {
      "inputs": [
        {
          "internalType": "address",
          "name": "owner",
          "type": "address"
        },
        {
          "internalType": "address",
          "name": "operator",
          "type": "address"
        }
      ],
      "name": "isApprovedForAll",
      "outputs": [
        {
          "internalType": "bool",
          "name": "",
          "type": "bool"
        }
      ],
      "stateMutability": "view",
      "type": "function",
      "constant": true
    },
    {
      "inputs": [],
      "name": "name",
      "outputs": [
        {
          "internalType": "string",
          "name": "",
          "type": "string"
        }
      ],
      "stateMutability": "view",
      "type": "function",
      "constant": true
    },
    {
      "inputs": [],
      "name": "owner",
      "outputs": [
        {
          "internalType": "address",
          "name": "",
          "type": "address"
        }
      ],
      "stateMutability": "view",
      "type": "function",
      "constant": true
    },
    {
      "inputs": [
        {
          "internalType": "uint256",
          "name": "tokenId",
          "type": "uint256"
        }
      ],
      "name": "ownerOf",
      "outputs": [
        {
          "internalType": "address",
          "name": "",
          "type": "address"
        }
      ],
      "stateMutability": "view",
      "type": "function",
      "constant": true
    },
    {
      "inputs": [],
      "name": "renounceOwnership",
      "outputs": [],
      "stateMutability": "nonpayable",
      "type": "function"
    },
    {
      "inputs": [
        {
          "internalType": "address",
          "name": "operator",
          "type": "address"
        },
        {
          "internalType": "bool",
          "name": "approved",
          "type": "bool"
        }
      ],
      "name": "setApprovalForAll",
      "outputs": [],
      "stateMutability": "nonpayable",
      "type": "function"
    },
    {
      "inputs": [
        {
          "internalType": "bytes4",
          "name": "interfaceId",
          "type": "bytes4"
        }
      ],
      "name": "supportsInterface",
      "outputs": [
        {
          "internalType": "bool",
          "name": "",
          "type": "bool"
        }
      ],
      "stateMutability": "view",
      "type": "function",
      "constant": true
    },
    {
      "inputs": [],
      "name": "symbol",
      "outputs": [
        {
          "internalType": "string",
          "name": "",
          "type": "string"
        }
      ],
      "stateMutability": "view",
      "type": "function",
      "constant": true
    },
    {
      "inputs": [
        {
          "internalType": "uint256",
          "name": "tokenId",
          "type": "uint256"
        }
      ],
      "name": "tokenURI",
      "outputs": [
        {
          "internalType": "string",
          "name": "",
          "type": "string"
        }
      ],
      "stateMutability": "view",
      "type": "function",
      "constant": true
    },
    {
      "inputs": [
        {
          "internalType": "address",
          "name": "from",
          "type": "address"
        },
        {
          "internalType": "address",
          "name": "to",
          "type": "address"
        },
        {
          "internalType": "uint256",
          "name": "tokenId",
          "type": "uint256"
        }
      ],
      "name": "transferFrom",
      "outputs": [],
      "stateMutability": "nonpayable",
      "type": "function"
    },
    {
      "inputs": [
        {
          "internalType": "address",
          "name": "newOwner",
          "type": "address"
        }
      ],
      "name": "transferOwnership",
      "outputs": [],
      "stateMutability": "nonpayable",
      "type": "function"
    },
    {
      "inputs": [
        {
          "internalType": "uint256",
          "name": "tokenId",
          "type": "uint256"
        }
      ],
      "name": "getOwnerOf",
      "outputs": [
        {
          "internalType": "address",
          "name": "",
          "type": "address"
        }
      ],
      "stateMutability": "view",
      "type": "function",
      "constant": true
    },
    {
      "inputs": [
        {
          "internalType": "uint256",
          "name": "tbsn",
          "type": "uint256"
        },
        {
          "internalType": "uint256",
          "name": "copyNumber",
          "type": "uint256"
        }
      ],
      "name": "getId",
      "outputs": [
        {
          "internalType": "uint256",
          "name": "",
          "type": "uint256"
        }
      ],
      "stateMutability": "view",
      "type": "function",
      "constant": true
    },
    {
      "inputs": [
        {
          "internalType": "uint256",
          "name": "id",
          "type": "uint256"
        }
      ],
      "name": "tbsnFromId",
      "outputs": [
        {
          "internalType": "uint256",
          "name": "",
          "type": "uint256"
        }
      ],
      "stateMutability": "view",
      "type": "function",
      "constant": true
    },
    {
      "inputs": [
        {
          "internalType": "uint256",
          "name": "id",
          "type": "uint256"
        }
      ],
      "name": "copyNumberFromId",
      "outputs": [
        {
          "internalType": "uint256",
          "name": "",
          "type": "uint256"
        }
      ],
      "stateMutability": "view",
      "type": "function",
      "constant": true
    },
    {
      "inputs": [
        {
          "internalType": "uint256",
          "name": "tbsn",
          "type": "uint256"
        },
        {
          "internalType": "address",
          "name": "mintAddress",
          "type": "address"
        }
      ],
      "name": "mint",
      "outputs": [],
      "stateMutability": "nonpayable",
      "type": "function"
    },
    {
      "inputs": [
        {
          "internalType": "address",
          "name": "from",
          "type": "address"
        },
        {
          "internalType": "address",
          "name": "to",
          "type": "address"
        },
        {
          "internalType": "uint256",
          "name": "tokenId",
          "type": "uint256"
        }
      ],
      "name": "safeTransferFrom",
      "outputs": [],
      "stateMutability": "nonpayable",
      "type": "function"
    },
    {
      "inputs": [
        {
          "internalType": "address",
          "name": "from",
          "type": "address"
        },
        {
          "internalType": "address",
          "name": "to",
          "type": "address"
        },
        {
          "internalType": "uint256",
          "name": "tokenId",
          "type": "uint256"
        },
        {
          "internalType": "bytes",
          "name": "_data",
          "type": "bytes"
        }
      ],
      "name": "safeTransferFrom",
      "outputs": [],
      "stateMutability": "nonpayable",
      "type": "function"
    },
    {
      "inputs": [
        {
          "internalType": "uint256",
          "name": "tbsn",
          "type": "uint256"
        },
        {
          "internalType": "address payable",
          "name": "author",
          "type": "address"
        }
      ],
      "name": "publish",
      "outputs": [
        {
          "internalType": "uint256",
          "name": "",
          "type": "uint256"
        }
      ],
      "stateMutability": "nonpayable",
      "type": "function"
    },
    {
      "inputs": [
        {
          "internalType": "uint256",
          "name": "tbsn",
          "type": "uint256"
        },
        {
          "internalType": "uint256",
          "name": "id",
          "type": "uint256"
        }
      ],
      "name": "getCopyInfo",
      "outputs": [
        {
          "components": [
            {
              "internalType": "bool",
              "name": "exists",
              "type": "bool"
            },
            {
              "internalType": "uint256",
              "name": "tbsn",
              "type": "uint256"
            },
            {
              "internalType": "uint256",
              "name": "copyNumber",
              "type": "uint256"
            },
            {
              "internalType": "uint256",
              "name": "numTransactions",
              "type": "uint256"
            },
            {
              "internalType": "uint256",
              "name": "nextLinkId",
              "type": "uint256"
            },
            {
              "internalType": "uint256",
              "name": "prevLinkId",
              "type": "uint256"
            },
            {
              "internalType": "address",
              "name": "initHolder",
              "type": "address"
            },
            {
              "internalType": "address",
              "name": "currentHolder",
              "type": "address"
            },
            {
              "internalType": "address",
              "name": "lastHolder",
              "type": "address"
            }
          ],
          "internalType": "struct TBookFactory.CopyInfo",
          "name": "",
          "type": "tuple"
        }
      ],
      "stateMutability": "view",
      "type": "function",
      "constant": true
    },
    {
      "inputs": [],
      "name": "returnTrue",
      "outputs": [
        {
          "internalType": "bool",
          "name": "",
          "type": "bool"
        }
      ],
      "stateMutability": "pure",
      "type": "function",
      "constant": true
    },
    {
      "inputs": [
        {
          "internalType": "address",
          "name": "userAddress",
          "type": "address"
        }
      ],
      "name": "getUserInfo",
      "outputs": [
        {
          "internalType": "bool",
          "name": "",
          "type": "bool"
        },
        {
          "internalType": "uint256",
          "name": "",
          "type": "uint256"
        },
        {
          "internalType": "uint256",
          "name": "",
          "type": "uint256"
        },
        {
          "internalType": "uint256",
          "name": "",
          "type": "uint256"
        }
      ],
      "stateMutability": "view",
      "type": "function",
      "constant": true
    }
  ],
  "bytecode": "0x60806040523480156200001157600080fd5b506040518060400160405280600581526020017f54426f6f6b0000000000000000000000000000000000000000000000000000008152506040518060400160405280600381526020017f54424b00000000000000000000000000000000000000000000000000000000008152506200009e62000092620000e360201b60201c565b620000eb60201b60201c565b8160019080519060200190620000b6929190620001af565b508060029080519060200190620000cf929190620001af565b505050633b9aca00600c81905550620002c3565b600033905090565b60008060009054906101000a900473ffffffffffffffffffffffffffffffffffffffff169050816000806101000a81548173ffffffffffffffffffffffffffffffffffffffff021916908373ffffffffffffffffffffffffffffffffffffffff1602179055508173ffffffffffffffffffffffffffffffffffffffff168173ffffffffffffffffffffffffffffffffffffffff167f8be0079c531659141344cd1fd0a4f28419497f9722a3daafe3b4186f6b6457e060405160405180910390a35050565b828054620001bd906200028e565b90600052602060002090601f016020900481019282620001e157600085556200022d565b82601f10620001fc57805160ff19168380011785556200022d565b828001600101855582156200022d579182015b828111156200022c5782518255916020019190600101906200020f565b5b5090506200023c919062000240565b5090565b5b808211156200025b57600081600090555060010162000241565b5090565b7f4e487b7100000000000000000000000000000000000000000000000000000000600052602260045260246000fd5b60006002820490506001821680620002a757607f821691505b602082108103620002bd57620002bc6200025f565b5b50919050565b613d0280620002d36000396000f3fe608060405234801561001057600080fd5b50600436106101735760003560e01c806383638710116100de5780639a4b0f2b11610097578063c87b56dd11610071578063c87b56dd14610497578063e985e9c5146104c7578063f2fde38b146104f7578063f613a6871461051357610173565b80639a4b0f2b1461042f578063a22cb4651461045f578063b88d4fde1461047b57610173565b806383638710146103475780638a0dbe7a146103775780638da5cb5b146103a75780638f8d2fac146103c557806394bf804d146103f557806395d89b411461041157610173565b806342842e0e1161013057806342842e0e1461025e5780636352211e1461027a5780636386c1c7146102aa5780636847e309146102dd57806370a082311461030d578063715018a61461033d57610173565b806301ffc9a71461017857806306fdde03146101a8578063081812fc146101c6578063095ea7b3146101f657806323b872dd1461021257806324fc65ed1461022e575b600080fd5b610192600480360381019061018d91906128ec565b610531565b60405161019f9190612934565b60405180910390f35b6101b0610613565b6040516101bd91906129e8565b60405180910390f35b6101e060048036038101906101db9190612a40565b6106a5565b6040516101ed9190612aae565b60405180910390f35b610210600480360381019061020b9190612af5565b61072a565b005b61022c60048036038101906102279190612b35565b610841565b005b61024860048036038101906102439190612b88565b6108a1565b6040516102559190612bd7565b60405180910390f35b61027860048036038101906102739190612b35565b6108cc565b005b610294600480360381019061028f9190612a40565b610d15565b6040516102a19190612aae565b60405180910390f35b6102c460048036038101906102bf9190612bf2565b610dc6565b6040516102d49493929190612c1f565b60405180910390f35b6102f760048036038101906102f29190612a40565b610e50565b6040516103049190612bd7565b60405180910390f35b61032760048036038101906103229190612bf2565b610e67565b6040516103349190612bd7565b60405180910390f35b610345610f1e565b005b610361600480360381019061035c9190612a40565b610fa6565b60405161036e9190612aae565b60405180910390f35b610391600480360381019061038c9190612ca2565b610fe6565b60405161039e9190612bd7565b60405180910390f35b6103af611081565b6040516103bc9190612aae565b60405180910390f35b6103df60048036038101906103da9190612b88565b6110aa565b6040516103ec9190612dc6565b60405180910390f35b61040f600480360381019061040a9190612de2565b611237565b005b6104196117b0565b60405161042691906129e8565b60405180910390f35b61044960048036038101906104449190612a40565b611842565b6040516104569190612bd7565b60405180910390f35b61047960048036038101906104749190612e4e565b611859565b005b61049560048036038101906104909190612fc3565b61186f565b005b6104b160048036038101906104ac9190612a40565b6118d1565b6040516104be91906129e8565b60405180910390f35b6104e160048036038101906104dc9190613046565b611978565b6040516104ee9190612934565b60405180910390f35b610511600480360381019061050c9190612bf2565b611a0c565b005b61051b611b03565b6040516105289190612934565b60405180910390f35b60007f80ac58cd000000000000000000000000000000000000000000000000000000007bffffffffffffffffffffffffffffffffffffffffffffffffffffffff1916827bffffffffffffffffffffffffffffffffffffffffffffffffffffffff191614806105fc57507f5b5e139f000000000000000000000000000000000000000000000000000000007bffffffffffffffffffffffffffffffffffffffffffffffffffffffff1916827bffffffffffffffffffffffffffffffffffffffffffffffffffffffff1916145b8061060c575061060b82611b0c565b5b9050919050565b606060018054610622906130b5565b80601f016020809104026020016040519081016040528092919081815260200182805461064e906130b5565b801561069b5780601f106106705761010080835404028352916020019161069b565b820191906000526020600020905b81548152906001019060200180831161067e57829003601f168201915b5050505050905090565b60006106b082611b76565b6106ef576040517f08c379a00000000000000000000000000000000000000000000000000000000081526004016106e690613158565b60405180910390fd5b6005600083815260200190815260200160002060009054906101000a900473ffffffffffffffffffffffffffffffffffffffff169050919050565b600061073582610d15565b90508073ffffffffffffffffffffffffffffffffffffffff168373ffffffffffffffffffffffffffffffffffffffff16036107a5576040517f08c379a000000000000000000000000000000000000000000000000000000000815260040161079c906131ea565b60405180910390fd5b8073ffffffffffffffffffffffffffffffffffffffff166107c4611be2565b73ffffffffffffffffffffffffffffffffffffffff1614806107f357506107f2816107ed611be2565b611978565b5b610832576040517f08c379a00000000000000000000000000000000000000000000000000000000081526004016108299061327c565b60405180910390fd5b61083c8383611bea565b505050565b61085261084c611be2565b82611ca3565b610891576040517f08c379a00000000000000000000000000000000000000000000000000000000081526004016108889061330e565b60405180910390fd5b61089c838383611d81565b505050565b600080600c54846108b2919061335d565b905082816108c091906133b7565b90508091505092915050565b60006108d782611842565b90506000600a600083815260200190815260200160002060050160008673ffffffffffffffffffffffffffffffffffffffff1673ffffffffffffffffffffffffffffffffffffffff1681526020019081526020016000205411801561098f57506000600860008673ffffffffffffffffffffffffffffffffffffffff1673ffffffffffffffffffffffffffffffffffffffff168152602001908152602001600020600201600083815260200190815260200160002054115b61099857600080fd5b836009600084815260200190815260200160002060080160006101000a81548173ffffffffffffffffffffffffffffffffffffffff021916908373ffffffffffffffffffffffffffffffffffffffff160217905550826009600084815260200190815260200160002060070160006101000a81548173ffffffffffffffffffffffffffffffffffffffff021916908373ffffffffffffffffffffffffffffffffffffffff1602179055506001600960008481526020019081526020016000206003016000828254610a6991906133b7565b925050819055506001600a600083815260200190815260200160002060050160008673ffffffffffffffffffffffffffffffffffffffff1673ffffffffffffffffffffffffffffffffffffffff1681526020019081526020016000206000828254610ad4919061340d565b925050819055506001600a600083815260200190815260200160002060050160008573ffffffffffffffffffffffffffffffffffffffff1673ffffffffffffffffffffffffffffffffffffffff1681526020019081526020016000206000828254610b3f91906133b7565b925050819055506001600860008673ffffffffffffffffffffffffffffffffffffffff1673ffffffffffffffffffffffffffffffffffffffff16815260200190815260200160002060020160008381526020019081526020016000206000828254610baa919061340d565b925050819055506001600860008673ffffffffffffffffffffffffffffffffffffffff1673ffffffffffffffffffffffffffffffffffffffff1681526020019081526020016000206001016000828254610c04919061340d565b92505081905550600860008473ffffffffffffffffffffffffffffffffffffffff1673ffffffffffffffffffffffffffffffffffffffff16815260200190815260200160002060020160008281526020019081526020016000206000815480929190610c6f90613441565b91905055506001600860008573ffffffffffffffffffffffffffffffffffffffff1673ffffffffffffffffffffffffffffffffffffffff1681526020019081526020016000206001016000828254610cc791906133b7565b92505081905550610d0f8484846040518060400160405280600181526020017f2000000000000000000000000000000000000000000000000000000000000000815250611fe7565b50505050565b6000806003600084815260200190815260200160002060009054906101000a900473ffffffffffffffffffffffffffffffffffffffff169050600073ffffffffffffffffffffffffffffffffffffffff168173ffffffffffffffffffffffffffffffffffffffff1603610dbd576040517f08c379a0000000000000000000000000000000000000000000000000000000008152600401610db4906134fb565b60405180910390fd5b80915050919050565b6000806000806000600860008773ffffffffffffffffffffffffffffffffffffffff1673ffffffffffffffffffffffffffffffffffffffff16815260200190815260200160002090508060000160009054906101000a900460ff168160010154610e338360030154611842565b610e408460030154610e50565b9450945094509450509193509193565b6000600c5482610e60919061354a565b9050919050565b60008073ffffffffffffffffffffffffffffffffffffffff168273ffffffffffffffffffffffffffffffffffffffff1603610ed7576040517f08c379a0000000000000000000000000000000000000000000000000000000008152600401610ece906135ed565b60405180910390fd5b600460008373ffffffffffffffffffffffffffffffffffffffff1673ffffffffffffffffffffffffffffffffffffffff168152602001908152602001600020549050919050565b610f26611be2565b73ffffffffffffffffffffffffffffffffffffffff16610f44611081565b73ffffffffffffffffffffffffffffffffffffffff1614610f9a576040517f08c379a0000000000000000000000000000000000000000000000000000000008152600401610f9190613659565b60405180910390fd5b610fa46000612043565b565b60006009600083815260200190815260200160002060070160009054906101000a900473ffffffffffffffffffffffffffffffffffffffff169050919050565b60006001600a600085815260200190815260200160002060000160006101000a81548160ff02191690831515021790555081600a600085815260200190815260200160002060040160006101000a81548173ffffffffffffffffffffffffffffffffffffffff021916908373ffffffffffffffffffffffffffffffffffffffff1602179055506110768383611237565b610568905092915050565b60008060009054906101000a900473ffffffffffffffffffffffffffffffffffffffff16905090565b6110b26127f0565b60006110be84846108a1565b905060096000828152602001908152602001600020604051806101200160405290816000820160009054906101000a900460ff1615151515815260200160018201548152602001600282015481526020016003820154815260200160048201548152602001600582015481526020016006820160009054906101000a900473ffffffffffffffffffffffffffffffffffffffff1673ffffffffffffffffffffffffffffffffffffffff1673ffffffffffffffffffffffffffffffffffffffff1681526020016007820160009054906101000a900473ffffffffffffffffffffffffffffffffffffffff1673ffffffffffffffffffffffffffffffffffffffff1673ffffffffffffffffffffffffffffffffffffffff1681526020016008820160009054906101000a900473ffffffffffffffffffffffffffffffffffffffff1673ffffffffffffffffffffffffffffffffffffffff1673ffffffffffffffffffffffffffffffffffffffff168152505091505092915050565b600a600083815260200190815260200160002060000160009054906101000a900460ff1661126457600080fd5b6000600a6000848152602001908152602001600020600201549050600061128b84836108a1565b905060016009600083815260200190815260200160002060000160006101000a81548160ff021916908315150217905550836009600083815260200190815260200160002060010181905550816009600083815260200190815260200160002060020181905550826009600083815260200190815260200160002060060160006101000a81548173ffffffffffffffffffffffffffffffffffffffff021916908373ffffffffffffffffffffffffffffffffffffffff160217905550826009600083815260200190815260200160002060070160006101000a81548173ffffffffffffffffffffffffffffffffffffffff021916908373ffffffffffffffffffffffffffffffffffffffff160217905550600860008473ffffffffffffffffffffffffffffffffffffffff1673ffffffffffffffffffffffffffffffffffffffff16815260200190815260200160002060000160009054906101000a900460ff16611514576001600860008573ffffffffffffffffffffffffffffffffffffffff1673ffffffffffffffffffffffffffffffffffffffff16815260200190815260200160002060000160006101000a81548160ff02191690831515021790555082600860008573ffffffffffffffffffffffffffffffffffffffff1673ffffffffffffffffffffffffffffffffffffffff16815260200190815260200160002060000160016101000a81548173ffffffffffffffffffffffffffffffffffffffff021916908373ffffffffffffffffffffffffffffffffffffffff16021790555080600860008573ffffffffffffffffffffffffffffffffffffffff1673ffffffffffffffffffffffffffffffffffffffff168152602001908152602001600020600301819055505b600860008473ffffffffffffffffffffffffffffffffffffffff1673ffffffffffffffffffffffffffffffffffffffff1681526020019081526020016000206002016000858152602001908152602001600020600081548092919061157890613441565b9190505550600860008473ffffffffffffffffffffffffffffffffffffffff1673ffffffffffffffffffffffffffffffffffffffff16815260200190815260200160002060010160008154809291906115d090613441565b9190505550600080600860008673ffffffffffffffffffffffffffffffffffffffff1673ffffffffffffffffffffffffffffffffffffffff168152602001908152602001600020600401541415905080156116a8576000600860008673ffffffffffffffffffffffffffffffffffffffff1673ffffffffffffffffffffffffffffffffffffffff168152602001908152602001600020600401549050826009600083815260200190815260200160002060040181905550806009600085815260200190815260200160002060050181905550506116f0565b81600860008673ffffffffffffffffffffffffffffffffffffffff1673ffffffffffffffffffffffffffffffffffffffff168152602001908152602001600020600401819055505b600a6000868152602001908152602001600020600201600081548092919061171790613441565b9190505550600a600086815260200190815260200160002060050160008573ffffffffffffffffffffffffffffffffffffffff1673ffffffffffffffffffffffffffffffffffffffff168152602001908152602001600020600081548092919061178090613441565b91905055506001600b600082825461179891906133b7565b925050819055506117a93383612107565b5050505050565b6060600280546117bf906130b5565b80601f01602080910402602001604051908101604052809291908181526020018280546117eb906130b5565b80156118385780601f1061180d57610100808354040283529160200191611838565b820191906000526020600020905b81548152906001019060200180831161181b57829003601f168201915b5050505050905090565b6000600c54826118529190613679565b9050919050565b61186b611864611be2565b8383612125565b5050565b61188061187a611be2565b83611ca3565b6118bf576040517f08c379a00000000000000000000000000000000000000000000000000000000081526004016118b69061330e565b60405180910390fd5b6118cb84848484611fe7565b50505050565b60606118dc82611b76565b61191b576040517f08c379a00000000000000000000000000000000000000000000000000000000081526004016119129061371c565b60405180910390fd5b6000611925612291565b905060008151116119455760405180602001604052806000815250611970565b8061194f846122a8565b604051602001611960929190613778565b6040516020818303038152906040525b915050919050565b6000600660008473ffffffffffffffffffffffffffffffffffffffff1673ffffffffffffffffffffffffffffffffffffffff16815260200190815260200160002060008373ffffffffffffffffffffffffffffffffffffffff1673ffffffffffffffffffffffffffffffffffffffff16815260200190815260200160002060009054906101000a900460ff16905092915050565b611a14611be2565b73ffffffffffffffffffffffffffffffffffffffff16611a32611081565b73ffffffffffffffffffffffffffffffffffffffff1614611a88576040517f08c379a0000000000000000000000000000000000000000000000000000000008152600401611a7f90613659565b60405180910390fd5b600073ffffffffffffffffffffffffffffffffffffffff168173ffffffffffffffffffffffffffffffffffffffff1603611af7576040517f08c379a0000000000000000000000000000000000000000000000000000000008152600401611aee9061380e565b60405180910390fd5b611b0081612043565b50565b60006001905090565b60007f01ffc9a7000000000000000000000000000000000000000000000000000000007bffffffffffffffffffffffffffffffffffffffffffffffffffffffff1916827bffffffffffffffffffffffffffffffffffffffffffffffffffffffff1916149050919050565b60008073ffffffffffffffffffffffffffffffffffffffff166003600084815260200190815260200160002060009054906101000a900473ffffffffffffffffffffffffffffffffffffffff1673ffffffffffffffffffffffffffffffffffffffff1614159050919050565b600033905090565b816005600083815260200190815260200160002060006101000a81548173ffffffffffffffffffffffffffffffffffffffff021916908373ffffffffffffffffffffffffffffffffffffffff160217905550808273ffffffffffffffffffffffffffffffffffffffff16611c5d83610d15565b73ffffffffffffffffffffffffffffffffffffffff167f8c5be1e5ebec7d5bd14f71427d1e84f3dd0314c0f7b2291e5b200ac8c7c3b92560405160405180910390a45050565b6000611cae82611b76565b611ced576040517f08c379a0000000000000000000000000000000000000000000000000000000008152600401611ce4906138a0565b60405180910390fd5b6000611cf883610d15565b90508073ffffffffffffffffffffffffffffffffffffffff168473ffffffffffffffffffffffffffffffffffffffff161480611d3a5750611d398185611978565b5b80611d7857508373ffffffffffffffffffffffffffffffffffffffff16611d60846106a5565b73ffffffffffffffffffffffffffffffffffffffff16145b91505092915050565b8273ffffffffffffffffffffffffffffffffffffffff16611da182610d15565b73ffffffffffffffffffffffffffffffffffffffff1614611df7576040517f08c379a0000000000000000000000000000000000000000000000000000000008152600401611dee90613932565b60405180910390fd5b600073ffffffffffffffffffffffffffffffffffffffff168273ffffffffffffffffffffffffffffffffffffffff1603611e66576040517f08c379a0000000000000000000000000000000000000000000000000000000008152600401611e5d906139c4565b60405180910390fd5b611e71838383612408565b611e7c600082611bea565b6001600460008573ffffffffffffffffffffffffffffffffffffffff1673ffffffffffffffffffffffffffffffffffffffff1681526020019081526020016000206000828254611ecc919061340d565b925050819055506001600460008473ffffffffffffffffffffffffffffffffffffffff1673ffffffffffffffffffffffffffffffffffffffff1681526020019081526020016000206000828254611f2391906133b7565b92505081905550816003600083815260200190815260200160002060006101000a81548173ffffffffffffffffffffffffffffffffffffffff021916908373ffffffffffffffffffffffffffffffffffffffff160217905550808273ffffffffffffffffffffffffffffffffffffffff168473ffffffffffffffffffffffffffffffffffffffff167fddf252ad1be2c89b69c2b068fc378daa952ba7f163c4a11628f55a4df523b3ef60405160405180910390a4611fe283838361240d565b505050565b611ff2848484611d81565b611ffe84848484612412565b61203d576040517f08c379a000000000000000000000000000000000000000000000000000000000815260040161203490613a56565b60405180910390fd5b50505050565b60008060009054906101000a900473ffffffffffffffffffffffffffffffffffffffff169050816000806101000a81548173ffffffffffffffffffffffffffffffffffffffff021916908373ffffffffffffffffffffffffffffffffffffffff1602179055508173ffffffffffffffffffffffffffffffffffffffff168173ffffffffffffffffffffffffffffffffffffffff167f8be0079c531659141344cd1fd0a4f28419497f9722a3daafe3b4186f6b6457e060405160405180910390a35050565b612121828260405180602001604052806000815250612599565b5050565b8173ffffffffffffffffffffffffffffffffffffffff168373ffffffffffffffffffffffffffffffffffffffff1603612193576040517f08c379a000000000000000000000000000000000000000000000000000000000815260040161218a90613ac2565b60405180910390fd5b80600660008573ffffffffffffffffffffffffffffffffffffffff1673ffffffffffffffffffffffffffffffffffffffff16815260200190815260200160002060008473ffffffffffffffffffffffffffffffffffffffff1673ffffffffffffffffffffffffffffffffffffffff16815260200190815260200160002060006101000a81548160ff0219169083151502179055508173ffffffffffffffffffffffffffffffffffffffff168373ffffffffffffffffffffffffffffffffffffffff167f17307eab39ab6107e8899845ad3d59bd9653f200f220920489ca2b5937696c31836040516122849190612934565b60405180910390a3505050565b606060405180602001604052806000815250905090565b6060600082036122ef576040518060400160405280600181526020017f30000000000000000000000000000000000000000000000000000000000000008152509050612403565b600082905060005b6000821461232157808061230a90613441565b915050600a8261231a9190613679565b91506122f7565b60008167ffffffffffffffff81111561233d5761233c612e98565b5b6040519080825280601f01601f19166020018201604052801561236f5781602001600182028036833780820191505090505b5090505b600085146123fc57600182612388919061340d565b9150600a85612397919061354a565b60306123a391906133b7565b60f81b8183815181106123b9576123b8613ae2565b5b60200101907effffffffffffffffffffffffffffffffffffffffffffffffffffffffffffff1916908160001a905350600a856123f59190613679565b9450612373565b8093505050505b919050565b505050565b505050565b60006124338473ffffffffffffffffffffffffffffffffffffffff166125f4565b1561258c578373ffffffffffffffffffffffffffffffffffffffff1663150b7a0261245c611be2565b8786866040518563ffffffff1660e01b815260040161247e9493929190613b66565b6020604051808303816000875af19250505080156124ba57506040513d601f19601f820116820180604052508101906124b79190613bc7565b60015b61253c573d80600081146124ea576040519150601f19603f3d011682016040523d82523d6000602084013e6124ef565b606091505b506000815103612534576040517f08c379a000000000000000000000000000000000000000000000000000000000815260040161252b90613a56565b60405180910390fd5b805181602001fd5b63150b7a0260e01b7bffffffffffffffffffffffffffffffffffffffffffffffffffffffff1916817bffffffffffffffffffffffffffffffffffffffffffffffffffffffff191614915050612591565b600190505b949350505050565b6125a38383612617565b6125b06000848484612412565b6125ef576040517f08c379a00000000000000000000000000000000000000000000000000000000081526004016125e690613a56565b60405180910390fd5b505050565b6000808273ffffffffffffffffffffffffffffffffffffffff163b119050919050565b600073ffffffffffffffffffffffffffffffffffffffff168273ffffffffffffffffffffffffffffffffffffffff1603612686576040517f08c379a000000000000000000000000000000000000000000000000000000000815260040161267d90613c40565b60405180910390fd5b61268f81611b76565b156126cf576040517f08c379a00000000000000000000000000000000000000000000000000000000081526004016126c690613cac565b60405180910390fd5b6126db60008383612408565b6001600460008473ffffffffffffffffffffffffffffffffffffffff1673ffffffffffffffffffffffffffffffffffffffff168152602001908152602001600020600082825461272b91906133b7565b92505081905550816003600083815260200190815260200160002060006101000a81548173ffffffffffffffffffffffffffffffffffffffff021916908373ffffffffffffffffffffffffffffffffffffffff160217905550808273ffffffffffffffffffffffffffffffffffffffff16600073ffffffffffffffffffffffffffffffffffffffff167fddf252ad1be2c89b69c2b068fc378daa952ba7f163c4a11628f55a4df523b3ef60405160405180910390a46127ec6000838361240d565b5050565b6040518061012001604052806000151581526020016000815260200160008152602001600081526020016000815260200160008152602001600073ffffffffffffffffffffffffffffffffffffffff168152602001600073ffffffffffffffffffffffffffffffffffffffff168152602001600073ffffffffffffffffffffffffffffffffffffffff1681525090565b6000604051905090565b600080fd5b600080fd5b60007fffffffff0000000000000000000000000000000000000000000000000000000082169050919050565b6128c981612894565b81146128d457600080fd5b50565b6000813590506128e6816128c0565b92915050565b6000602082840312156129025761290161288a565b5b6000612910848285016128d7565b91505092915050565b60008115159050919050565b61292e81612919565b82525050565b60006020820190506129496000830184612925565b92915050565b600081519050919050565b600082825260208201905092915050565b60005b8381101561298957808201518184015260208101905061296e565b83811115612998576000848401525b50505050565b6000601f19601f8301169050919050565b60006129ba8261294f565b6129c4818561295a565b93506129d481856020860161296b565b6129dd8161299e565b840191505092915050565b60006020820190508181036000830152612a0281846129af565b905092915050565b6000819050919050565b612a1d81612a0a565b8114612a2857600080fd5b50565b600081359050612a3a81612a14565b92915050565b600060208284031215612a5657612a5561288a565b5b6000612a6484828501612a2b565b91505092915050565b600073ffffffffffffffffffffffffffffffffffffffff82169050919050565b6000612a9882612a6d565b9050919050565b612aa881612a8d565b82525050565b6000602082019050612ac36000830184612a9f565b92915050565b612ad281612a8d565b8114612add57600080fd5b50565b600081359050612aef81612ac9565b92915050565b60008060408385031215612b0c57612b0b61288a565b5b6000612b1a85828601612ae0565b9250506020612b2b85828601612a2b565b9150509250929050565b600080600060608486031215612b4e57612b4d61288a565b5b6000612b5c86828701612ae0565b9350506020612b6d86828701612ae0565b9250506040612b7e86828701612a2b565b9150509250925092565b60008060408385031215612b9f57612b9e61288a565b5b6000612bad85828601612a2b565b9250506020612bbe85828601612a2b565b9150509250929050565b612bd181612a0a565b82525050565b6000602082019050612bec6000830184612bc8565b92915050565b600060208284031215612c0857612c0761288a565b5b6000612c1684828501612ae0565b91505092915050565b6000608082019050612c346000830187612925565b612c416020830186612bc8565b612c4e6040830185612bc8565b612c5b6060830184612bc8565b95945050505050565b6000612c6f82612a6d565b9050919050565b612c7f81612c64565b8114612c8a57600080fd5b50565b600081359050612c9c81612c76565b92915050565b60008060408385031215612cb957612cb861288a565b5b6000612cc785828601612a2b565b9250506020612cd885828601612c8d565b9150509250929050565b612ceb81612919565b82525050565b612cfa81612a0a565b82525050565b612d0981612a8d565b82525050565b61012082016000820151612d266000850182612ce2565b506020820151612d396020850182612cf1565b506040820151612d4c6040850182612cf1565b506060820151612d5f6060850182612cf1565b506080820151612d726080850182612cf1565b5060a0820151612d8560a0850182612cf1565b5060c0820151612d9860c0850182612d00565b5060e0820151612dab60e0850182612d00565b50610100820151612dc0610100850182612d00565b50505050565b600061012082019050612ddc6000830184612d0f565b92915050565b60008060408385031215612df957612df861288a565b5b6000612e0785828601612a2b565b9250506020612e1885828601612ae0565b9150509250929050565b612e2b81612919565b8114612e3657600080fd5b50565b600081359050612e4881612e22565b92915050565b60008060408385031215612e6557612e6461288a565b5b6000612e7385828601612ae0565b9250506020612e8485828601612e39565b9150509250929050565b600080fd5b600080fd5b7f4e487b7100000000000000000000000000000000000000000000000000000000600052604160045260246000fd5b612ed08261299e565b810181811067ffffffffffffffff82111715612eef57612eee612e98565b5b80604052505050565b6000612f02612880565b9050612f0e8282612ec7565b919050565b600067ffffffffffffffff821115612f2e57612f2d612e98565b5b612f378261299e565b9050602081019050919050565b82818337600083830152505050565b6000612f66612f6184612f13565b612ef8565b905082815260208101848484011115612f8257612f81612e93565b5b612f8d848285612f44565b509392505050565b600082601f830112612faa57612fa9612e8e565b5b8135612fba848260208601612f53565b91505092915050565b60008060008060808587031215612fdd57612fdc61288a565b5b6000612feb87828801612ae0565b9450506020612ffc87828801612ae0565b935050604061300d87828801612a2b565b925050606085013567ffffffffffffffff81111561302e5761302d61288f565b5b61303a87828801612f95565b91505092959194509250565b6000806040838503121561305d5761305c61288a565b5b600061306b85828601612ae0565b925050602061307c85828601612ae0565b9150509250929050565b7f4e487b7100000000000000000000000000000000000000000000000000000000600052602260045260246000fd5b600060028204905060018216806130cd57607f821691505b6020821081036130e0576130df613086565b5b50919050565b7f4552433732313a20617070726f76656420717565727920666f72206e6f6e657860008201527f697374656e7420746f6b656e0000000000000000000000000000000000000000602082015250565b6000613142602c8361295a565b915061314d826130e6565b604082019050919050565b6000602082019050818103600083015261317181613135565b9050919050565b7f4552433732313a20617070726f76616c20746f2063757272656e74206f776e6560008201527f7200000000000000000000000000000000000000000000000000000000000000602082015250565b60006131d460218361295a565b91506131df82613178565b604082019050919050565b60006020820190508181036000830152613203816131c7565b9050919050565b7f4552433732313a20617070726f76652063616c6c6572206973206e6f74206f7760008201527f6e6572206e6f7220617070726f76656420666f7220616c6c0000000000000000602082015250565b600061326660388361295a565b91506132718261320a565b604082019050919050565b6000602082019050818103600083015261329581613259565b9050919050565b7f4552433732313a207472616e736665722063616c6c6572206973206e6f74206f60008201527f776e6572206e6f7220617070726f766564000000000000000000000000000000602082015250565b60006132f860318361295a565b91506133038261329c565b604082019050919050565b60006020820190508181036000830152613327816132eb565b9050919050565b7f4e487b7100000000000000000000000000000000000000000000000000000000600052601160045260246000fd5b600061336882612a0a565b915061337383612a0a565b9250817fffffffffffffffffffffffffffffffffffffffffffffffffffffffffffffffff04831182151516156133ac576133ab61332e565b5b828202905092915050565b60006133c282612a0a565b91506133cd83612a0a565b9250827fffffffffffffffffffffffffffffffffffffffffffffffffffffffffffffffff038211156134025761340161332e565b5b828201905092915050565b600061341882612a0a565b915061342383612a0a565b9250828210156134365761343561332e565b5b828203905092915050565b600061344c82612a0a565b91507fffffffffffffffffffffffffffffffffffffffffffffffffffffffffffffffff820361347e5761347d61332e565b5b600182019050919050565b7f4552433732313a206f776e657220717565727920666f72206e6f6e657869737460008201527f656e7420746f6b656e0000000000000000000000000000000000000000000000602082015250565b60006134e560298361295a565b91506134f082613489565b604082019050919050565b60006020820190508181036000830152613514816134d8565b9050919050565b7f4e487b7100000000000000000000000000000000000000000000000000000000600052601260045260246000fd5b600061355582612a0a565b915061356083612a0a565b9250826135705761356f61351b565b5b828206905092915050565b7f4552433732313a2062616c616e636520717565727920666f7220746865207a6560008201527f726f206164647265737300000000000000000000000000000000000000000000602082015250565b60006135d7602a8361295a565b91506135e28261357b565b604082019050919050565b60006020820190508181036000830152613606816135ca565b9050919050565b7f4f776e61626c653a2063616c6c6572206973206e6f7420746865206f776e6572600082015250565b600061364360208361295a565b915061364e8261360d565b602082019050919050565b6000602082019050818103600083015261367281613636565b9050919050565b600061368482612a0a565b915061368f83612a0a565b92508261369f5761369e61351b565b5b828204905092915050565b7f4552433732314d657461646174613a2055524920717565727920666f72206e6f60008201527f6e6578697374656e7420746f6b656e0000000000000000000000000000000000602082015250565b6000613706602f8361295a565b9150613711826136aa565b604082019050919050565b60006020820190508181036000830152613735816136f9565b9050919050565b600081905092915050565b60006137528261294f565b61375c818561373c565b935061376c81856020860161296b565b80840191505092915050565b60006137848285613747565b91506137908284613747565b91508190509392505050565b7f4f776e61626c653a206e6577206f776e657220697320746865207a65726f206160008201527f6464726573730000000000000000000000000000000000000000000000000000602082015250565b60006137f860268361295a565b91506138038261379c565b604082019050919050565b60006020820190508181036000830152613827816137eb565b9050919050565b7f4552433732313a206f70657261746f7220717565727920666f72206e6f6e657860008201527f697374656e7420746f6b656e0000000000000000000000000000000000000000602082015250565b600061388a602c8361295a565b91506138958261382e565b604082019050919050565b600060208201905081810360008301526138b98161387d565b9050919050565b7f4552433732313a207472616e736665722066726f6d20696e636f72726563742060008201527f6f776e6572000000000000000000000000000000000000000000000000000000602082015250565b600061391c60258361295a565b9150613927826138c0565b604082019050919050565b6000602082019050818103600083015261394b8161390f565b9050919050565b7f4552433732313a207472616e7366657220746f20746865207a65726f2061646460008201527f7265737300000000000000000000000000000000000000000000000000000000602082015250565b60006139ae60248361295a565b91506139b982613952565b604082019050919050565b600060208201905081810360008301526139dd816139a1565b9050919050565b7f4552433732313a207472616e7366657220746f206e6f6e20455243373231526560008201527f63656976657220696d706c656d656e7465720000000000000000000000000000602082015250565b6000613a4060328361295a565b9150613a4b826139e4565b604082019050919050565b60006020820190508181036000830152613a6f81613a33565b9050919050565b7f4552433732313a20617070726f766520746f2063616c6c657200000000000000600082015250565b6000613aac60198361295a565b9150613ab782613a76565b602082019050919050565b60006020820190508181036000830152613adb81613a9f565b9050919050565b7f4e487b7100000000000000000000000000000000000000000000000000000000600052603260045260246000fd5b600081519050919050565b600082825260208201905092915050565b6000613b3882613b11565b613b428185613b1c565b9350613b5281856020860161296b565b613b5b8161299e565b840191505092915050565b6000608082019050613b7b6000830187612a9f565b613b886020830186612a9f565b613b956040830185612bc8565b8181036060830152613ba78184613b2d565b905095945050505050565b600081519050613bc1816128c0565b92915050565b600060208284031215613bdd57613bdc61288a565b5b6000613beb84828501613bb2565b91505092915050565b7f4552433732313a206d696e7420746f20746865207a65726f2061646472657373600082015250565b6000613c2a60208361295a565b9150613c3582613bf4565b602082019050919050565b60006020820190508181036000830152613c5981613c1d565b9050919050565b7f4552433732313a20746f6b656e20616c7265616479206d696e74656400000000600082015250565b6000613c96601c8361295a565b9150613ca182613c60565b602082019050919050565b60006020820190508181036000830152613cc581613c89565b905091905056fea2646970667358221220367a63664e870bf06be5e7560c4ea40e36265717974f09dd61eac2c406e43dcd64736f6c634300080d0033",
  "immutableReferences": {},
  "source": "// SPDX-License-Identifier: MIT\npragma solidity ^0.8.0;\n\nimport \"@openzeppelin/contracts/token/ERC721/ERC721.sol\";\nimport \"@openzeppelin/contracts/access/Ownable.sol\";\n\ncontract TBookFactory is Ownable, ERC721 {\n    // A Copy of a Book\n    struct CopyInfo {\n        // Basics\n        bool exists;\n        uint256 tbsn;\n        uint256 copyNumber;\n        uint256 numTransactions; // How many times sold/transacted\n        // Linked List info;\n        uint256 nextLinkId;\n        uint256 prevLinkId;\n        // Holder Info\n        address initHolder; // Who minted this\n        address currentHolder;\n        address lastHolder; // Who was the last person to hold this NFT\n    }\n    // A Single Book\n    struct TBookInfo {\n        bool exists;\n        uint256 tbsn;\n        uint256 numCopies; // Max 10 ** 12 copies\n        uint256 mintPrice;\n        address payable author;\n        mapping(address => uint256) collectors;\n    }\n\n    // A Single User\n    struct UserInfo {\n        bool exists;\n        address userAddress;\n        uint256 collectionSize;\n        mapping(uint256 => uint256) bookToCopies; // Maps TBSN to whether the number of copies the user has collected.\n        // LinkedList Info\n        uint256 firstLinkId;\n        uint256 lastLinkId;\n    }\n\n    uint256 numUsers;\n    mapping(address => UserInfo) addressToUser;\n\n    // This ID is the NFT ID, is completely seperate from TBSN and Copy Number\n    mapping(uint256 => CopyInfo) idToCopy;\n\n    // Maps TBSN to TBook Info\n    mapping(uint256 => TBookInfo) tbsnToBook;\n\n    uint256 totalCopies;\n\n    // Max copies of a single TBook\n    uint256 private _maxCopies;\n\n    constructor() ERC721(\"TBook\", \"TBK\") {\n        _maxCopies = 10**9;\n    }\n\n    // -------- Test functions -----------\n    function getOwnerOf(uint256 tokenId) public view returns (address) {\n        return idToCopy[tokenId].currentHolder;\n    }\n\n    // -----------------------------------\n\n    /**\n    Gets the ID from the TBSN and the Copy Number\n    Copy 1 of 75025 would be 75025000000001\n     */\n    function getId(uint256 tbsn, uint256 copyNumber)\n        public\n        view\n        returns (uint256)\n    {\n        uint256 id = tbsn * (_maxCopies);\n        id += copyNumber;\n        return id;\n    }\n\n    function tbsnFromId(uint256 id) public view returns (uint256) {\n        return id / _maxCopies;\n    }\n\n    function copyNumberFromId(uint256 id) public view returns (uint256) {\n        return id % _maxCopies;\n    }\n\n    // Mint a copy of the book\n    // Temporarily Public\n    function mint(uint256 tbsn, address mintAddress) public {\n        require(tbsnToBook[tbsn].exists);\n        uint256 currentCopy = tbsnToBook[tbsn].numCopies;\n\n        // Generate the ID from the TBSN + Copy Number\n        uint256 id = getId(tbsn, currentCopy);\n\n        // Update CopyInfo\n        idToCopy[id].exists = true;\n        idToCopy[id].tbsn = tbsn;\n        idToCopy[id].copyNumber = currentCopy;\n        idToCopy[id].initHolder = mintAddress;\n        idToCopy[id].currentHolder = mintAddress;\n\n        // Update UserInfo\n        if (!addressToUser[mintAddress].exists) {\n            // Init userInfo\n            addressToUser[mintAddress].exists = true;\n            addressToUser[mintAddress].userAddress = mintAddress;\n            addressToUser[mintAddress].firstLinkId = id;\n        }\n        addressToUser[mintAddress].bookToCopies[tbsn]++;\n        addressToUser[mintAddress].collectionSize++;\n        // Update the LinkedList\n        bool hasCollected = addressToUser[mintAddress].lastLinkId != 0;\n        if (hasCollected) {\n            uint256 lastLink = addressToUser[mintAddress].lastLinkId;\n            idToCopy[lastLink].nextLinkId = id;\n            idToCopy[id].prevLinkId = lastLink;\n        } else {\n            addressToUser[mintAddress].lastLinkId = id;\n        }\n\n        // Update BookInfo\n        tbsnToBook[tbsn].numCopies++;\n        tbsnToBook[tbsn].collectors[mintAddress]++;\n\n        totalCopies += 1;\n        _safeMint(msg.sender, id);\n    }\n\n    function safeTransferFrom(\n        address from,\n        address to,\n        uint256 tokenId\n    ) public override {\n        uint256 tbsn = tbsnFromId(tokenId);\n        require(\n            (tbsnToBook[tbsn].collectors[from] > 0) &&\n                (addressToUser[from].bookToCopies[tbsn] > 0)\n        );\n\n        // Update CopyInfo\n        idToCopy[tokenId].lastHolder = from;\n        idToCopy[tokenId].currentHolder = to;\n        idToCopy[tokenId].numTransactions += 1;\n\n        // Update TBookInfo\n        tbsnToBook[tbsn].collectors[from] -= 1;\n        tbsnToBook[tbsn].collectors[to] += 1;\n\n        // Update UserInfo\n        addressToUser[from].bookToCopies[tbsn] -= 1;\n        addressToUser[from].collectionSize -= 1;\n\n        addressToUser[to].bookToCopies[tbsn]++;\n        addressToUser[to].collectionSize += 1;\n        // TODO: Handle Linked List Stuff\n        _safeTransfer(from, to, tokenId, \" \");\n    }\n\n    function publish(uint256 tbsn, address payable author)\n        external\n        returns (uint256)\n    {\n        // Use an oracle to check that this is a valid call with correct author (valid tbsn)\n        // TODO\n\n        // Only the Foundation can Publish\n        // require(msg.sender == owner());\n        // Update BookInfo\n        tbsnToBook[tbsn].exists = true;\n        tbsnToBook[tbsn].author = author;\n        // Free mint for the author\n        mint(tbsn, author);\n        return 1384;\n    }\n\n    // ----------------------------\n    // Public Gets\n    // Can use this in order to iterate through an entire user's collection\n    function getCopyInfo(uint256 tbsn, uint256 id)\n        external\n        view\n        returns (CopyInfo memory)\n    {\n        uint256 copyId = getId(tbsn, id);\n        return idToCopy[copyId];\n    }\n\n    function returnTrue() public pure returns (bool) {\n        return true;\n    }\n\n    function getUserInfo(address userAddress)\n        public\n        view\n        returns (\n            bool,\n            uint256,\n            uint256,\n            uint256\n        )\n    {\n        UserInfo storage info = addressToUser[userAddress];\n        return (\n            info.exists,\n            info.collectionSize,\n            tbsnFromId(info.firstLinkId),\n            copyNumberFromId(info.firstLinkId)\n        );\n    }\n}\n",
  "sourcePath": "/Users/jayyu/Documents/OneDrive - Stanford/Work/Projects/TSalon/prototypes/tsalon-nft/contracts/TBookFactory.sol",
  "compiler": {
    "name": "solc",
    "version": "0.8.13+commit.abaa5c0e.Emscripten.clang"
  },
  "schemaVersion": "3.4.7",
  "updatedAt": "2022-06-26T17:27:43.770Z",
  "networkType": "ethereum",
  "devdoc": {
    "kind": "dev",
    "methods": {
      "approve(address,uint256)": {
        "details": "See {IERC721-approve}."
      },
      "balanceOf(address)": {
        "details": "See {IERC721-balanceOf}."
      },
      "getApproved(uint256)": {
        "details": "See {IERC721-getApproved}."
      },
      "isApprovedForAll(address,address)": {
        "details": "See {IERC721-isApprovedForAll}."
      },
      "name()": {
        "details": "See {IERC721Metadata-name}."
      },
      "owner()": {
        "details": "Returns the address of the current owner."
      },
      "ownerOf(uint256)": {
        "details": "See {IERC721-ownerOf}."
      },
      "renounceOwnership()": {
        "details": "Leaves the contract without owner. It will not be possible to call `onlyOwner` functions anymore. Can only be called by the current owner. NOTE: Renouncing ownership will leave the contract without an owner, thereby removing any functionality that is only available to the owner."
      },
      "safeTransferFrom(address,address,uint256)": {
        "details": "See {IERC721-safeTransferFrom}."
      },
      "safeTransferFrom(address,address,uint256,bytes)": {
        "details": "See {IERC721-safeTransferFrom}."
      },
      "setApprovalForAll(address,bool)": {
        "details": "See {IERC721-setApprovalForAll}."
      },
      "supportsInterface(bytes4)": {
        "details": "See {IERC165-supportsInterface}."
      },
      "symbol()": {
        "details": "See {IERC721Metadata-symbol}."
      },
      "tokenURI(uint256)": {
        "details": "See {IERC721Metadata-tokenURI}."
      },
      "transferFrom(address,address,uint256)": {
        "details": "See {IERC721-transferFrom}."
      },
      "transferOwnership(address)": {
        "details": "Transfers ownership of the contract to a new account (`newOwner`). Can only be called by the current owner."
      }
    },
    "version": 1
  },
  "userdoc": {
    "kind": "user",
    "methods": {
      "getId(uint256,uint256)": {
        "notice": "Gets the ID from the TBSN and the Copy Number Copy 1 of 75025 would be 75025000000001"
      }
    },
    "version": 1
  }
}