{
  "contractName": "Article",
  "abi": [
    {
      "inputs": [],
      "stateMutability": "nonpayable",
      "type": "constructor"
    },
    {
      "anonymous": false,
      "inputs": [
        {
          "indexed": true,
          "internalType": "address",
          "name": "owner",
          "type": "address"
        },
        {
          "indexed": true,
          "internalType": "address",
          "name": "approved",
          "type": "address"
        },
        {
          "indexed": true,
          "internalType": "uint256",
          "name": "tokenId",
          "type": "uint256"
        }
      ],
      "name": "Approval",
      "type": "event"
    },
    {
      "anonymous": false,
      "inputs": [
        {
          "indexed": true,
          "internalType": "address",
          "name": "owner",
          "type": "address"
        },
        {
          "indexed": true,
          "internalType": "address",
          "name": "operator",
          "type": "address"
        },
        {
          "indexed": false,
          "internalType": "bool",
          "name": "approved",
          "type": "bool"
        }
      ],
      "name": "ApprovalForAll",
      "type": "event"
    },
    {
      "anonymous": false,
      "inputs": [
        {
          "indexed": true,
          "internalType": "address",
          "name": "previousOwner",
          "type": "address"
        },
        {
          "indexed": true,
          "internalType": "address",
          "name": "newOwner",
          "type": "address"
        }
      ],
      "name": "OwnershipTransferred",
      "type": "event"
    },
    {
      "anonymous": false,
      "inputs": [
        {
          "indexed": true,
          "internalType": "address",
          "name": "from",
          "type": "address"
        },
        {
          "indexed": true,
          "internalType": "address",
          "name": "to",
          "type": "address"
        },
        {
          "indexed": true,
          "internalType": "uint256",
          "name": "tokenId",
          "type": "uint256"
        }
      ],
      "name": "Transfer",
      "type": "event"
    },
    {
      "inputs": [
        {
          "internalType": "address",
          "name": "to",
          "type": "address"
        },
        {
          "internalType": "uint256",
          "name": "tokenId",
          "type": "uint256"
        }
      ],
      "name": "approve",
      "outputs": [],
      "stateMutability": "nonpayable",
      "type": "function"
    },
    {
      "inputs": [
        {
          "internalType": "address",
          "name": "owner",
          "type": "address"
        }
      ],
      "name": "balanceOf",
      "outputs": [
        {
          "internalType": "uint256",
          "name": "",
          "type": "uint256"
        }
      ],
      "stateMutability": "view",
      "type": "function",
      "constant": true
    },
    {
      "inputs": [
        {
          "internalType": "uint256",
          "name": "tokenId",
          "type": "uint256"
        }
      ],
      "name": "getApproved",
      "outputs": [
        {
          "internalType": "address",
          "name": "",
          "type": "address"
        }
      ],
      "stateMutability": "view",
      "type": "function",
      "constant": true
    },
    {
      "inputs": [
        {
          "internalType": "address",
          "name": "owner",
          "type": "address"
        },
        {
          "internalType": "address",
          "name": "operator",
          "type": "address"
        }
      ],
      "name": "isApprovedForAll",
      "outputs": [
        {
          "internalType": "bool",
          "name": "",
          "type": "bool"
        }
      ],
      "stateMutability": "view",
      "type": "function",
      "constant": true
    },
    {
      "inputs": [],
      "name": "name",
      "outputs": [
        {
          "internalType": "string",
          "name": "",
          "type": "string"
        }
      ],
      "stateMutability": "view",
      "type": "function",
      "constant": true
    },
    {
      "inputs": [],
      "name": "owner",
      "outputs": [
        {
          "internalType": "address",
          "name": "",
          "type": "address"
        }
      ],
      "stateMutability": "view",
      "type": "function",
      "constant": true
    },
    {
      "inputs": [
        {
          "internalType": "uint256",
          "name": "tokenId",
          "type": "uint256"
        }
      ],
      "name": "ownerOf",
      "outputs": [
        {
          "internalType": "address",
          "name": "",
          "type": "address"
        }
      ],
      "stateMutability": "view",
      "type": "function",
      "constant": true
    },
    {
      "inputs": [],
      "name": "renounceOwnership",
      "outputs": [],
      "stateMutability": "nonpayable",
      "type": "function"
    },
    {
      "inputs": [
        {
          "internalType": "address",
          "name": "from",
          "type": "address"
        },
        {
          "internalType": "address",
          "name": "to",
          "type": "address"
        },
        {
          "internalType": "uint256",
          "name": "tokenId",
          "type": "uint256"
        }
      ],
      "name": "safeTransferFrom",
      "outputs": [],
      "stateMutability": "nonpayable",
      "type": "function"
    },
    {
      "inputs": [
        {
          "internalType": "address",
          "name": "from",
          "type": "address"
        },
        {
          "internalType": "address",
          "name": "to",
          "type": "address"
        },
        {
          "internalType": "uint256",
          "name": "tokenId",
          "type": "uint256"
        },
        {
          "internalType": "bytes",
          "name": "_data",
          "type": "bytes"
        }
      ],
      "name": "safeTransferFrom",
      "outputs": [],
      "stateMutability": "nonpayable",
      "type": "function"
    },
    {
      "inputs": [
        {
          "internalType": "address",
          "name": "operator",
          "type": "address"
        },
        {
          "internalType": "bool",
          "name": "approved",
          "type": "bool"
        }
      ],
      "name": "setApprovalForAll",
      "outputs": [],
      "stateMutability": "nonpayable",
      "type": "function"
    },
    {
      "inputs": [
        {
          "internalType": "bytes4",
          "name": "interfaceId",
          "type": "bytes4"
        }
      ],
      "name": "supportsInterface",
      "outputs": [
        {
          "internalType": "bool",
          "name": "",
          "type": "bool"
        }
      ],
      "stateMutability": "view",
      "type": "function",
      "constant": true
    },
    {
      "inputs": [],
      "name": "symbol",
      "outputs": [
        {
          "internalType": "string",
          "name": "",
          "type": "string"
        }
      ],
      "stateMutability": "view",
      "type": "function",
      "constant": true
    },
    {
      "inputs": [
        {
          "internalType": "uint256",
          "name": "tokenId",
          "type": "uint256"
        }
      ],
      "name": "tokenURI",
      "outputs": [
        {
          "internalType": "string",
          "name": "",
          "type": "string"
        }
      ],
      "stateMutability": "view",
      "type": "function",
      "constant": true
    },
    {
      "inputs": [
        {
          "internalType": "address",
          "name": "from",
          "type": "address"
        },
        {
          "internalType": "address",
          "name": "to",
          "type": "address"
        },
        {
          "internalType": "uint256",
          "name": "tokenId",
          "type": "uint256"
        }
      ],
      "name": "transferFrom",
      "outputs": [],
      "stateMutability": "nonpayable",
      "type": "function"
    },
    {
      "inputs": [
        {
          "internalType": "address",
          "name": "newOwner",
          "type": "address"
        }
      ],
      "name": "transferOwnership",
      "outputs": [],
      "stateMutability": "nonpayable",
      "type": "function"
    },
    {
      "inputs": [
        {
          "internalType": "string",
          "name": "title",
          "type": "string"
        },
        {
          "internalType": "string",
          "name": "author_name",
          "type": "string"
        },
        {
          "internalType": "string",
          "name": "content_url",
          "type": "string"
        }
      ],
      "name": "claim",
      "outputs": [],
      "stateMutability": "nonpayable",
      "type": "function"
    },
    {
      "inputs": [],
      "name": "getName",
      "outputs": [
        {
          "internalType": "string",
          "name": "",
          "type": "string"
        }
      ],
      "stateMutability": "pure",
      "type": "function",
      "constant": true
    }
  ],
  "bytecode": "0x608060405260006009553480156200001657600080fd5b506040518060400160405280600781526020017f41727469636c65000000000000000000000000000000000000000000000000008152506040518060400160405280600781526020017f41525449434c4500000000000000000000000000000000000000000000000000815250620000a3620000976200012b60201b60201c565b6200013360201b60201c565b8160019080519060200190620000bb929190620001f7565b508060029080519060200190620000d4929190620001f7565b5050506040518060400160405280601781526020017f687474703a2f2f6c6f63616c686f73742f746f6b656e2f0000000000000000008152506008908051906020019062000124929190620001f7565b506200030b565b600033905090565b60008060009054906101000a900473ffffffffffffffffffffffffffffffffffffffff169050816000806101000a81548173ffffffffffffffffffffffffffffffffffffffff021916908373ffffffffffffffffffffffffffffffffffffffff1602179055508173ffffffffffffffffffffffffffffffffffffffff168173ffffffffffffffffffffffffffffffffffffffff167f8be0079c531659141344cd1fd0a4f28419497f9722a3daafe3b4186f6b6457e060405160405180910390a35050565b8280546200020590620002d6565b90600052602060002090601f01602090048101928262000229576000855562000275565b82601f106200024457805160ff191683800117855562000275565b8280016001018555821562000275579182015b828111156200027457825182559160200191906001019062000257565b5b50905062000284919062000288565b5090565b5b80821115620002a357600081600090555060010162000289565b5090565b7f4e487b7100000000000000000000000000000000000000000000000000000000600052602260045260246000fd5b60006002820490506001821680620002ef57607f821691505b602082108103620003055762000304620002a7565b5b50919050565b612e0e806200031b6000396000f3fe608060405234801561001057600080fd5b50600436106101165760003560e01c8063715018a6116100a2578063a76a79aa11610071578063a76a79aa146102cd578063b88d4fde146102e9578063c87b56dd14610305578063e985e9c514610335578063f2fde38b1461036557610116565b8063715018a61461026b5780638da5cb5b1461027557806395d89b4114610293578063a22cb465146102b157610116565b806317d7de7c116100e957806317d7de7c146101b557806323b872dd146101d357806342842e0e146101ef5780636352211e1461020b57806370a082311461023b57610116565b806301ffc9a71461011b57806306fdde031461014b578063081812fc14610169578063095ea7b314610199575b600080fd5b61013560048036038101906101309190611b4d565b610381565b6040516101429190611b95565b60405180910390f35b610153610463565b6040516101609190611c49565b60405180910390f35b610183600480360381019061017e9190611ca1565b6104f5565b6040516101909190611d0f565b60405180910390f35b6101b360048036038101906101ae9190611d56565b61057a565b005b6101bd610691565b6040516101ca9190611c49565b60405180910390f35b6101ed60048036038101906101e89190611d96565b6106ce565b005b61020960048036038101906102049190611d96565b61072e565b005b61022560048036038101906102209190611ca1565b61074e565b6040516102329190611d0f565b60405180910390f35b61025560048036038101906102509190611de9565b6107ff565b6040516102629190611e25565b60405180910390f35b6102736108b6565b005b61027d61093e565b60405161028a9190611d0f565b60405180910390f35b61029b610967565b6040516102a89190611c49565b60405180910390f35b6102cb60048036038101906102c69190611e6c565b6109f9565b005b6102e760048036038101906102e29190611fe1565b610a0f565b005b61030360048036038101906102fe9190612129565b610ac6565b005b61031f600480360381019061031a9190611ca1565b610b28565b60405161032c9190611c49565b60405180910390f35b61034f600480360381019061034a91906121ac565b610bcf565b60405161035c9190611b95565b60405180910390f35b61037f600480360381019061037a9190611de9565b610c63565b005b60007f80ac58cd000000000000000000000000000000000000000000000000000000007bffffffffffffffffffffffffffffffffffffffffffffffffffffffff1916827bffffffffffffffffffffffffffffffffffffffffffffffffffffffff1916148061044c57507f5b5e139f000000000000000000000000000000000000000000000000000000007bffffffffffffffffffffffffffffffffffffffffffffffffffffffff1916827bffffffffffffffffffffffffffffffffffffffffffffffffffffffff1916145b8061045c575061045b82610d5a565b5b9050919050565b6060600180546104729061221b565b80601f016020809104026020016040519081016040528092919081815260200182805461049e9061221b565b80156104eb5780601f106104c0576101008083540402835291602001916104eb565b820191906000526020600020905b8154815290600101906020018083116104ce57829003601f168201915b5050505050905090565b600061050082610dc4565b61053f576040517f08c379a0000000000000000000000000000000000000000000000000000000008152600401610536906122be565b60405180910390fd5b6005600083815260200190815260200160002060009054906101000a900473ffffffffffffffffffffffffffffffffffffffff169050919050565b60006105858261074e565b90508073ffffffffffffffffffffffffffffffffffffffff168373ffffffffffffffffffffffffffffffffffffffff16036105f5576040517f08c379a00000000000000000000000000000000000000000000000000000000081526004016105ec90612350565b60405180910390fd5b8073ffffffffffffffffffffffffffffffffffffffff16610614610e30565b73ffffffffffffffffffffffffffffffffffffffff16148061064357506106428161063d610e30565b610bcf565b5b610682576040517f08c379a0000000000000000000000000000000000000000000000000000000008152600401610679906123e2565b60405180910390fd5b61068c8383610e38565b505050565b60606040518060400160405280600481526020017f5465737400000000000000000000000000000000000000000000000000000000815250905090565b6106df6106d9610e30565b82610ef1565b61071e576040517f08c379a000000000000000000000000000000000000000000000000000000000815260040161071590612474565b60405180910390fd5b610729838383610fcf565b505050565b61074983838360405180602001604052806000815250610ac6565b505050565b6000806003600084815260200190815260200160002060009054906101000a900473ffffffffffffffffffffffffffffffffffffffff169050600073ffffffffffffffffffffffffffffffffffffffff168173ffffffffffffffffffffffffffffffffffffffff16036107f6576040517f08c379a00000000000000000000000000000000000000000000000000000000081526004016107ed90612506565b60405180910390fd5b80915050919050565b60008073ffffffffffffffffffffffffffffffffffffffff168273ffffffffffffffffffffffffffffffffffffffff160361086f576040517f08c379a000000000000000000000000000000000000000000000000000000000815260040161086690612598565b60405180910390fd5b600460008373ffffffffffffffffffffffffffffffffffffffff1673ffffffffffffffffffffffffffffffffffffffff168152602001908152602001600020549050919050565b6108be610e30565b73ffffffffffffffffffffffffffffffffffffffff166108dc61093e565b73ffffffffffffffffffffffffffffffffffffffff1614610932576040517f08c379a000000000000000000000000000000000000000000000000000000000815260040161092990612604565b60405180910390fd5b61093c6000611235565b565b60008060009054906101000a900473ffffffffffffffffffffffffffffffffffffffff16905090565b6060600280546109769061221b565b80601f01602080910402602001604051908101604052809291908181526020018280546109a29061221b565b80156109ef5780601f106109c4576101008083540402835291602001916109ef565b820191906000526020600020905b8154815290600101906020018083116109d257829003601f168201915b5050505050905090565b610a0b610a04610e30565b83836112f9565b5050565b60006009549050604051806060016040528085815260200184815260200183815250600760008381526020019081526020016000206000820151816000019080519060200190610a60929190611a3e565b506020820151816001019080519060200190610a7d929190611a3e565b506040820151816002019080519060200190610a9a929190611a3e565b5090505060096000815480929190610ab190612653565b9190505550610ac03382611465565b50505050565b610ad7610ad1610e30565b83610ef1565b610b16576040517f08c379a0000000000000000000000000000000000000000000000000000000008152600401610b0d90612474565b60405180910390fd5b610b2284848484611483565b50505050565b6060610b3382610dc4565b610b72576040517f08c379a0000000000000000000000000000000000000000000000000000000008152600401610b699061270d565b60405180910390fd5b6000610b7c6114df565b90506000815111610b9c5760405180602001604052806000815250610bc7565b80610ba6846114f6565b604051602001610bb7929190612769565b6040516020818303038152906040525b915050919050565b6000600660008473ffffffffffffffffffffffffffffffffffffffff1673ffffffffffffffffffffffffffffffffffffffff16815260200190815260200160002060008373ffffffffffffffffffffffffffffffffffffffff1673ffffffffffffffffffffffffffffffffffffffff16815260200190815260200160002060009054906101000a900460ff16905092915050565b610c6b610e30565b73ffffffffffffffffffffffffffffffffffffffff16610c8961093e565b73ffffffffffffffffffffffffffffffffffffffff1614610cdf576040517f08c379a0000000000000000000000000000000000000000000000000000000008152600401610cd690612604565b60405180910390fd5b600073ffffffffffffffffffffffffffffffffffffffff168173ffffffffffffffffffffffffffffffffffffffff1603610d4e576040517f08c379a0000000000000000000000000000000000000000000000000000000008152600401610d45906127ff565b60405180910390fd5b610d5781611235565b50565b60007f01ffc9a7000000000000000000000000000000000000000000000000000000007bffffffffffffffffffffffffffffffffffffffffffffffffffffffff1916827bffffffffffffffffffffffffffffffffffffffffffffffffffffffff1916149050919050565b60008073ffffffffffffffffffffffffffffffffffffffff166003600084815260200190815260200160002060009054906101000a900473ffffffffffffffffffffffffffffffffffffffff1673ffffffffffffffffffffffffffffffffffffffff1614159050919050565b600033905090565b816005600083815260200190815260200160002060006101000a81548173ffffffffffffffffffffffffffffffffffffffff021916908373ffffffffffffffffffffffffffffffffffffffff160217905550808273ffffffffffffffffffffffffffffffffffffffff16610eab8361074e565b73ffffffffffffffffffffffffffffffffffffffff167f8c5be1e5ebec7d5bd14f71427d1e84f3dd0314c0f7b2291e5b200ac8c7c3b92560405160405180910390a45050565b6000610efc82610dc4565b610f3b576040517f08c379a0000000000000000000000000000000000000000000000000000000008152600401610f3290612891565b60405180910390fd5b6000610f468361074e565b90508073ffffffffffffffffffffffffffffffffffffffff168473ffffffffffffffffffffffffffffffffffffffff161480610f885750610f878185610bcf565b5b80610fc657508373ffffffffffffffffffffffffffffffffffffffff16610fae846104f5565b73ffffffffffffffffffffffffffffffffffffffff16145b91505092915050565b8273ffffffffffffffffffffffffffffffffffffffff16610fef8261074e565b73ffffffffffffffffffffffffffffffffffffffff1614611045576040517f08c379a000000000000000000000000000000000000000000000000000000000815260040161103c90612923565b60405180910390fd5b600073ffffffffffffffffffffffffffffffffffffffff168273ffffffffffffffffffffffffffffffffffffffff16036110b4576040517f08c379a00000000000000000000000000000000000000000000000000000000081526004016110ab906129b5565b60405180910390fd5b6110bf838383611656565b6110ca600082610e38565b6001600460008573ffffffffffffffffffffffffffffffffffffffff1673ffffffffffffffffffffffffffffffffffffffff168152602001908152602001600020600082825461111a91906129d5565b925050819055506001600460008473ffffffffffffffffffffffffffffffffffffffff1673ffffffffffffffffffffffffffffffffffffffff16815260200190815260200160002060008282546111719190612a09565b92505081905550816003600083815260200190815260200160002060006101000a81548173ffffffffffffffffffffffffffffffffffffffff021916908373ffffffffffffffffffffffffffffffffffffffff160217905550808273ffffffffffffffffffffffffffffffffffffffff168473ffffffffffffffffffffffffffffffffffffffff167fddf252ad1be2c89b69c2b068fc378daa952ba7f163c4a11628f55a4df523b3ef60405160405180910390a461123083838361165b565b505050565b60008060009054906101000a900473ffffffffffffffffffffffffffffffffffffffff169050816000806101000a81548173ffffffffffffffffffffffffffffffffffffffff021916908373ffffffffffffffffffffffffffffffffffffffff1602179055508173ffffffffffffffffffffffffffffffffffffffff168173ffffffffffffffffffffffffffffffffffffffff167f8be0079c531659141344cd1fd0a4f28419497f9722a3daafe3b4186f6b6457e060405160405180910390a35050565b8173ffffffffffffffffffffffffffffffffffffffff168373ffffffffffffffffffffffffffffffffffffffff1603611367576040517f08c379a000000000000000000000000000000000000000000000000000000000815260040161135e90612aab565b60405180910390fd5b80600660008573ffffffffffffffffffffffffffffffffffffffff1673ffffffffffffffffffffffffffffffffffffffff16815260200190815260200160002060008473ffffffffffffffffffffffffffffffffffffffff1673ffffffffffffffffffffffffffffffffffffffff16815260200190815260200160002060006101000a81548160ff0219169083151502179055508173ffffffffffffffffffffffffffffffffffffffff168373ffffffffffffffffffffffffffffffffffffffff167f17307eab39ab6107e8899845ad3d59bd9653f200f220920489ca2b5937696c31836040516114589190611b95565b60405180910390a3505050565b61147f828260405180602001604052806000815250611660565b5050565b61148e848484610fcf565b61149a848484846116bb565b6114d9576040517f08c379a00000000000000000000000000000000000000000000000000000000081526004016114d090612b3d565b60405180910390fd5b50505050565b606060405180602001604052806000815250905090565b60606000820361153d576040518060400160405280600181526020017f30000000000000000000000000000000000000000000000000000000000000008152509050611651565b600082905060005b6000821461156f57808061155890612653565b915050600a826115689190612b8c565b9150611545565b60008167ffffffffffffffff81111561158b5761158a611eb6565b5b6040519080825280601f01601f1916602001820160405280156115bd5781602001600182028036833780820191505090505b5090505b6000851461164a576001826115d691906129d5565b9150600a856115e59190612bbd565b60306115f19190612a09565b60f81b81838151811061160757611606612bee565b5b60200101907effffffffffffffffffffffffffffffffffffffffffffffffffffffffffffff1916908160001a905350600a856116439190612b8c565b94506115c1565b8093505050505b919050565b505050565b505050565b61166a8383611842565b61167760008484846116bb565b6116b6576040517f08c379a00000000000000000000000000000000000000000000000000000000081526004016116ad90612b3d565b60405180910390fd5b505050565b60006116dc8473ffffffffffffffffffffffffffffffffffffffff16611a1b565b15611835578373ffffffffffffffffffffffffffffffffffffffff1663150b7a02611705610e30565b8786866040518563ffffffff1660e01b81526004016117279493929190612c72565b6020604051808303816000875af192505050801561176357506040513d601f19601f820116820180604052508101906117609190612cd3565b60015b6117e5573d8060008114611793576040519150601f19603f3d011682016040523d82523d6000602084013e611798565b606091505b5060008151036117dd576040517f08c379a00000000000000000000000000000000000000000000000000000000081526004016117d490612b3d565b60405180910390fd5b805181602001fd5b63150b7a0260e01b7bffffffffffffffffffffffffffffffffffffffffffffffffffffffff1916817bffffffffffffffffffffffffffffffffffffffffffffffffffffffff19161491505061183a565b600190505b949350505050565b600073ffffffffffffffffffffffffffffffffffffffff168273ffffffffffffffffffffffffffffffffffffffff16036118b1576040517f08c379a00000000000000000000000000000000000000000000000000000000081526004016118a890612d4c565b60405180910390fd5b6118ba81610dc4565b156118fa576040517f08c379a00000000000000000000000000000000000000000000000000000000081526004016118f190612db8565b60405180910390fd5b61190660008383611656565b6001600460008473ffffffffffffffffffffffffffffffffffffffff1673ffffffffffffffffffffffffffffffffffffffff16815260200190815260200160002060008282546119569190612a09565b92505081905550816003600083815260200190815260200160002060006101000a81548173ffffffffffffffffffffffffffffffffffffffff021916908373ffffffffffffffffffffffffffffffffffffffff160217905550808273ffffffffffffffffffffffffffffffffffffffff16600073ffffffffffffffffffffffffffffffffffffffff167fddf252ad1be2c89b69c2b068fc378daa952ba7f163c4a11628f55a4df523b3ef60405160405180910390a4611a176000838361165b565b5050565b6000808273ffffffffffffffffffffffffffffffffffffffff163b119050919050565b828054611a4a9061221b565b90600052602060002090601f016020900481019282611a6c5760008555611ab3565b82601f10611a8557805160ff1916838001178555611ab3565b82800160010185558215611ab3579182015b82811115611ab2578251825591602001919060010190611a97565b5b509050611ac09190611ac4565b5090565b5b80821115611add576000816000905550600101611ac5565b5090565b6000604051905090565b600080fd5b600080fd5b60007fffffffff0000000000000000000000000000000000000000000000000000000082169050919050565b611b2a81611af5565b8114611b3557600080fd5b50565b600081359050611b4781611b21565b92915050565b600060208284031215611b6357611b62611aeb565b5b6000611b7184828501611b38565b91505092915050565b60008115159050919050565b611b8f81611b7a565b82525050565b6000602082019050611baa6000830184611b86565b92915050565b600081519050919050565b600082825260208201905092915050565b60005b83811015611bea578082015181840152602081019050611bcf565b83811115611bf9576000848401525b50505050565b6000601f19601f8301169050919050565b6000611c1b82611bb0565b611c258185611bbb565b9350611c35818560208601611bcc565b611c3e81611bff565b840191505092915050565b60006020820190508181036000830152611c638184611c10565b905092915050565b6000819050919050565b611c7e81611c6b565b8114611c8957600080fd5b50565b600081359050611c9b81611c75565b92915050565b600060208284031215611cb757611cb6611aeb565b5b6000611cc584828501611c8c565b91505092915050565b600073ffffffffffffffffffffffffffffffffffffffff82169050919050565b6000611cf982611cce565b9050919050565b611d0981611cee565b82525050565b6000602082019050611d246000830184611d00565b92915050565b611d3381611cee565b8114611d3e57600080fd5b50565b600081359050611d5081611d2a565b92915050565b60008060408385031215611d6d57611d6c611aeb565b5b6000611d7b85828601611d41565b9250506020611d8c85828601611c8c565b9150509250929050565b600080600060608486031215611daf57611dae611aeb565b5b6000611dbd86828701611d41565b9350506020611dce86828701611d41565b9250506040611ddf86828701611c8c565b9150509250925092565b600060208284031215611dff57611dfe611aeb565b5b6000611e0d84828501611d41565b91505092915050565b611e1f81611c6b565b82525050565b6000602082019050611e3a6000830184611e16565b92915050565b611e4981611b7a565b8114611e5457600080fd5b50565b600081359050611e6681611e40565b92915050565b60008060408385031215611e8357611e82611aeb565b5b6000611e9185828601611d41565b9250506020611ea285828601611e57565b9150509250929050565b600080fd5b600080fd5b7f4e487b7100000000000000000000000000000000000000000000000000000000600052604160045260246000fd5b611eee82611bff565b810181811067ffffffffffffffff82111715611f0d57611f0c611eb6565b5b80604052505050565b6000611f20611ae1565b9050611f2c8282611ee5565b919050565b600067ffffffffffffffff821115611f4c57611f4b611eb6565b5b611f5582611bff565b9050602081019050919050565b82818337600083830152505050565b6000611f84611f7f84611f31565b611f16565b905082815260208101848484011115611fa057611f9f611eb1565b5b611fab848285611f62565b509392505050565b600082601f830112611fc857611fc7611eac565b5b8135611fd8848260208601611f71565b91505092915050565b600080600060608486031215611ffa57611ff9611aeb565b5b600084013567ffffffffffffffff81111561201857612017611af0565b5b61202486828701611fb3565b935050602084013567ffffffffffffffff81111561204557612044611af0565b5b61205186828701611fb3565b925050604084013567ffffffffffffffff81111561207257612071611af0565b5b61207e86828701611fb3565b9150509250925092565b600067ffffffffffffffff8211156120a3576120a2611eb6565b5b6120ac82611bff565b9050602081019050919050565b60006120cc6120c784612088565b611f16565b9050828152602081018484840111156120e8576120e7611eb1565b5b6120f3848285611f62565b509392505050565b600082601f8301126121105761210f611eac565b5b81356121208482602086016120b9565b91505092915050565b6000806000806080858703121561214357612142611aeb565b5b600061215187828801611d41565b945050602061216287828801611d41565b935050604061217387828801611c8c565b925050606085013567ffffffffffffffff81111561219457612193611af0565b5b6121a0878288016120fb565b91505092959194509250565b600080604083850312156121c3576121c2611aeb565b5b60006121d185828601611d41565b92505060206121e285828601611d41565b9150509250929050565b7f4e487b7100000000000000000000000000000000000000000000000000000000600052602260045260246000fd5b6000600282049050600182168061223357607f821691505b602082108103612246576122456121ec565b5b50919050565b7f4552433732313a20617070726f76656420717565727920666f72206e6f6e657860008201527f697374656e7420746f6b656e0000000000000000000000000000000000000000602082015250565b60006122a8602c83611bbb565b91506122b38261224c565b604082019050919050565b600060208201905081810360008301526122d78161229b565b9050919050565b7f4552433732313a20617070726f76616c20746f2063757272656e74206f776e6560008201527f7200000000000000000000000000000000000000000000000000000000000000602082015250565b600061233a602183611bbb565b9150612345826122de565b604082019050919050565b600060208201905081810360008301526123698161232d565b9050919050565b7f4552433732313a20617070726f76652063616c6c6572206973206e6f74206f7760008201527f6e6572206e6f7220617070726f76656420666f7220616c6c0000000000000000602082015250565b60006123cc603883611bbb565b91506123d782612370565b604082019050919050565b600060208201905081810360008301526123fb816123bf565b9050919050565b7f4552433732313a207472616e736665722063616c6c6572206973206e6f74206f60008201527f776e6572206e6f7220617070726f766564000000000000000000000000000000602082015250565b600061245e603183611bbb565b915061246982612402565b604082019050919050565b6000602082019050818103600083015261248d81612451565b9050919050565b7f4552433732313a206f776e657220717565727920666f72206e6f6e657869737460008201527f656e7420746f6b656e0000000000000000000000000000000000000000000000602082015250565b60006124f0602983611bbb565b91506124fb82612494565b604082019050919050565b6000602082019050818103600083015261251f816124e3565b9050919050565b7f4552433732313a2062616c616e636520717565727920666f7220746865207a6560008201527f726f206164647265737300000000000000000000000000000000000000000000602082015250565b6000612582602a83611bbb565b915061258d82612526565b604082019050919050565b600060208201905081810360008301526125b181612575565b9050919050565b7f4f776e61626c653a2063616c6c6572206973206e6f7420746865206f776e6572600082015250565b60006125ee602083611bbb565b91506125f9826125b8565b602082019050919050565b6000602082019050818103600083015261261d816125e1565b9050919050565b7f4e487b7100000000000000000000000000000000000000000000000000000000600052601160045260246000fd5b600061265e82611c6b565b91507fffffffffffffffffffffffffffffffffffffffffffffffffffffffffffffffff82036126905761268f612624565b5b600182019050919050565b7f4552433732314d657461646174613a2055524920717565727920666f72206e6f60008201527f6e6578697374656e7420746f6b656e0000000000000000000000000000000000602082015250565b60006126f7602f83611bbb565b91506127028261269b565b604082019050919050565b60006020820190508181036000830152612726816126ea565b9050919050565b600081905092915050565b600061274382611bb0565b61274d818561272d565b935061275d818560208601611bcc565b80840191505092915050565b60006127758285612738565b91506127818284612738565b91508190509392505050565b7f4f776e61626c653a206e6577206f776e657220697320746865207a65726f206160008201527f6464726573730000000000000000000000000000000000000000000000000000602082015250565b60006127e9602683611bbb565b91506127f48261278d565b604082019050919050565b60006020820190508181036000830152612818816127dc565b9050919050565b7f4552433732313a206f70657261746f7220717565727920666f72206e6f6e657860008201527f697374656e7420746f6b656e0000000000000000000000000000000000000000602082015250565b600061287b602c83611bbb565b91506128868261281f565b604082019050919050565b600060208201905081810360008301526128aa8161286e565b9050919050565b7f4552433732313a207472616e736665722066726f6d20696e636f72726563742060008201527f6f776e6572000000000000000000000000000000000000000000000000000000602082015250565b600061290d602583611bbb565b9150612918826128b1565b604082019050919050565b6000602082019050818103600083015261293c81612900565b9050919050565b7f4552433732313a207472616e7366657220746f20746865207a65726f2061646460008201527f7265737300000000000000000000000000000000000000000000000000000000602082015250565b600061299f602483611bbb565b91506129aa82612943565b604082019050919050565b600060208201905081810360008301526129ce81612992565b9050919050565b60006129e082611c6b565b91506129eb83611c6b565b9250828210156129fe576129fd612624565b5b828203905092915050565b6000612a1482611c6b565b9150612a1f83611c6b565b9250827fffffffffffffffffffffffffffffffffffffffffffffffffffffffffffffffff03821115612a5457612a53612624565b5b828201905092915050565b7f4552433732313a20617070726f766520746f2063616c6c657200000000000000600082015250565b6000612a95601983611bbb565b9150612aa082612a5f565b602082019050919050565b60006020820190508181036000830152612ac481612a88565b9050919050565b7f4552433732313a207472616e7366657220746f206e6f6e20455243373231526560008201527f63656976657220696d706c656d656e7465720000000000000000000000000000602082015250565b6000612b27603283611bbb565b9150612b3282612acb565b604082019050919050565b60006020820190508181036000830152612b5681612b1a565b9050919050565b7f4e487b7100000000000000000000000000000000000000000000000000000000600052601260045260246000fd5b6000612b9782611c6b565b9150612ba283611c6b565b925082612bb257612bb1612b5d565b5b828204905092915050565b6000612bc882611c6b565b9150612bd383611c6b565b925082612be357612be2612b5d565b5b828206905092915050565b7f4e487b7100000000000000000000000000000000000000000000000000000000600052603260045260246000fd5b600081519050919050565b600082825260208201905092915050565b6000612c4482612c1d565b612c4e8185612c28565b9350612c5e818560208601611bcc565b612c6781611bff565b840191505092915050565b6000608082019050612c876000830187611d00565b612c946020830186611d00565b612ca16040830185611e16565b8181036060830152612cb38184612c39565b905095945050505050565b600081519050612ccd81611b21565b92915050565b600060208284031215612ce957612ce8611aeb565b5b6000612cf784828501612cbe565b91505092915050565b7f4552433732313a206d696e7420746f20746865207a65726f2061646472657373600082015250565b6000612d36602083611bbb565b9150612d4182612d00565b602082019050919050565b60006020820190508181036000830152612d6581612d29565b9050919050565b7f4552433732313a20746f6b656e20616c7265616479206d696e74656400000000600082015250565b6000612da2601c83611bbb565b9150612dad82612d6c565b602082019050919050565b60006020820190508181036000830152612dd181612d95565b905091905056fea2646970667358221220fe661042ae0f5928a954d39c5edae2ac6a169ff4b50fba56d8b36a90f239fef764736f6c634300080d0033",
  "immutableReferences": {},
  "source": "// SPDX-License-Identifier: MIT\npragma solidity >=0.4.22 <0.9.0;\n\nimport \"@openzeppelin/contracts/token/ERC721/ERC721.sol\";\nimport \"@openzeppelin/contracts/access/Ownable.sol\";\n\ncontract Article is Ownable, ERC721 {\n    struct Metadata {\n        string title;\n        string author_name;\n        string content_url;\n    }\n    mapping(uint256 => Metadata) id_map;\n\n    string private _currentBaseURI;\n    uint256 numTokens = 0;\n\n    constructor() ERC721(\"Article\", \"ARTICLE\") {\n        _currentBaseURI = \"http://localhost/token/\";\n    }\n\n    function claim(\n        string memory title,\n        string memory author_name,\n        string memory content_url\n    ) external {\n        uint256 tokenId = numTokens;\n        id_map[tokenId] = Metadata(title, author_name, content_url);\n        numTokens++;\n        _safeMint(msg.sender, tokenId);\n    }\n\n    function getName() external pure returns (string memory) {\n        return \"Test\";\n    }\n}\n",
  "sourcePath": "/Users/jayyu/Documents/OneDrive - Stanford/Work/Projects/TSalon/prototypes/tsalon-nft/contracts/Article.sol",
  "compiler": {
    "name": "solc",
    "version": "0.8.13+commit.abaa5c0e.Emscripten.clang"
  },
  "schemaVersion": "3.4.7",
  "updatedAt": "2022-06-18T03:15:34.326Z",
  "networkType": "ethereum",
  "devdoc": {
    "kind": "dev",
    "methods": {
      "approve(address,uint256)": {
        "details": "See {IERC721-approve}."
      },
      "balanceOf(address)": {
        "details": "See {IERC721-balanceOf}."
      },
      "getApproved(uint256)": {
        "details": "See {IERC721-getApproved}."
      },
      "isApprovedForAll(address,address)": {
        "details": "See {IERC721-isApprovedForAll}."
      },
      "name()": {
        "details": "See {IERC721Metadata-name}."
      },
      "owner()": {
        "details": "Returns the address of the current owner."
      },
      "ownerOf(uint256)": {
        "details": "See {IERC721-ownerOf}."
      },
      "renounceOwnership()": {
        "details": "Leaves the contract without owner. It will not be possible to call `onlyOwner` functions anymore. Can only be called by the current owner. NOTE: Renouncing ownership will leave the contract without an owner, thereby removing any functionality that is only available to the owner."
      },
      "safeTransferFrom(address,address,uint256)": {
        "details": "See {IERC721-safeTransferFrom}."
      },
      "safeTransferFrom(address,address,uint256,bytes)": {
        "details": "See {IERC721-safeTransferFrom}."
      },
      "setApprovalForAll(address,bool)": {
        "details": "See {IERC721-setApprovalForAll}."
      },
      "supportsInterface(bytes4)": {
        "details": "See {IERC165-supportsInterface}."
      },
      "symbol()": {
        "details": "See {IERC721Metadata-symbol}."
      },
      "tokenURI(uint256)": {
        "details": "See {IERC721Metadata-tokenURI}."
      },
      "transferFrom(address,address,uint256)": {
        "details": "See {IERC721-transferFrom}."
      },
      "transferOwnership(address)": {
        "details": "Transfers ownership of the contract to a new account (`newOwner`). Can only be called by the current owner."
      }
    },
    "version": 1
  },
  "userdoc": {
    "kind": "user",
    "methods": {},
    "version": 1
  }
}