{
  "contractName": "TBookFactory",
  "abi": [
    {
      "inputs": [],
      "stateMutability": "nonpayable",
      "type": "constructor"
    },
    {
      "anonymous": false,
      "inputs": [
        {
          "indexed": true,
          "internalType": "address",
          "name": "owner",
          "type": "address"
        },
        {
          "indexed": true,
          "internalType": "address",
          "name": "approved",
          "type": "address"
        },
        {
          "indexed": true,
          "internalType": "uint256",
          "name": "tokenId",
          "type": "uint256"
        }
      ],
      "name": "Approval",
      "type": "event"
    },
    {
      "anonymous": false,
      "inputs": [
        {
          "indexed": true,
          "internalType": "address",
          "name": "owner",
          "type": "address"
        },
        {
          "indexed": true,
          "internalType": "address",
          "name": "operator",
          "type": "address"
        },
        {
          "indexed": false,
          "internalType": "bool",
          "name": "approved",
          "type": "bool"
        }
      ],
      "name": "ApprovalForAll",
      "type": "event"
    },
    {
      "anonymous": false,
      "inputs": [
        {
          "indexed": true,
          "internalType": "address",
          "name": "previousOwner",
          "type": "address"
        },
        {
          "indexed": true,
          "internalType": "address",
          "name": "newOwner",
          "type": "address"
        }
      ],
      "name": "OwnershipTransferred",
      "type": "event"
    },
    {
      "anonymous": false,
      "inputs": [
        {
          "indexed": true,
          "internalType": "address",
          "name": "from",
          "type": "address"
        },
        {
          "indexed": true,
          "internalType": "address",
          "name": "to",
          "type": "address"
        },
        {
          "indexed": true,
          "internalType": "uint256",
          "name": "tokenId",
          "type": "uint256"
        }
      ],
      "name": "Transfer",
      "type": "event"
    },
    {
      "inputs": [
        {
          "internalType": "address",
          "name": "to",
          "type": "address"
        },
        {
          "internalType": "uint256",
          "name": "tokenId",
          "type": "uint256"
        }
      ],
      "name": "approve",
      "outputs": [],
      "stateMutability": "nonpayable",
      "type": "function"
    },
    {
      "inputs": [
        {
          "internalType": "address",
          "name": "owner",
          "type": "address"
        }
      ],
      "name": "balanceOf",
      "outputs": [
        {
          "internalType": "uint256",
          "name": "",
          "type": "uint256"
        }
      ],
      "stateMutability": "view",
      "type": "function",
      "constant": true
    },
    {
      "inputs": [
        {
          "internalType": "uint256",
          "name": "tokenId",
          "type": "uint256"
        }
      ],
      "name": "getApproved",
      "outputs": [
        {
          "internalType": "address",
          "name": "",
          "type": "address"
        }
      ],
      "stateMutability": "view",
      "type": "function",
      "constant": true
    },
    {
      "inputs": [
        {
          "internalType": "address",
          "name": "owner",
          "type": "address"
        },
        {
          "internalType": "address",
          "name": "operator",
          "type": "address"
        }
      ],
      "name": "isApprovedForAll",
      "outputs": [
        {
          "internalType": "bool",
          "name": "",
          "type": "bool"
        }
      ],
      "stateMutability": "view",
      "type": "function",
      "constant": true
    },
    {
      "inputs": [],
      "name": "name",
      "outputs": [
        {
          "internalType": "string",
          "name": "",
          "type": "string"
        }
      ],
      "stateMutability": "view",
      "type": "function",
      "constant": true
    },
    {
      "inputs": [],
      "name": "owner",
      "outputs": [
        {
          "internalType": "address",
          "name": "",
          "type": "address"
        }
      ],
      "stateMutability": "view",
      "type": "function",
      "constant": true
    },
    {
      "inputs": [
        {
          "internalType": "uint256",
          "name": "tokenId",
          "type": "uint256"
        }
      ],
      "name": "ownerOf",
      "outputs": [
        {
          "internalType": "address",
          "name": "",
          "type": "address"
        }
      ],
      "stateMutability": "view",
      "type": "function",
      "constant": true
    },
    {
      "inputs": [],
      "name": "renounceOwnership",
      "outputs": [],
      "stateMutability": "nonpayable",
      "type": "function"
    },
    {
      "inputs": [
        {
          "internalType": "address",
          "name": "operator",
          "type": "address"
        },
        {
          "internalType": "bool",
          "name": "approved",
          "type": "bool"
        }
      ],
      "name": "setApprovalForAll",
      "outputs": [],
      "stateMutability": "nonpayable",
      "type": "function"
    },
    {
      "inputs": [
        {
          "internalType": "bytes4",
          "name": "interfaceId",
          "type": "bytes4"
        }
      ],
      "name": "supportsInterface",
      "outputs": [
        {
          "internalType": "bool",
          "name": "",
          "type": "bool"
        }
      ],
      "stateMutability": "view",
      "type": "function",
      "constant": true
    },
    {
      "inputs": [],
      "name": "symbol",
      "outputs": [
        {
          "internalType": "string",
          "name": "",
          "type": "string"
        }
      ],
      "stateMutability": "view",
      "type": "function",
      "constant": true
    },
    {
      "inputs": [
        {
          "internalType": "uint256",
          "name": "tokenId",
          "type": "uint256"
        }
      ],
      "name": "tokenURI",
      "outputs": [
        {
          "internalType": "string",
          "name": "",
          "type": "string"
        }
      ],
      "stateMutability": "view",
      "type": "function",
      "constant": true
    },
    {
      "inputs": [
        {
          "internalType": "address",
          "name": "from",
          "type": "address"
        },
        {
          "internalType": "address",
          "name": "to",
          "type": "address"
        },
        {
          "internalType": "uint256",
          "name": "tokenId",
          "type": "uint256"
        }
      ],
      "name": "transferFrom",
      "outputs": [],
      "stateMutability": "nonpayable",
      "type": "function"
    },
    {
      "inputs": [
        {
          "internalType": "address",
          "name": "newOwner",
          "type": "address"
        }
      ],
      "name": "transferOwnership",
      "outputs": [],
      "stateMutability": "nonpayable",
      "type": "function"
    },
    {
      "inputs": [
        {
          "internalType": "uint256",
          "name": "tokenId",
          "type": "uint256"
        }
      ],
      "name": "getOwnerOf",
      "outputs": [
        {
          "internalType": "address",
          "name": "",
          "type": "address"
        }
      ],
      "stateMutability": "view",
      "type": "function",
      "constant": true
    },
    {
      "inputs": [
        {
          "internalType": "uint256",
          "name": "tbsn",
          "type": "uint256"
        },
        {
          "internalType": "uint256",
          "name": "copyNumber",
          "type": "uint256"
        }
      ],
      "name": "getId",
      "outputs": [
        {
          "internalType": "uint256",
          "name": "",
          "type": "uint256"
        }
      ],
      "stateMutability": "view",
      "type": "function",
      "constant": true
    },
    {
      "inputs": [
        {
          "internalType": "uint256",
          "name": "id",
          "type": "uint256"
        }
      ],
      "name": "tbsnFromId",
      "outputs": [
        {
          "internalType": "uint256",
          "name": "",
          "type": "uint256"
        }
      ],
      "stateMutability": "view",
      "type": "function",
      "constant": true
    },
    {
      "inputs": [
        {
          "internalType": "uint256",
          "name": "id",
          "type": "uint256"
        }
      ],
      "name": "copyNumberFromId",
      "outputs": [
        {
          "internalType": "uint256",
          "name": "",
          "type": "uint256"
        }
      ],
      "stateMutability": "view",
      "type": "function",
      "constant": true
    },
    {
      "inputs": [
        {
          "internalType": "address",
          "name": "userAddress",
          "type": "address"
        }
      ],
      "name": "isUserHolder",
      "outputs": [
        {
          "internalType": "bool",
          "name": "",
          "type": "bool"
        }
      ],
      "stateMutability": "view",
      "type": "function",
      "constant": true
    },
    {
      "inputs": [
        {
          "internalType": "address",
          "name": "from",
          "type": "address"
        },
        {
          "internalType": "address",
          "name": "to",
          "type": "address"
        },
        {
          "internalType": "uint256",
          "name": "tokenId",
          "type": "uint256"
        }
      ],
      "name": "safeTransferFrom",
      "outputs": [],
      "stateMutability": "nonpayable",
      "type": "function"
    },
    {
      "inputs": [
        {
          "internalType": "address",
          "name": "from",
          "type": "address"
        },
        {
          "internalType": "address",
          "name": "to",
          "type": "address"
        },
        {
          "internalType": "uint256",
          "name": "tokenId",
          "type": "uint256"
        },
        {
          "internalType": "bytes",
          "name": "_data",
          "type": "bytes"
        }
      ],
      "name": "safeTransferFrom",
      "outputs": [],
      "stateMutability": "nonpayable",
      "type": "function"
    },
    {
      "inputs": [
        {
          "internalType": "uint256",
          "name": "tbsn",
          "type": "uint256"
        }
      ],
      "name": "getPrice",
      "outputs": [
        {
          "internalType": "uint256",
          "name": "",
          "type": "uint256"
        }
      ],
      "stateMutability": "view",
      "type": "function",
      "constant": true
    },
    {
      "inputs": [
        {
          "internalType": "uint256",
          "name": "tbsn",
          "type": "uint256"
        },
        {
          "internalType": "address",
          "name": "collector",
          "type": "address"
        }
      ],
      "name": "collect",
      "outputs": [
        {
          "internalType": "uint256",
          "name": "",
          "type": "uint256"
        }
      ],
      "stateMutability": "payable",
      "type": "function",
      "payable": true
    },
    {
      "inputs": [
        {
          "internalType": "uint256",
          "name": "tbsn",
          "type": "uint256"
        },
        {
          "internalType": "address payable",
          "name": "author",
          "type": "address"
        }
      ],
      "name": "publish",
      "outputs": [],
      "stateMutability": "nonpayable",
      "type": "function"
    },
    {
      "inputs": [
        {
          "internalType": "uint256",
          "name": "id",
          "type": "uint256"
        }
      ],
      "name": "getCopyInfo",
      "outputs": [
        {
          "components": [
            {
              "internalType": "bool",
              "name": "exists",
              "type": "bool"
            },
            {
              "internalType": "uint256",
              "name": "tbsn",
              "type": "uint256"
            },
            {
              "internalType": "uint256",
              "name": "copyNumber",
              "type": "uint256"
            },
            {
              "internalType": "uint256",
              "name": "numTransactions",
              "type": "uint256"
            },
            {
              "internalType": "uint256",
              "name": "nextLinkId",
              "type": "uint256"
            },
            {
              "internalType": "uint256",
              "name": "prevLinkId",
              "type": "uint256"
            },
            {
              "internalType": "address",
              "name": "initHolder",
              "type": "address"
            },
            {
              "internalType": "address",
              "name": "currentHolder",
              "type": "address"
            },
            {
              "internalType": "address",
              "name": "lastHolder",
              "type": "address"
            }
          ],
          "internalType": "struct TBookFactory.CopyInfo",
          "name": "",
          "type": "tuple"
        }
      ],
      "stateMutability": "view",
      "type": "function",
      "constant": true
    },
    {
      "inputs": [
        {
          "internalType": "address",
          "name": "userAddress",
          "type": "address"
        }
      ],
      "name": "getUserInfo",
      "outputs": [
        {
          "internalType": "bool",
          "name": "",
          "type": "bool"
        },
        {
          "internalType": "uint256",
          "name": "",
          "type": "uint256"
        },
        {
          "internalType": "uint256",
          "name": "",
          "type": "uint256"
        },
        {
          "internalType": "uint256",
          "name": "",
          "type": "uint256"
        }
      ],
      "stateMutability": "view",
      "type": "function",
      "constant": true
    }
  ],
  "bytecode": "0x60806040523480156200001157600080fd5b506040518060400160405280600581526020017f54426f6f6b0000000000000000000000000000000000000000000000000000008152506040518060400160405280600381526020017f54424b00000000000000000000000000000000000000000000000000000000008152506200009e62000092620000e360201b60201c565b620000eb60201b60201c565b8160019080519060200190620000b6929190620001af565b508060029080519060200190620000cf929190620001af565b505050633b9aca00600c81905550620002c3565b600033905090565b60008060009054906101000a900473ffffffffffffffffffffffffffffffffffffffff169050816000806101000a81548173ffffffffffffffffffffffffffffffffffffffff021916908373ffffffffffffffffffffffffffffffffffffffff1602179055508173ffffffffffffffffffffffffffffffffffffffff168173ffffffffffffffffffffffffffffffffffffffff167f8be0079c531659141344cd1fd0a4f28419497f9722a3daafe3b4186f6b6457e060405160405180910390a35050565b828054620001bd906200028e565b90600052602060002090601f016020900481019282620001e157600085556200022d565b82601f10620001fc57805160ff19168380011785556200022d565b828001600101855582156200022d579182015b828111156200022c5782518255916020019190600101906200020f565b5b5090506200023c919062000240565b5090565b5b808211156200025b57600081600090555060010162000241565b5090565b7f4e487b7100000000000000000000000000000000000000000000000000000000600052602260045260246000fd5b60006002820490506001821680620002a757607f821691505b602082108103620002bd57620002bc6200025f565b5b50919050565b61445380620002d36000396000f3fe6080604052600436106101815760003560e01c806383638710116100d1578063a22cb4651161008a578063e757223011610064578063e7572230146105e6578063e7af475714610623578063e985e9c514610660578063f2fde38b1461069d57610181565b8063a22cb46514610557578063b88d4fde14610580578063c87b56dd146105a957610181565b8063836387101461042e5780638a0dbe7a1461046b5780638d3c100a146104945780638da5cb5b146104c457806395d89b41146104ef5780639a4b0f2b1461051a57610181565b806342842e0e1161013e57806364f7e9291161011857806364f7e929146103605780636847e3091461039d57806370a08231146103da578063715018a61461041757610181565b806342842e0e146102ba5780636352211e146102e35780636386c1c71461032057610181565b806301ffc9a71461018657806306fdde03146101c3578063081812fc146101ee578063095ea7b31461022b57806323b872dd1461025457806324fc65ed1461027d575b600080fd5b34801561019257600080fd5b506101ad60048036038101906101a89190612cc0565b6106c6565b6040516101ba9190612d08565b60405180910390f35b3480156101cf57600080fd5b506101d86107a8565b6040516101e59190612dbc565b60405180910390f35b3480156101fa57600080fd5b5061021560048036038101906102109190612e14565b61083a565b6040516102229190612e82565b60405180910390f35b34801561023757600080fd5b50610252600480360381019061024d9190612ec9565b6108bf565b005b34801561026057600080fd5b5061027b60048036038101906102769190612f09565b6109d6565b005b34801561028957600080fd5b506102a4600480360381019061029f9190612f5c565b610a36565b6040516102b19190612fab565b60405180910390f35b3480156102c657600080fd5b506102e160048036038101906102dc9190612f09565b610a61565b005b3480156102ef57600080fd5b5061030a60048036038101906103059190612e14565b610eb4565b6040516103179190612e82565b60405180910390f35b34801561032c57600080fd5b5061034760048036038101906103429190612fc6565b610f65565b6040516103579493929190612ff3565b60405180910390f35b34801561036c57600080fd5b5061038760048036038101906103829190612fc6565b610fdf565b6040516103949190612d08565b60405180910390f35b3480156103a957600080fd5b506103c460048036038101906103bf9190612e14565b61105f565b6040516103d19190612fab565b60405180910390f35b3480156103e657600080fd5b5061040160048036038101906103fc9190612fc6565b611076565b60405161040e9190612fab565b60405180910390f35b34801561042357600080fd5b5061042c61112d565b005b34801561043a57600080fd5b5061045560048036038101906104509190612e14565b6111b5565b6040516104629190612e82565b60405180910390f35b34801561047757600080fd5b50610492600480360381019061048d9190613076565b6111f5565b005b6104ae60048036038101906104a991906130b6565b611330565b6040516104bb9190612fab565b60405180910390f35b3480156104d057600080fd5b506104d961154d565b6040516104e69190612e82565b60405180910390f35b3480156104fb57600080fd5b50610504611576565b6040516105119190612dbc565b60405180910390f35b34801561052657600080fd5b50610541600480360381019061053c9190612e14565b611608565b60405161054e9190612fab565b60405180910390f35b34801561056357600080fd5b5061057e60048036038101906105799190613122565b61161f565b005b34801561058c57600080fd5b506105a760048036038101906105a29190613297565b611635565b005b3480156105b557600080fd5b506105d060048036038101906105cb9190612e14565b611697565b6040516105dd9190612dbc565b60405180910390f35b3480156105f257600080fd5b5061060d60048036038101906106089190612e14565b61173e565b60405161061a9190612fab565b60405180910390f35b34801561062f57600080fd5b5061064a60048036038101906106459190612e14565b6117fd565b60405161065791906133fe565b60405180910390f35b34801561066c57600080fd5b506106876004803603810190610682919061341a565b61197a565b6040516106949190612d08565b60405180910390f35b3480156106a957600080fd5b506106c460048036038101906106bf9190612fc6565b611a0e565b005b60007f80ac58cd000000000000000000000000000000000000000000000000000000007bffffffffffffffffffffffffffffffffffffffffffffffffffffffff1916827bffffffffffffffffffffffffffffffffffffffffffffffffffffffff1916148061079157507f5b5e139f000000000000000000000000000000000000000000000000000000007bffffffffffffffffffffffffffffffffffffffffffffffffffffffff1916827bffffffffffffffffffffffffffffffffffffffffffffffffffffffff1916145b806107a157506107a082611b05565b5b9050919050565b6060600180546107b790613489565b80601f01602080910402602001604051908101604052809291908181526020018280546107e390613489565b80156108305780601f1061080557610100808354040283529160200191610830565b820191906000526020600020905b81548152906001019060200180831161081357829003601f168201915b5050505050905090565b600061084582611b6f565b610884576040517f08c379a000000000000000000000000000000000000000000000000000000000815260040161087b9061352c565b60405180910390fd5b6005600083815260200190815260200160002060009054906101000a900473ffffffffffffffffffffffffffffffffffffffff169050919050565b60006108ca82610eb4565b90508073ffffffffffffffffffffffffffffffffffffffff168373ffffffffffffffffffffffffffffffffffffffff160361093a576040517f08c379a0000000000000000000000000000000000000000000000000000000008152600401610931906135be565b60405180910390fd5b8073ffffffffffffffffffffffffffffffffffffffff16610959611bdb565b73ffffffffffffffffffffffffffffffffffffffff161480610988575061098781610982611bdb565b61197a565b5b6109c7576040517f08c379a00000000000000000000000000000000000000000000000000000000081526004016109be90613650565b60405180910390fd5b6109d18383611be3565b505050565b6109e76109e1611bdb565b82611c9c565b610a26576040517f08c379a0000000000000000000000000000000000000000000000000000000008152600401610a1d906136e2565b60405180910390fd5b610a31838383611d7a565b505050565b600080600c5484610a479190613731565b90508281610a55919061378b565b90508091505092915050565b6000610a6c82611608565b90506000600a600083815260200190815260200160002060050160008673ffffffffffffffffffffffffffffffffffffffff1673ffffffffffffffffffffffffffffffffffffffff16815260200190815260200160002054118015610b2457506000600860008673ffffffffffffffffffffffffffffffffffffffff1673ffffffffffffffffffffffffffffffffffffffff168152602001908152602001600020600201600083815260200190815260200160002054115b610b2d57600080fd5b6000600960008481526020019081526020016000209050848160080160006101000a81548173ffffffffffffffffffffffffffffffffffffffff021916908373ffffffffffffffffffffffffffffffffffffffff160217905550838160070160006101000a81548173ffffffffffffffffffffffffffffffffffffffff021916908373ffffffffffffffffffffffffffffffffffffffff160217905550806003016000815480929190610bdf906137e1565b91905055506000600a600084815260200190815260200160002090508060050160008773ffffffffffffffffffffffffffffffffffffffff1673ffffffffffffffffffffffffffffffffffffffff1681526020019081526020016000206000815480929190610c4d90613829565b91905055508060050160008673ffffffffffffffffffffffffffffffffffffffff1673ffffffffffffffffffffffffffffffffffffffff1681526020019081526020016000206000815480929190610ca4906137e1565b91905055506000600860008873ffffffffffffffffffffffffffffffffffffffff1673ffffffffffffffffffffffffffffffffffffffff16815260200190815260200160002090506000600860008873ffffffffffffffffffffffffffffffffffffffff1673ffffffffffffffffffffffffffffffffffffffff16815260200190815260200160002090508160020160008681526020019081526020016000206000815480929190610d5590613829565b9190505550816001016000815480929190610d6f90613829565b91905055508060020160008681526020019081526020016000206000815480929190610d9a906137e1565b9190505550806001016000815480929190610db4906137e1565b919050555060008460050154905060008560040154905060008203610de157808460030181905550610dfd565b8060096000848152602001908152602001600020600401819055505b60008103610e0f578184600401819055505b6000836004015490508087600501819055506000876004018190555060008103610e4157888460030181905550610e5d565b8860096000838152602001908152602001600020600401819055505b888460040181905550610ea78b8b8b6040518060400160405280600181526020017f2000000000000000000000000000000000000000000000000000000000000000815250611fe0565b5050505050505050505050565b6000806003600084815260200190815260200160002060009054906101000a900473ffffffffffffffffffffffffffffffffffffffff169050600073ffffffffffffffffffffffffffffffffffffffff168173ffffffffffffffffffffffffffffffffffffffff1603610f5c576040517f08c379a0000000000000000000000000000000000000000000000000000000008152600401610f53906138c4565b60405180910390fd5b80915050919050565b6000806000806000600860008773ffffffffffffffffffffffffffffffffffffffff1673ffffffffffffffffffffffffffffffffffffffff16815260200190815260200160002090508060000160009054906101000a900460ff168160010154826003015483600401549450945094509450509193509193565b600080600860008473ffffffffffffffffffffffffffffffffffffffff1673ffffffffffffffffffffffffffffffffffffffff16815260200190815260200160002090508060000160009054906101000a900460ff168015611045575060008160010154115b1561105457600191505061105a565b60009150505b919050565b6000600c548261106f9190613913565b9050919050565b60008073ffffffffffffffffffffffffffffffffffffffff168273ffffffffffffffffffffffffffffffffffffffff16036110e6576040517f08c379a00000000000000000000000000000000000000000000000000000000081526004016110dd906139b6565b60405180910390fd5b600460008373ffffffffffffffffffffffffffffffffffffffff1673ffffffffffffffffffffffffffffffffffffffff168152602001908152602001600020549050919050565b611135611bdb565b73ffffffffffffffffffffffffffffffffffffffff1661115361154d565b73ffffffffffffffffffffffffffffffffffffffff16146111a9576040517f08c379a00000000000000000000000000000000000000000000000000000000081526004016111a090613a22565b60405180910390fd5b6111b3600061203c565b565b60006009600083815260200190815260200160002060070160009054906101000a900473ffffffffffffffffffffffffffffffffffffffff169050919050565b6000600a600084815260200190815260200160002090508060000160009054906101000a900460ff161561125e576040517f08c379a000000000000000000000000000000000000000000000000000000000815260040161125590613a8e565b60405180910390fd5b61126661154d565b73ffffffffffffffffffffffffffffffffffffffff163373ffffffffffffffffffffffffffffffffffffffff161461129d57600080fd5b6001600a600085815260200190815260200160002060000160006101000a81548160ff02191690831515021790555081600a600085815260200190815260200160002060040160006101000a81548173ffffffffffffffffffffffffffffffffffffffff021916908373ffffffffffffffffffffffffffffffffffffffff16021790555061132b8383612100565b505050565b6000600a600084815260200190815260200160002060000160009054906101000a900460ff16611395576040517f08c379a000000000000000000000000000000000000000000000000000000000815260040161138c90613afa565b60405180910390fd5b600066038d7ea4c680006113a88561173e565b6113b29190613731565b9050803410156113f7576040517f08c379a00000000000000000000000000000000000000000000000000000000081526004016113ee90613b8c565b60405180910390fd5b600060646050836114089190613731565b6114129190613bac565b9050600081836114229190613bdd565b90506000600a600088815260200190815260200160002060040160009054906101000a900473ffffffffffffffffffffffffffffffffffffffff1690506114698787612100565b8073ffffffffffffffffffffffffffffffffffffffff166108fc849081150290604051600060405180830381858888f193505050501580156114af573d6000803e3d6000fd5b506114b861154d565b73ffffffffffffffffffffffffffffffffffffffff166108fc839081150290604051600060405180830381858888f193505050501580156114fd573d6000803e3d6000fd5b50600860008773ffffffffffffffffffffffffffffffffffffffff1673ffffffffffffffffffffffffffffffffffffffff1681526020019081526020016000206004015494505050505092915050565b60008060009054906101000a900473ffffffffffffffffffffffffffffffffffffffff16905090565b60606002805461158590613489565b80601f01602080910402602001604051908101604052809291908181526020018280546115b190613489565b80156115fe5780601f106115d3576101008083540402835291602001916115fe565b820191906000526020600020905b8154815290600101906020018083116115e157829003601f168201915b5050505050905090565b6000600c54826116189190613bac565b9050919050565b61163161162a611bdb565b838361241d565b5050565b611646611640611bdb565b83611c9c565b611685576040517f08c379a000000000000000000000000000000000000000000000000000000000815260040161167c906136e2565b60405180910390fd5b61169184848484611fe0565b50505050565b60606116a282611b6f565b6116e1576040517f08c379a00000000000000000000000000000000000000000000000000000000081526004016116d890613c83565b60405180910390fd5b60006116eb612589565b9050600081511161170b5760405180602001604052806000815250611736565b80611715846125a0565b604051602001611726929190613cdf565b6040516020818303038152906040525b915050919050565b6000600a600083815260200190815260200160002060000160009054906101000a900460ff166117a3576040517f08c379a000000000000000000000000000000000000000000000000000000000815260040161179a90613d4f565b60405180910390fd5b6000600a90506000603290506000600a6000868152602001908152602001600020600201549050600082826117d89190613bac565b90508060026117e79190613ea2565b846117f29190613731565b945050505050919050565b611805612bc4565b60096000838152602001908152602001600020604051806101200160405290816000820160009054906101000a900460ff1615151515815260200160018201548152602001600282015481526020016003820154815260200160048201548152602001600582015481526020016006820160009054906101000a900473ffffffffffffffffffffffffffffffffffffffff1673ffffffffffffffffffffffffffffffffffffffff1673ffffffffffffffffffffffffffffffffffffffff1681526020016007820160009054906101000a900473ffffffffffffffffffffffffffffffffffffffff1673ffffffffffffffffffffffffffffffffffffffff1673ffffffffffffffffffffffffffffffffffffffff1681526020016008820160009054906101000a900473ffffffffffffffffffffffffffffffffffffffff1673ffffffffffffffffffffffffffffffffffffffff1673ffffffffffffffffffffffffffffffffffffffff16815250509050919050565b6000600660008473ffffffffffffffffffffffffffffffffffffffff1673ffffffffffffffffffffffffffffffffffffffff16815260200190815260200160002060008373ffffffffffffffffffffffffffffffffffffffff1673ffffffffffffffffffffffffffffffffffffffff16815260200190815260200160002060009054906101000a900460ff16905092915050565b611a16611bdb565b73ffffffffffffffffffffffffffffffffffffffff16611a3461154d565b73ffffffffffffffffffffffffffffffffffffffff1614611a8a576040517f08c379a0000000000000000000000000000000000000000000000000000000008152600401611a8190613a22565b60405180910390fd5b600073ffffffffffffffffffffffffffffffffffffffff168173ffffffffffffffffffffffffffffffffffffffff1603611af9576040517f08c379a0000000000000000000000000000000000000000000000000000000008152600401611af090613f5f565b60405180910390fd5b611b028161203c565b50565b60007f01ffc9a7000000000000000000000000000000000000000000000000000000007bffffffffffffffffffffffffffffffffffffffffffffffffffffffff1916827bffffffffffffffffffffffffffffffffffffffffffffffffffffffff1916149050919050565b60008073ffffffffffffffffffffffffffffffffffffffff166003600084815260200190815260200160002060009054906101000a900473ffffffffffffffffffffffffffffffffffffffff1673ffffffffffffffffffffffffffffffffffffffff1614159050919050565b600033905090565b816005600083815260200190815260200160002060006101000a81548173ffffffffffffffffffffffffffffffffffffffff021916908373ffffffffffffffffffffffffffffffffffffffff160217905550808273ffffffffffffffffffffffffffffffffffffffff16611c5683610eb4565b73ffffffffffffffffffffffffffffffffffffffff167f8c5be1e5ebec7d5bd14f71427d1e84f3dd0314c0f7b2291e5b200ac8c7c3b92560405160405180910390a45050565b6000611ca782611b6f565b611ce6576040517f08c379a0000000000000000000000000000000000000000000000000000000008152600401611cdd90613ff1565b60405180910390fd5b6000611cf183610eb4565b90508073ffffffffffffffffffffffffffffffffffffffff168473ffffffffffffffffffffffffffffffffffffffff161480611d335750611d32818561197a565b5b80611d7157508373ffffffffffffffffffffffffffffffffffffffff16611d598461083a565b73ffffffffffffffffffffffffffffffffffffffff16145b91505092915050565b8273ffffffffffffffffffffffffffffffffffffffff16611d9a82610eb4565b73ffffffffffffffffffffffffffffffffffffffff1614611df0576040517f08c379a0000000000000000000000000000000000000000000000000000000008152600401611de790614083565b60405180910390fd5b600073ffffffffffffffffffffffffffffffffffffffff168273ffffffffffffffffffffffffffffffffffffffff1603611e5f576040517f08c379a0000000000000000000000000000000000000000000000000000000008152600401611e5690614115565b60405180910390fd5b611e6a838383612700565b611e75600082611be3565b6001600460008573ffffffffffffffffffffffffffffffffffffffff1673ffffffffffffffffffffffffffffffffffffffff1681526020019081526020016000206000828254611ec59190613bdd565b925050819055506001600460008473ffffffffffffffffffffffffffffffffffffffff1673ffffffffffffffffffffffffffffffffffffffff1681526020019081526020016000206000828254611f1c919061378b565b92505081905550816003600083815260200190815260200160002060006101000a81548173ffffffffffffffffffffffffffffffffffffffff021916908373ffffffffffffffffffffffffffffffffffffffff160217905550808273ffffffffffffffffffffffffffffffffffffffff168473ffffffffffffffffffffffffffffffffffffffff167fddf252ad1be2c89b69c2b068fc378daa952ba7f163c4a11628f55a4df523b3ef60405160405180910390a4611fdb838383612705565b505050565b611feb848484611d7a565b611ff78484848461270a565b612036576040517f08c379a000000000000000000000000000000000000000000000000000000000815260040161202d906141a7565b60405180910390fd5b50505050565b60008060009054906101000a900473ffffffffffffffffffffffffffffffffffffffff169050816000806101000a81548173ffffffffffffffffffffffffffffffffffffffff021916908373ffffffffffffffffffffffffffffffffffffffff1602179055508173ffffffffffffffffffffffffffffffffffffffff168173ffffffffffffffffffffffffffffffffffffffff167f8be0079c531659141344cd1fd0a4f28419497f9722a3daafe3b4186f6b6457e060405160405180910390a35050565b600a600083815260200190815260200160002060000160009054906101000a900460ff1661212d57600080fd5b6000600a600084815260200190815260200160002060020154905060006121548483610a36565b9050600060096000838152602001908152602001600020905060018160000160006101000a81548160ff021916908315150217905550848160010181905550828160020181905550838160060160006101000a81548173ffffffffffffffffffffffffffffffffffffffff021916908373ffffffffffffffffffffffffffffffffffffffff160217905550838160070160006101000a81548173ffffffffffffffffffffffffffffffffffffffff021916908373ffffffffffffffffffffffffffffffffffffffff1602179055506000600860008673ffffffffffffffffffffffffffffffffffffffff1673ffffffffffffffffffffffffffffffffffffffff16815260200190815260200160002090508060000160009054906101000a900460ff1661228e5761228485612891565b8281600301819055505b600080826001015414159050801561230d576000600860008873ffffffffffffffffffffffffffffffffffffffff1673ffffffffffffffffffffffffffffffffffffffff168152602001908152602001600020600401549050846009600083815260200190815260200160002060040181905550808460050181905550505b838260040181905550816002016000888152602001908152602001600020600081548092919061233c906137e1565b9190505550816001016000815480929190612356906137e1565b9190505550600a60008881526020019081526020016000206002016000815480929190612382906137e1565b9190505550600a600088815260200190815260200160002060050160008773ffffffffffffffffffffffffffffffffffffffff1673ffffffffffffffffffffffffffffffffffffffff16815260200190815260200160002060008154809291906123eb906137e1565b91905055506001600b6000828254612403919061378b565b92505081905550612414338561294f565b50505050505050565b8173ffffffffffffffffffffffffffffffffffffffff168373ffffffffffffffffffffffffffffffffffffffff160361248b576040517f08c379a000000000000000000000000000000000000000000000000000000000815260040161248290614213565b60405180910390fd5b80600660008573ffffffffffffffffffffffffffffffffffffffff1673ffffffffffffffffffffffffffffffffffffffff16815260200190815260200160002060008473ffffffffffffffffffffffffffffffffffffffff1673ffffffffffffffffffffffffffffffffffffffff16815260200190815260200160002060006101000a81548160ff0219169083151502179055508173ffffffffffffffffffffffffffffffffffffffff168373ffffffffffffffffffffffffffffffffffffffff167f17307eab39ab6107e8899845ad3d59bd9653f200f220920489ca2b5937696c318360405161257c9190612d08565b60405180910390a3505050565b606060405180602001604052806000815250905090565b6060600082036125e7576040518060400160405280600181526020017f300000000000000000000000000000000000000000000000000000000000000081525090506126fb565b600082905060005b60008214612619578080612602906137e1565b915050600a826126129190613bac565b91506125ef565b60008167ffffffffffffffff8111156126355761263461316c565b5b6040519080825280601f01601f1916602001820160405280156126675781602001600182028036833780820191505090505b5090505b600085146126f4576001826126809190613bdd565b9150600a8561268f9190613913565b603061269b919061378b565b60f81b8183815181106126b1576126b0614233565b5b60200101907effffffffffffffffffffffffffffffffffffffffffffffffffffffffffffff1916908160001a905350600a856126ed9190613bac565b945061266b565b8093505050505b919050565b505050565b505050565b600061272b8473ffffffffffffffffffffffffffffffffffffffff1661296d565b15612884578373ffffffffffffffffffffffffffffffffffffffff1663150b7a02612754611bdb565b8786866040518563ffffffff1660e01b815260040161277694939291906142b7565b6020604051808303816000875af19250505080156127b257506040513d601f19601f820116820180604052508101906127af9190614318565b60015b612834573d80600081146127e2576040519150601f19603f3d011682016040523d82523d6000602084013e6127e7565b606091505b50600081510361282c576040517f08c379a0000000000000000000000000000000000000000000000000000000008152600401612823906141a7565b60405180910390fd5b805181602001fd5b63150b7a0260e01b7bffffffffffffffffffffffffffffffffffffffffffffffffffffffff1916817bffffffffffffffffffffffffffffffffffffffffffffffffffffffff191614915050612889565b600190505b949350505050565b6000600860008373ffffffffffffffffffffffffffffffffffffffff1673ffffffffffffffffffffffffffffffffffffffff16815260200190815260200160002090508060000160009054906101000a900460ff1661294b5760018160000160006101000a81548160ff021916908315150217905550818160000160016101000a81548173ffffffffffffffffffffffffffffffffffffffff021916908373ffffffffffffffffffffffffffffffffffffffff1602179055505b5050565b612969828260405180602001604052806000815250612990565b5050565b6000808273ffffffffffffffffffffffffffffffffffffffff163b119050919050565b61299a83836129eb565b6129a7600084848461270a565b6129e6576040517f08c379a00000000000000000000000000000000000000000000000000000000081526004016129dd906141a7565b60405180910390fd5b505050565b600073ffffffffffffffffffffffffffffffffffffffff168273ffffffffffffffffffffffffffffffffffffffff1603612a5a576040517f08c379a0000000000000000000000000000000000000000000000000000000008152600401612a5190614391565b60405180910390fd5b612a6381611b6f565b15612aa3576040517f08c379a0000000000000000000000000000000000000000000000000000000008152600401612a9a906143fd565b60405180910390fd5b612aaf60008383612700565b6001600460008473ffffffffffffffffffffffffffffffffffffffff1673ffffffffffffffffffffffffffffffffffffffff1681526020019081526020016000206000828254612aff919061378b565b92505081905550816003600083815260200190815260200160002060006101000a81548173ffffffffffffffffffffffffffffffffffffffff021916908373ffffffffffffffffffffffffffffffffffffffff160217905550808273ffffffffffffffffffffffffffffffffffffffff16600073ffffffffffffffffffffffffffffffffffffffff167fddf252ad1be2c89b69c2b068fc378daa952ba7f163c4a11628f55a4df523b3ef60405160405180910390a4612bc060008383612705565b5050565b6040518061012001604052806000151581526020016000815260200160008152602001600081526020016000815260200160008152602001600073ffffffffffffffffffffffffffffffffffffffff168152602001600073ffffffffffffffffffffffffffffffffffffffff168152602001600073ffffffffffffffffffffffffffffffffffffffff1681525090565b6000604051905090565b600080fd5b600080fd5b60007fffffffff0000000000000000000000000000000000000000000000000000000082169050919050565b612c9d81612c68565b8114612ca857600080fd5b50565b600081359050612cba81612c94565b92915050565b600060208284031215612cd657612cd5612c5e565b5b6000612ce484828501612cab565b91505092915050565b60008115159050919050565b612d0281612ced565b82525050565b6000602082019050612d1d6000830184612cf9565b92915050565b600081519050919050565b600082825260208201905092915050565b60005b83811015612d5d578082015181840152602081019050612d42565b83811115612d6c576000848401525b50505050565b6000601f19601f8301169050919050565b6000612d8e82612d23565b612d988185612d2e565b9350612da8818560208601612d3f565b612db181612d72565b840191505092915050565b60006020820190508181036000830152612dd68184612d83565b905092915050565b6000819050919050565b612df181612dde565b8114612dfc57600080fd5b50565b600081359050612e0e81612de8565b92915050565b600060208284031215612e2a57612e29612c5e565b5b6000612e3884828501612dff565b91505092915050565b600073ffffffffffffffffffffffffffffffffffffffff82169050919050565b6000612e6c82612e41565b9050919050565b612e7c81612e61565b82525050565b6000602082019050612e976000830184612e73565b92915050565b612ea681612e61565b8114612eb157600080fd5b50565b600081359050612ec381612e9d565b92915050565b60008060408385031215612ee057612edf612c5e565b5b6000612eee85828601612eb4565b9250506020612eff85828601612dff565b9150509250929050565b600080600060608486031215612f2257612f21612c5e565b5b6000612f3086828701612eb4565b9350506020612f4186828701612eb4565b9250506040612f5286828701612dff565b9150509250925092565b60008060408385031215612f7357612f72612c5e565b5b6000612f8185828601612dff565b9250506020612f9285828601612dff565b9150509250929050565b612fa581612dde565b82525050565b6000602082019050612fc06000830184612f9c565b92915050565b600060208284031215612fdc57612fdb612c5e565b5b6000612fea84828501612eb4565b91505092915050565b60006080820190506130086000830187612cf9565b6130156020830186612f9c565b6130226040830185612f9c565b61302f6060830184612f9c565b95945050505050565b600061304382612e41565b9050919050565b61305381613038565b811461305e57600080fd5b50565b6000813590506130708161304a565b92915050565b6000806040838503121561308d5761308c612c5e565b5b600061309b85828601612dff565b92505060206130ac85828601613061565b9150509250929050565b600080604083850312156130cd576130cc612c5e565b5b60006130db85828601612dff565b92505060206130ec85828601612eb4565b9150509250929050565b6130ff81612ced565b811461310a57600080fd5b50565b60008135905061311c816130f6565b92915050565b6000806040838503121561313957613138612c5e565b5b600061314785828601612eb4565b92505060206131588582860161310d565b9150509250929050565b600080fd5b600080fd5b7f4e487b7100000000000000000000000000000000000000000000000000000000600052604160045260246000fd5b6131a482612d72565b810181811067ffffffffffffffff821117156131c3576131c261316c565b5b80604052505050565b60006131d6612c54565b90506131e2828261319b565b919050565b600067ffffffffffffffff8211156132025761320161316c565b5b61320b82612d72565b9050602081019050919050565b82818337600083830152505050565b600061323a613235846131e7565b6131cc565b90508281526020810184848401111561325657613255613167565b5b613261848285613218565b509392505050565b600082601f83011261327e5761327d613162565b5b813561328e848260208601613227565b91505092915050565b600080600080608085870312156132b1576132b0612c5e565b5b60006132bf87828801612eb4565b94505060206132d087828801612eb4565b93505060406132e187828801612dff565b925050606085013567ffffffffffffffff81111561330257613301612c63565b5b61330e87828801613269565b91505092959194509250565b61332381612ced565b82525050565b61333281612dde565b82525050565b61334181612e61565b82525050565b6101208201600082015161335e600085018261331a565b5060208201516133716020850182613329565b5060408201516133846040850182613329565b5060608201516133976060850182613329565b5060808201516133aa6080850182613329565b5060a08201516133bd60a0850182613329565b5060c08201516133d060c0850182613338565b5060e08201516133e360e0850182613338565b506101008201516133f8610100850182613338565b50505050565b6000610120820190506134146000830184613347565b92915050565b6000806040838503121561343157613430612c5e565b5b600061343f85828601612eb4565b925050602061345085828601612eb4565b9150509250929050565b7f4e487b7100000000000000000000000000000000000000000000000000000000600052602260045260246000fd5b600060028204905060018216806134a157607f821691505b6020821081036134b4576134b361345a565b5b50919050565b7f4552433732313a20617070726f76656420717565727920666f72206e6f6e657860008201527f697374656e7420746f6b656e0000000000000000000000000000000000000000602082015250565b6000613516602c83612d2e565b9150613521826134ba565b604082019050919050565b6000602082019050818103600083015261354581613509565b9050919050565b7f4552433732313a20617070726f76616c20746f2063757272656e74206f776e6560008201527f7200000000000000000000000000000000000000000000000000000000000000602082015250565b60006135a8602183612d2e565b91506135b38261354c565b604082019050919050565b600060208201905081810360008301526135d78161359b565b9050919050565b7f4552433732313a20617070726f76652063616c6c6572206973206e6f74206f7760008201527f6e6572206e6f7220617070726f76656420666f7220616c6c0000000000000000602082015250565b600061363a603883612d2e565b9150613645826135de565b604082019050919050565b600060208201905081810360008301526136698161362d565b9050919050565b7f4552433732313a207472616e736665722063616c6c6572206973206e6f74206f60008201527f776e6572206e6f7220617070726f766564000000000000000000000000000000602082015250565b60006136cc603183612d2e565b91506136d782613670565b604082019050919050565b600060208201905081810360008301526136fb816136bf565b9050919050565b7f4e487b7100000000000000000000000000000000000000000000000000000000600052601160045260246000fd5b600061373c82612dde565b915061374783612dde565b9250817fffffffffffffffffffffffffffffffffffffffffffffffffffffffffffffffff04831182151516156137805761377f613702565b5b828202905092915050565b600061379682612dde565b91506137a183612dde565b9250827fffffffffffffffffffffffffffffffffffffffffffffffffffffffffffffffff038211156137d6576137d5613702565b5b828201905092915050565b60006137ec82612dde565b91507fffffffffffffffffffffffffffffffffffffffffffffffffffffffffffffffff820361381e5761381d613702565b5b600182019050919050565b600061383482612dde565b91506000820361384757613846613702565b5b600182039050919050565b7f4552433732313a206f776e657220717565727920666f72206e6f6e657869737460008201527f656e7420746f6b656e0000000000000000000000000000000000000000000000602082015250565b60006138ae602983612d2e565b91506138b982613852565b604082019050919050565b600060208201905081810360008301526138dd816138a1565b9050919050565b7f4e487b7100000000000000000000000000000000000000000000000000000000600052601260045260246000fd5b600061391e82612dde565b915061392983612dde565b925082613939576139386138e4565b5b828206905092915050565b7f4552433732313a2062616c616e636520717565727920666f7220746865207a6560008201527f726f206164647265737300000000000000000000000000000000000000000000602082015250565b60006139a0602a83612d2e565b91506139ab82613944565b604082019050919050565b600060208201905081810360008301526139cf81613993565b9050919050565b7f4f776e61626c653a2063616c6c6572206973206e6f7420746865206f776e6572600082015250565b6000613a0c602083612d2e565b9150613a17826139d6565b602082019050919050565b60006020820190508181036000830152613a3b816139ff565b9050919050565b7f5075626c69636174696f6e206d696e746564206265666f72652e000000000000600082015250565b6000613a78601a83612d2e565b9150613a8382613a42565b602082019050919050565b60006020820190508181036000830152613aa781613a6b565b9050919050565b7f426f6f6b20646f65736e27742065786973740000000000000000000000000000600082015250565b6000613ae4601283612d2e565b9150613aef82613aae565b602082019050919050565b60006020820190508181036000830152613b1381613ad7565b9050919050565b7f496e73756666696369656e742066756e64732e20506c6561736520636865636b60008201527f2070726963652e00000000000000000000000000000000000000000000000000602082015250565b6000613b76602783612d2e565b9150613b8182613b1a565b604082019050919050565b60006020820190508181036000830152613ba581613b69565b9050919050565b6000613bb782612dde565b9150613bc283612dde565b925082613bd257613bd16138e4565b5b828204905092915050565b6000613be882612dde565b9150613bf383612dde565b925082821015613c0657613c05613702565b5b828203905092915050565b7f4552433732314d657461646174613a2055524920717565727920666f72206e6f60008201527f6e6578697374656e7420746f6b656e0000000000000000000000000000000000602082015250565b6000613c6d602f83612d2e565b9150613c7882613c11565b604082019050919050565b60006020820190508181036000830152613c9c81613c60565b9050919050565b600081905092915050565b6000613cb982612d23565b613cc38185613ca3565b9350613cd3818560208601612d3f565b80840191505092915050565b6000613ceb8285613cae565b9150613cf78284613cae565b91508190509392505050565b7f54426f6f6b20646f6573206e6f74206578697374000000000000000000000000600082015250565b6000613d39601483612d2e565b9150613d4482613d03565b602082019050919050565b60006020820190508181036000830152613d6881613d2c565b9050919050565b60008160011c9050919050565b6000808291508390505b6001851115613dc657808604811115613da257613da1613702565b5b6001851615613db15780820291505b8081029050613dbf85613d6f565b9450613d86565b94509492505050565b600082613ddf5760019050613e9b565b81613ded5760009050613e9b565b8160018114613e035760028114613e0d57613e3c565b6001915050613e9b565b60ff841115613e1f57613e1e613702565b5b8360020a915084821115613e3657613e35613702565b5b50613e9b565b5060208310610133831016604e8410600b8410161715613e715782820a905083811115613e6c57613e6b613702565b5b613e9b565b613e7e8484846001613d7c565b92509050818404811115613e9557613e94613702565b5b81810290505b9392505050565b6000613ead82612dde565b9150613eb883612dde565b9250613ee57fffffffffffffffffffffffffffffffffffffffffffffffffffffffffffffffff8484613dcf565b905092915050565b7f4f776e61626c653a206e6577206f776e657220697320746865207a65726f206160008201527f6464726573730000000000000000000000000000000000000000000000000000602082015250565b6000613f49602683612d2e565b9150613f5482613eed565b604082019050919050565b60006020820190508181036000830152613f7881613f3c565b9050919050565b7f4552433732313a206f70657261746f7220717565727920666f72206e6f6e657860008201527f697374656e7420746f6b656e0000000000000000000000000000000000000000602082015250565b6000613fdb602c83612d2e565b9150613fe682613f7f565b604082019050919050565b6000602082019050818103600083015261400a81613fce565b9050919050565b7f4552433732313a207472616e736665722066726f6d20696e636f72726563742060008201527f6f776e6572000000000000000000000000000000000000000000000000000000602082015250565b600061406d602583612d2e565b915061407882614011565b604082019050919050565b6000602082019050818103600083015261409c81614060565b9050919050565b7f4552433732313a207472616e7366657220746f20746865207a65726f2061646460008201527f7265737300000000000000000000000000000000000000000000000000000000602082015250565b60006140ff602483612d2e565b915061410a826140a3565b604082019050919050565b6000602082019050818103600083015261412e816140f2565b9050919050565b7f4552433732313a207472616e7366657220746f206e6f6e20455243373231526560008201527f63656976657220696d706c656d656e7465720000000000000000000000000000602082015250565b6000614191603283612d2e565b915061419c82614135565b604082019050919050565b600060208201905081810360008301526141c081614184565b9050919050565b7f4552433732313a20617070726f766520746f2063616c6c657200000000000000600082015250565b60006141fd601983612d2e565b9150614208826141c7565b602082019050919050565b6000602082019050818103600083015261422c816141f0565b9050919050565b7f4e487b7100000000000000000000000000000000000000000000000000000000600052603260045260246000fd5b600081519050919050565b600082825260208201905092915050565b600061428982614262565b614293818561426d565b93506142a3818560208601612d3f565b6142ac81612d72565b840191505092915050565b60006080820190506142cc6000830187612e73565b6142d96020830186612e73565b6142e66040830185612f9c565b81810360608301526142f8818461427e565b905095945050505050565b60008151905061431281612c94565b92915050565b60006020828403121561432e5761432d612c5e565b5b600061433c84828501614303565b91505092915050565b7f4552433732313a206d696e7420746f20746865207a65726f2061646472657373600082015250565b600061437b602083612d2e565b915061438682614345565b602082019050919050565b600060208201905081810360008301526143aa8161436e565b9050919050565b7f4552433732313a20746f6b656e20616c7265616479206d696e74656400000000600082015250565b60006143e7601c83612d2e565b91506143f2826143b1565b602082019050919050565b60006020820190508181036000830152614416816143da565b905091905056fea26469706673582212202c4090513a0c5efc5130a15bd7833e11cf975f367b58c3bb44a21afe8a92d17864736f6c634300080d0033",
  "immutableReferences": {},
  "source": "// SPDX-License-Identifier: MIT\npragma solidity ^0.8.0;\n\nimport \"@openzeppelin/contracts/token/ERC721/ERC721.sol\";\nimport \"@openzeppelin/contracts/access/Ownable.sol\";\n\ncontract TBookFactory is Ownable, ERC721 {\n    // A Copy of a Book\n    struct CopyInfo {\n        // Basics\n        bool exists;\n        uint256 tbsn;\n        uint256 copyNumber;\n        uint256 numTransactions; // How many times sold/transacted\n        // Linked List info;\n        uint256 nextLinkId;\n        uint256 prevLinkId;\n        // Holder Info\n        address initHolder; // Who minted this\n        address currentHolder;\n        address lastHolder; // Who was the last person to hold this NFT\n    }\n    // A Single Book\n    struct TBookInfo {\n        bool exists;\n        uint256 tbsn;\n        uint256 numCopies; // Max 10 ** 12 copies\n        uint256 mintPrice;\n        address payable author;\n        mapping(address => uint256) collectors;\n    }\n\n    // A Single User\n    struct UserInfo {\n        bool exists;\n        address userAddress;\n        uint256 collectionSize;\n        mapping(uint256 => uint256) bookToCopies; // Maps TBSN to whether the number of copies the user has collected.\n        // LinkedList Info\n        uint256 firstLinkId;\n        uint256 lastLinkId;\n    }\n\n    uint256 numUsers;\n    mapping(address => UserInfo) addressToUser;\n\n    // This ID is the NFT ID, is completely seperate from TBSN and Copy Number\n    mapping(uint256 => CopyInfo) idToCopy;\n\n    // Maps TBSN to TBook Info\n    mapping(uint256 => TBookInfo) tbsnToBook;\n\n    uint256 totalCopies;\n\n    // Max copies of a single TBook\n    uint256 private _maxCopies;\n\n    constructor() ERC721(\"TBook\", \"TBK\") {\n        _maxCopies = 10**9;\n    }\n\n    // -------- Test functions -----------\n    function getOwnerOf(uint256 tokenId) public view returns (address) {\n        return idToCopy[tokenId].currentHolder;\n    }\n\n    // -----------------------------------\n\n    /**\n    Gets the ID from the TBSN and the Copy Number\n    Copy 1 of 75025 would be 75025000000001\n     */\n    function getId(uint256 tbsn, uint256 copyNumber)\n        public\n        view\n        returns (uint256)\n    {\n        uint256 id = tbsn * (_maxCopies);\n        id += copyNumber;\n        return id;\n    }\n\n    function tbsnFromId(uint256 id) public view returns (uint256) {\n        return id / _maxCopies;\n    }\n\n    function copyNumberFromId(uint256 id) public view returns (uint256) {\n        return id % _maxCopies;\n    }\n\n    function createUser(address userAddress) internal {\n        UserInfo storage newUser = addressToUser[userAddress];\n        if (!newUser.exists) {\n            newUser.exists = true;\n            newUser.userAddress = userAddress;\n        }\n    }\n\n    function isUserHolder(address userAddress) public view returns (bool) {\n        UserInfo storage user = addressToUser[userAddress];\n        if (user.exists && user.collectionSize > 0) {\n            return true;\n        } else {\n            return false;\n        }\n    }\n\n    // Mint a copy of the book\n    function mint(uint256 tbsn, address mintAddress) internal {\n        require(tbsnToBook[tbsn].exists);\n        uint256 currentCopy = tbsnToBook[tbsn].numCopies;\n\n        // Generate the ID from the TBSN + Copy Number\n        uint256 id = getId(tbsn, currentCopy);\n\n        // Update CopyInfo\n        CopyInfo storage mintCopy = idToCopy[id];\n        mintCopy.exists = true;\n        mintCopy.tbsn = tbsn;\n        mintCopy.copyNumber = currentCopy;\n        mintCopy.initHolder = mintAddress;\n        mintCopy.currentHolder = mintAddress;\n\n        // Update UserInfo\n        UserInfo storage mintUser = addressToUser[mintAddress];\n        if (!mintUser.exists) {\n            // Init userInfo\n            createUser(mintAddress);\n            mintUser.firstLinkId = id;\n        }\n\n        // Update the LinkedList\n        bool hasCollected = mintUser.collectionSize != 0;\n        if (hasCollected) {\n            uint256 lastLink = addressToUser[mintAddress].lastLinkId;\n            idToCopy[lastLink].nextLinkId = id;\n            mintCopy.prevLinkId = lastLink;\n        }\n        mintUser.lastLinkId = id;\n        mintUser.bookToCopies[tbsn]++;\n        mintUser.collectionSize++;\n\n        // Update BookInfo\n        tbsnToBook[tbsn].numCopies++;\n        tbsnToBook[tbsn].collectors[mintAddress]++;\n\n        totalCopies += 1;\n        _safeMint(msg.sender, id);\n    }\n\n    function safeTransferFrom(\n        address from,\n        address to,\n        uint256 tokenId\n    ) public override {\n        uint256 tbsn = tbsnFromId(tokenId);\n        require(\n            (tbsnToBook[tbsn].collectors[from] > 0) &&\n                (addressToUser[from].bookToCopies[tbsn] > 0)\n        );\n\n        // Update CopyInfo\n        CopyInfo storage bookCopy = idToCopy[tokenId];\n        bookCopy.lastHolder = from;\n        bookCopy.currentHolder = to;\n        bookCopy.numTransactions++;\n\n        // Update TBookInfo\n        TBookInfo storage tbookInfo = tbsnToBook[tbsn];\n        tbookInfo.collectors[from]--;\n        tbookInfo.collectors[to]++;\n\n        // Update UserInfo\n        UserInfo storage fromUser = addressToUser[from];\n        UserInfo storage toUser = addressToUser[to];\n\n        fromUser.bookToCopies[tbsn]--;\n        fromUser.collectionSize--;\n        toUser.bookToCopies[tbsn]++;\n        toUser.collectionSize++;\n\n        // Handle Linked List Stuff\n\n        // Detach step\n        uint256 fromLinkPrev = bookCopy.prevLinkId;\n        uint256 fromLinkNext = bookCopy.nextLinkId;\n        if (fromLinkPrev == 0) {\n            // First book of the user\n            fromUser.firstLinkId = fromLinkNext;\n        } else {\n            idToCopy[fromLinkPrev].nextLinkId = fromLinkNext;\n        }\n        if (fromLinkNext == 0) {\n            fromUser.lastLinkId = fromLinkPrev;\n        }\n\n        // Attach step\n        uint256 toLastLink = toUser.lastLinkId;\n        bookCopy.prevLinkId = toLastLink;\n        bookCopy.nextLinkId = 0;\n        if (toLastLink == 0) {\n            toUser.firstLinkId = tokenId;\n        } else {\n            idToCopy[toLastLink].nextLinkId = tokenId;\n        }\n        toUser.lastLinkId = tokenId;\n\n        _safeTransfer(from, to, tokenId, \" \");\n    }\n\n    function getPrice(uint256 tbsn) public view returns (uint256) {\n        require(tbsnToBook[tbsn].exists, \"TBook does not exist\");\n        uint256 floor = 10;\n        uint256 step = 50;\n        uint256 copies = tbsnToBook[tbsn].numCopies;\n        uint256 power = copies / step;\n        return floor * (2**power); // returns in finneys\n    }\n\n    function collect(uint256 tbsn, address collector)\n        public\n        payable\n        returns (uint256)\n    {\n        // Check if tbsn exists\n        require(tbsnToBook[tbsn].exists, \"Book doesn't exist\");\n\n        uint256 priceWei = getPrice(tbsn) * (10**15); // convert to Wei\n        require(\n            msg.value >= priceWei,\n            \"Insufficient funds. Please check price.\"\n        );\n        uint256 authorPay = (priceWei * 80) / 100;\n        uint256 platformPay = priceWei - authorPay;\n        address payable author = tbsnToBook[tbsn].author;\n        mint(tbsn, collector);\n        author.transfer(authorPay);\n        payable(owner()).transfer(platformPay);\n        return addressToUser[collector].lastLinkId;\n    }\n\n    function publish(uint256 tbsn, address payable author) external {\n        // Use an oracle to check that this is a valid call with correct author (valid tbsn)\n        // TODO\n        TBookInfo storage book = tbsnToBook[tbsn];\n        require(!book.exists, \"Publication minted before.\");\n        // Only the Foundation can Publish\n        require(msg.sender == owner());\n        // Update BookInfo\n        tbsnToBook[tbsn].exists = true;\n        tbsnToBook[tbsn].author = author;\n        // Free mint for the author\n        mint(tbsn, author);\n    }\n\n    // ----------------------------\n    // Public Gets\n    // Can use this in order to iterate through an entire user's collection\n    function getCopyInfo(uint256 id) external view returns (CopyInfo memory) {\n        return idToCopy[id];\n    }\n\n    function getUserInfo(address userAddress)\n        public\n        view\n        returns (\n            bool,\n            uint256,\n            uint256,\n            uint256\n        )\n    {\n        UserInfo storage info = addressToUser[userAddress];\n        return (\n            info.exists,\n            info.collectionSize,\n            info.firstLinkId,\n            info.lastLinkId\n        );\n    }\n}\n",
  "sourcePath": "/Users/jayyu/Documents/OneDrive - Stanford/Work/Projects/TSalon/prototypes/tsalon-nft/contracts/TBookFactory.sol",
  "compiler": {
    "name": "solc",
    "version": "0.8.13+commit.abaa5c0e.Emscripten.clang"
  },
  "schemaVersion": "3.4.7",
  "updatedAt": "2022-07-20T06:06:32.840Z",
  "networkType": "ethereum",
  "devdoc": {
    "kind": "dev",
    "methods": {
      "approve(address,uint256)": {
        "details": "See {IERC721-approve}."
      },
      "balanceOf(address)": {
        "details": "See {IERC721-balanceOf}."
      },
      "getApproved(uint256)": {
        "details": "See {IERC721-getApproved}."
      },
      "isApprovedForAll(address,address)": {
        "details": "See {IERC721-isApprovedForAll}."
      },
      "name()": {
        "details": "See {IERC721Metadata-name}."
      },
      "owner()": {
        "details": "Returns the address of the current owner."
      },
      "ownerOf(uint256)": {
        "details": "See {IERC721-ownerOf}."
      },
      "renounceOwnership()": {
        "details": "Leaves the contract without owner. It will not be possible to call `onlyOwner` functions anymore. Can only be called by the current owner. NOTE: Renouncing ownership will leave the contract without an owner, thereby removing any functionality that is only available to the owner."
      },
      "safeTransferFrom(address,address,uint256)": {
        "details": "See {IERC721-safeTransferFrom}."
      },
      "safeTransferFrom(address,address,uint256,bytes)": {
        "details": "See {IERC721-safeTransferFrom}."
      },
      "setApprovalForAll(address,bool)": {
        "details": "See {IERC721-setApprovalForAll}."
      },
      "supportsInterface(bytes4)": {
        "details": "See {IERC165-supportsInterface}."
      },
      "symbol()": {
        "details": "See {IERC721Metadata-symbol}."
      },
      "tokenURI(uint256)": {
        "details": "See {IERC721Metadata-tokenURI}."
      },
      "transferFrom(address,address,uint256)": {
        "details": "See {IERC721-transferFrom}."
      },
      "transferOwnership(address)": {
        "details": "Transfers ownership of the contract to a new account (`newOwner`). Can only be called by the current owner."
      }
    },
    "version": 1
  },
  "userdoc": {
    "kind": "user",
    "methods": {
      "getId(uint256,uint256)": {
        "notice": "Gets the ID from the TBSN and the Copy Number Copy 1 of 75025 would be 75025000000001"
      }
    },
    "version": 1
  }
}