{
  "contractName": "TBookFactory",
  "abi": [
    {
      "inputs": [],
      "stateMutability": "nonpayable",
      "type": "constructor"
    },
    {
      "anonymous": false,
      "inputs": [
        {
          "indexed": true,
          "internalType": "address",
          "name": "owner",
          "type": "address"
        },
        {
          "indexed": true,
          "internalType": "address",
          "name": "approved",
          "type": "address"
        },
        {
          "indexed": true,
          "internalType": "uint256",
          "name": "tokenId",
          "type": "uint256"
        }
      ],
      "name": "Approval",
      "type": "event"
    },
    {
      "anonymous": false,
      "inputs": [
        {
          "indexed": true,
          "internalType": "address",
          "name": "owner",
          "type": "address"
        },
        {
          "indexed": true,
          "internalType": "address",
          "name": "operator",
          "type": "address"
        },
        {
          "indexed": false,
          "internalType": "bool",
          "name": "approved",
          "type": "bool"
        }
      ],
      "name": "ApprovalForAll",
      "type": "event"
    },
    {
      "anonymous": false,
      "inputs": [
        {
          "indexed": true,
          "internalType": "address",
          "name": "previousOwner",
          "type": "address"
        },
        {
          "indexed": true,
          "internalType": "address",
          "name": "newOwner",
          "type": "address"
        }
      ],
      "name": "OwnershipTransferred",
      "type": "event"
    },
    {
      "anonymous": false,
      "inputs": [
        {
          "indexed": true,
          "internalType": "address",
          "name": "from",
          "type": "address"
        },
        {
          "indexed": true,
          "internalType": "address",
          "name": "to",
          "type": "address"
        },
        {
          "indexed": true,
          "internalType": "uint256",
          "name": "tokenId",
          "type": "uint256"
        }
      ],
      "name": "Transfer",
      "type": "event"
    },
    {
      "inputs": [
        {
          "internalType": "address",
          "name": "to",
          "type": "address"
        },
        {
          "internalType": "uint256",
          "name": "tokenId",
          "type": "uint256"
        }
      ],
      "name": "approve",
      "outputs": [],
      "stateMutability": "nonpayable",
      "type": "function"
    },
    {
      "inputs": [
        {
          "internalType": "address",
          "name": "owner",
          "type": "address"
        }
      ],
      "name": "balanceOf",
      "outputs": [
        {
          "internalType": "uint256",
          "name": "",
          "type": "uint256"
        }
      ],
      "stateMutability": "view",
      "type": "function"
    },
    {
      "inputs": [
        {
          "internalType": "uint256",
          "name": "tokenId",
          "type": "uint256"
        }
      ],
      "name": "getApproved",
      "outputs": [
        {
          "internalType": "address",
          "name": "",
          "type": "address"
        }
      ],
      "stateMutability": "view",
      "type": "function"
    },
    {
      "inputs": [
        {
          "internalType": "address",
          "name": "owner",
          "type": "address"
        },
        {
          "internalType": "address",
          "name": "operator",
          "type": "address"
        }
      ],
      "name": "isApprovedForAll",
      "outputs": [
        {
          "internalType": "bool",
          "name": "",
          "type": "bool"
        }
      ],
      "stateMutability": "view",
      "type": "function"
    },
    {
      "inputs": [],
      "name": "name",
      "outputs": [
        {
          "internalType": "string",
          "name": "",
          "type": "string"
        }
      ],
      "stateMutability": "view",
      "type": "function"
    },
    {
      "inputs": [],
      "name": "owner",
      "outputs": [
        {
          "internalType": "address",
          "name": "",
          "type": "address"
        }
      ],
      "stateMutability": "view",
      "type": "function"
    },
    {
      "inputs": [
        {
          "internalType": "uint256",
          "name": "tokenId",
          "type": "uint256"
        }
      ],
      "name": "ownerOf",
      "outputs": [
        {
          "internalType": "address",
          "name": "",
          "type": "address"
        }
      ],
      "stateMutability": "view",
      "type": "function"
    },
    {
      "inputs": [],
      "name": "renounceOwnership",
      "outputs": [],
      "stateMutability": "nonpayable",
      "type": "function"
    },
    {
      "inputs": [
        {
          "internalType": "address",
          "name": "operator",
          "type": "address"
        },
        {
          "internalType": "bool",
          "name": "approved",
          "type": "bool"
        }
      ],
      "name": "setApprovalForAll",
      "outputs": [],
      "stateMutability": "nonpayable",
      "type": "function"
    },
    {
      "inputs": [
        {
          "internalType": "bytes4",
          "name": "interfaceId",
          "type": "bytes4"
        }
      ],
      "name": "supportsInterface",
      "outputs": [
        {
          "internalType": "bool",
          "name": "",
          "type": "bool"
        }
      ],
      "stateMutability": "view",
      "type": "function"
    },
    {
      "inputs": [],
      "name": "symbol",
      "outputs": [
        {
          "internalType": "string",
          "name": "",
          "type": "string"
        }
      ],
      "stateMutability": "view",
      "type": "function"
    },
    {
      "inputs": [
        {
          "internalType": "uint256",
          "name": "tokenId",
          "type": "uint256"
        }
      ],
      "name": "tokenURI",
      "outputs": [
        {
          "internalType": "string",
          "name": "",
          "type": "string"
        }
      ],
      "stateMutability": "view",
      "type": "function"
    },
    {
      "inputs": [
        {
          "internalType": "address",
          "name": "from",
          "type": "address"
        },
        {
          "internalType": "address",
          "name": "to",
          "type": "address"
        },
        {
          "internalType": "uint256",
          "name": "tokenId",
          "type": "uint256"
        }
      ],
      "name": "transferFrom",
      "outputs": [],
      "stateMutability": "nonpayable",
      "type": "function"
    },
    {
      "inputs": [
        {
          "internalType": "address",
          "name": "newOwner",
          "type": "address"
        }
      ],
      "name": "transferOwnership",
      "outputs": [],
      "stateMutability": "nonpayable",
      "type": "function"
    },
    {
      "inputs": [
        {
          "internalType": "uint256",
          "name": "id",
          "type": "uint256"
        }
      ],
      "name": "tbsnFromId",
      "outputs": [
        {
          "internalType": "uint256",
          "name": "",
          "type": "uint256"
        }
      ],
      "stateMutability": "view",
      "type": "function"
    },
    {
      "inputs": [
        {
          "internalType": "uint256",
          "name": "id",
          "type": "uint256"
        }
      ],
      "name": "copyNumberFromId",
      "outputs": [
        {
          "internalType": "uint256",
          "name": "",
          "type": "uint256"
        }
      ],
      "stateMutability": "view",
      "type": "function"
    },
    {
      "inputs": [
        {
          "internalType": "uint256",
          "name": "tbsn",
          "type": "uint256"
        },
        {
          "internalType": "address",
          "name": "mintAddress",
          "type": "address"
        }
      ],
      "name": "mint",
      "outputs": [],
      "stateMutability": "nonpayable",
      "type": "function"
    },
    {
      "inputs": [
        {
          "internalType": "address",
          "name": "from",
          "type": "address"
        },
        {
          "internalType": "address",
          "name": "to",
          "type": "address"
        },
        {
          "internalType": "uint256",
          "name": "tokenId",
          "type": "uint256"
        }
      ],
      "name": "safeTransferFrom",
      "outputs": [],
      "stateMutability": "nonpayable",
      "type": "function"
    },
    {
      "inputs": [
        {
          "internalType": "address",
          "name": "from",
          "type": "address"
        },
        {
          "internalType": "address",
          "name": "to",
          "type": "address"
        },
        {
          "internalType": "uint256",
          "name": "tokenId",
          "type": "uint256"
        },
        {
          "internalType": "bytes",
          "name": "_data",
          "type": "bytes"
        }
      ],
      "name": "safeTransferFrom",
      "outputs": [],
      "stateMutability": "nonpayable",
      "type": "function"
    },
    {
      "inputs": [
        {
          "internalType": "uint256",
          "name": "tbsn",
          "type": "uint256"
        },
        {
          "internalType": "address payable",
          "name": "author",
          "type": "address"
        }
      ],
      "name": "publish",
      "outputs": [],
      "stateMutability": "nonpayable",
      "type": "function"
    }
  ],
  "bytecode": "0x60806040523480156200001157600080fd5b506040518060400160405280600581526020017f54426f6f6b0000000000000000000000000000000000000000000000000000008152506040518060400160405280600381526020017f54424b00000000000000000000000000000000000000000000000000000000008152506200009e62000092620000f360201b60201c565b620000fb60201b60201c565b8160019080519060200190620000b6929190620001bf565b508060029080519060200190620000cf929190620001bf565b50505060006007819055506000600b81905550633b9aca00600c81905550620002d3565b600033905090565b60008060009054906101000a900473ffffffffffffffffffffffffffffffffffffffff169050816000806101000a81548173ffffffffffffffffffffffffffffffffffffffff021916908373ffffffffffffffffffffffffffffffffffffffff1602179055508173ffffffffffffffffffffffffffffffffffffffff168173ffffffffffffffffffffffffffffffffffffffff167f8be0079c531659141344cd1fd0a4f28419497f9722a3daafe3b4186f6b6457e060405160405180910390a35050565b828054620001cd906200029e565b90600052602060002090601f016020900481019282620001f157600085556200023d565b82601f106200020c57805160ff19168380011785556200023d565b828001600101855582156200023d579182015b828111156200023c5782518255916020019190600101906200021f565b5b5090506200024c919062000250565b5090565b5b808211156200026b57600081600090555060010162000251565b5090565b7f4e487b7100000000000000000000000000000000000000000000000000000000600052602260045260246000fd5b60006002820490506001821680620002b757607f821691505b602082108103620002cd57620002cc6200026f565b5b50919050565b61361480620002e36000396000f3fe608060405234801561001057600080fd5b506004361061012c5760003560e01c80638a0dbe7a116100ad578063a22cb46511610071578063a22cb46514610341578063b88d4fde1461035d578063c87b56dd14610379578063e985e9c5146103a9578063f2fde38b146103d95761012c565b80638a0dbe7a1461029d5780638da5cb5b146102b957806394bf804d146102d757806395d89b41146102f35780639a4b0f2b146103115761012c565b806342842e0e116100f457806342842e0e146101e75780636352211e146102035780636847e3091461023357806370a0823114610263578063715018a6146102935761012c565b806301ffc9a71461013157806306fdde0314610161578063081812fc1461017f578063095ea7b3146101af57806323b872dd146101cb575b600080fd5b61014b60048036038101906101469190612383565b6103f5565b60405161015891906123cb565b60405180910390f35b6101696104d7565b604051610176919061247f565b60405180910390f35b610199600480360381019061019491906124d7565b610569565b6040516101a69190612545565b60405180910390f35b6101c960048036038101906101c4919061258c565b6105ee565b005b6101e560048036038101906101e091906125cc565b610705565b005b61020160048036038101906101fc91906125cc565b610765565b005b61021d600480360381019061021891906124d7565b610bb0565b60405161022a9190612545565b60405180910390f35b61024d600480360381019061024891906124d7565b610c61565b60405161025a919061262e565b60405180910390f35b61027d60048036038101906102789190612649565b610c78565b60405161028a919061262e565b60405180910390f35b61029b610d2f565b005b6102b760048036038101906102b291906126b4565b610db7565b005b6102c1610e88565b6040516102ce9190612545565b60405180910390f35b6102f160048036038101906102ec91906126f4565b610eb1565b005b6102fb6112b5565b604051610308919061247f565b60405180910390f35b61032b600480360381019061032691906124d7565b611347565b604051610338919061262e565b60405180910390f35b61035b60048036038101906103569190612760565b61135e565b005b610377600480360381019061037291906128d5565b611374565b005b610393600480360381019061038e91906124d7565b6113d6565b6040516103a0919061247f565b60405180910390f35b6103c360048036038101906103be9190612958565b61147d565b6040516103d091906123cb565b60405180910390f35b6103f360048036038101906103ee9190612649565b611511565b005b60007f80ac58cd000000000000000000000000000000000000000000000000000000007bffffffffffffffffffffffffffffffffffffffffffffffffffffffff1916827bffffffffffffffffffffffffffffffffffffffffffffffffffffffff191614806104c057507f5b5e139f000000000000000000000000000000000000000000000000000000007bffffffffffffffffffffffffffffffffffffffffffffffffffffffff1916827bffffffffffffffffffffffffffffffffffffffffffffffffffffffff1916145b806104d057506104cf82611608565b5b9050919050565b6060600180546104e6906129c7565b80601f0160208091040260200160405190810160405280929190818152602001828054610512906129c7565b801561055f5780601f106105345761010080835404028352916020019161055f565b820191906000526020600020905b81548152906001019060200180831161054257829003601f168201915b5050505050905090565b600061057482611672565b6105b3576040517f08c379a00000000000000000000000000000000000000000000000000000000081526004016105aa90612a6a565b60405180910390fd5b6005600083815260200190815260200160002060009054906101000a900473ffffffffffffffffffffffffffffffffffffffff169050919050565b60006105f982610bb0565b90508073ffffffffffffffffffffffffffffffffffffffff168373ffffffffffffffffffffffffffffffffffffffff1603610669576040517f08c379a000000000000000000000000000000000000000000000000000000000815260040161066090612afc565b60405180910390fd5b8073ffffffffffffffffffffffffffffffffffffffff166106886116de565b73ffffffffffffffffffffffffffffffffffffffff1614806106b757506106b6816106b16116de565b61147d565b5b6106f6576040517f08c379a00000000000000000000000000000000000000000000000000000000081526004016106ed90612b8e565b60405180910390fd5b61070083836116e6565b505050565b6107166107106116de565b8261179f565b610755576040517f08c379a000000000000000000000000000000000000000000000000000000000815260040161074c90612c20565b60405180910390fd5b61076083838361187d565b505050565b600061077082611347565b90506000600a600083815260200190815260200160002060050160008673ffffffffffffffffffffffffffffffffffffffff1673ffffffffffffffffffffffffffffffffffffffff1681526020019081526020016000205411801561082857506000600860008673ffffffffffffffffffffffffffffffffffffffff1673ffffffffffffffffffffffffffffffffffffffff168152602001908152602001600020600201600083815260200190815260200160002054115b61083157600080fd5b836009600084815260200190815260200160002060070160006101000a81548173ffffffffffffffffffffffffffffffffffffffff021916908373ffffffffffffffffffffffffffffffffffffffff160217905550826009600084815260200190815260200160002060060160006101000a81548173ffffffffffffffffffffffffffffffffffffffff021916908373ffffffffffffffffffffffffffffffffffffffff16021790555060016009600084815260200190815260200160002060030160008282546109029190612c6f565b925050819055506001600a600083815260200190815260200160002060050160008673ffffffffffffffffffffffffffffffffffffffff1673ffffffffffffffffffffffffffffffffffffffff168152602001908152602001600020600082825461096d9190612cc5565b925050819055506001600a600083815260200190815260200160002060050160008573ffffffffffffffffffffffffffffffffffffffff1673ffffffffffffffffffffffffffffffffffffffff16815260200190815260200160002060008282546109d89190612c6f565b925050819055506001600860008673ffffffffffffffffffffffffffffffffffffffff1673ffffffffffffffffffffffffffffffffffffffff16815260200190815260200160002060020160008381526020019081526020016000206000828254610a439190612cc5565b925050819055506001600860008673ffffffffffffffffffffffffffffffffffffffff1673ffffffffffffffffffffffffffffffffffffffff1681526020019081526020016000206001016000828254610a9d9190612cc5565b925050819055506001600860008573ffffffffffffffffffffffffffffffffffffffff1673ffffffffffffffffffffffffffffffffffffffff16815260200190815260200160002060020160008381526020019081526020016000206000828254610b089190612c6f565b925050819055506001600860008573ffffffffffffffffffffffffffffffffffffffff1673ffffffffffffffffffffffffffffffffffffffff1681526020019081526020016000206001016000828254610b629190612c6f565b92505081905550610baa8484846040518060400160405280600181526020017f2000000000000000000000000000000000000000000000000000000000000000815250611ae3565b50505050565b6000806003600084815260200190815260200160002060009054906101000a900473ffffffffffffffffffffffffffffffffffffffff169050600073ffffffffffffffffffffffffffffffffffffffff168173ffffffffffffffffffffffffffffffffffffffff1603610c58576040517f08c379a0000000000000000000000000000000000000000000000000000000008152600401610c4f90612d6b565b60405180910390fd5b80915050919050565b6000600c5482610c719190612dba565b9050919050565b60008073ffffffffffffffffffffffffffffffffffffffff168273ffffffffffffffffffffffffffffffffffffffff1603610ce8576040517f08c379a0000000000000000000000000000000000000000000000000000000008152600401610cdf90612e5d565b60405180910390fd5b600460008373ffffffffffffffffffffffffffffffffffffffff1673ffffffffffffffffffffffffffffffffffffffff168152602001908152602001600020549050919050565b610d376116de565b73ffffffffffffffffffffffffffffffffffffffff16610d55610e88565b73ffffffffffffffffffffffffffffffffffffffff1614610dab576040517f08c379a0000000000000000000000000000000000000000000000000000000008152600401610da290612ec9565b60405180910390fd5b610db56000611b3f565b565b610dbf610e88565b73ffffffffffffffffffffffffffffffffffffffff163373ffffffffffffffffffffffffffffffffffffffff1614610df657600080fd5b6001600a600084815260200190815260200160002060000160006101000a81548160ff02191690831515021790555080600a600084815260200190815260200160002060040160006101000a81548173ffffffffffffffffffffffffffffffffffffffff021916908373ffffffffffffffffffffffffffffffffffffffff160217905550610e848282610eb1565b5050565b60008060009054906101000a900473ffffffffffffffffffffffffffffffffffffffff16905090565b600a600083815260200190815260200160002060000160009054906101000a900460ff16610ede57600080fd5b6000600a60008481526020019081526020016000206002015490506000610f058483611c03565b905060016009600083815260200190815260200160002060000160006101000a81548160ff021916908315150217905550836009600083815260200190815260200160002060010181905550816009600083815260200190815260200160002060020181905550826009600083815260200190815260200160002060050160006101000a81548173ffffffffffffffffffffffffffffffffffffffff021916908373ffffffffffffffffffffffffffffffffffffffff160217905550826009600083815260200190815260200160002060060160006101000a81548173ffffffffffffffffffffffffffffffffffffffff021916908373ffffffffffffffffffffffffffffffffffffffff160217905550600860008473ffffffffffffffffffffffffffffffffffffffff1673ffffffffffffffffffffffffffffffffffffffff16815260200190815260200160002060000160009054906101000a900460ff16611147576001600860008573ffffffffffffffffffffffffffffffffffffffff1673ffffffffffffffffffffffffffffffffffffffff16815260200190815260200160002060000160006101000a81548160ff02191690831515021790555082600860008573ffffffffffffffffffffffffffffffffffffffff1673ffffffffffffffffffffffffffffffffffffffff16815260200190815260200160002060000160016101000a81548173ffffffffffffffffffffffffffffffffffffffff021916908373ffffffffffffffffffffffffffffffffffffffff1602179055505b6001600860008573ffffffffffffffffffffffffffffffffffffffff1673ffffffffffffffffffffffffffffffffffffffff168152602001908152602001600020600201600086815260200190815260200160002060008282546111ab9190612c6f565b925050819055506001600860008573ffffffffffffffffffffffffffffffffffffffff1673ffffffffffffffffffffffffffffffffffffffff16815260200190815260200160002060010160008282546112059190612c6f565b925050819055506001600a600086815260200190815260200160002060020160008282546112339190612c6f565b925050819055506001600a600086815260200190815260200160002060050160008573ffffffffffffffffffffffffffffffffffffffff1673ffffffffffffffffffffffffffffffffffffffff168152602001908152602001600020600082825461129e9190612c6f565b925050819055506112af3382611c2e565b50505050565b6060600280546112c4906129c7565b80601f01602080910402602001604051908101604052809291908181526020018280546112f0906129c7565b801561133d5780601f106113125761010080835404028352916020019161133d565b820191906000526020600020905b81548152906001019060200180831161132057829003601f168201915b5050505050905090565b6000600c54826113579190612ee9565b9050919050565b6113706113696116de565b8383611c4c565b5050565b61138561137f6116de565b8361179f565b6113c4576040517f08c379a00000000000000000000000000000000000000000000000000000000081526004016113bb90612c20565b60405180910390fd5b6113d084848484611ae3565b50505050565b60606113e182611672565b611420576040517f08c379a000000000000000000000000000000000000000000000000000000000815260040161141790612f8c565b60405180910390fd5b600061142a611db8565b9050600081511161144a5760405180602001604052806000815250611475565b8061145484611dcf565b604051602001611465929190612fe8565b6040516020818303038152906040525b915050919050565b6000600660008473ffffffffffffffffffffffffffffffffffffffff1673ffffffffffffffffffffffffffffffffffffffff16815260200190815260200160002060008373ffffffffffffffffffffffffffffffffffffffff1673ffffffffffffffffffffffffffffffffffffffff16815260200190815260200160002060009054906101000a900460ff16905092915050565b6115196116de565b73ffffffffffffffffffffffffffffffffffffffff16611537610e88565b73ffffffffffffffffffffffffffffffffffffffff161461158d576040517f08c379a000000000000000000000000000000000000000000000000000000000815260040161158490612ec9565b60405180910390fd5b600073ffffffffffffffffffffffffffffffffffffffff168173ffffffffffffffffffffffffffffffffffffffff16036115fc576040517f08c379a00000000000000000000000000000000000000000000000000000000081526004016115f39061307e565b60405180910390fd5b61160581611b3f565b50565b60007f01ffc9a7000000000000000000000000000000000000000000000000000000007bffffffffffffffffffffffffffffffffffffffffffffffffffffffff1916827bffffffffffffffffffffffffffffffffffffffffffffffffffffffff1916149050919050565b60008073ffffffffffffffffffffffffffffffffffffffff166003600084815260200190815260200160002060009054906101000a900473ffffffffffffffffffffffffffffffffffffffff1673ffffffffffffffffffffffffffffffffffffffff1614159050919050565b600033905090565b816005600083815260200190815260200160002060006101000a81548173ffffffffffffffffffffffffffffffffffffffff021916908373ffffffffffffffffffffffffffffffffffffffff160217905550808273ffffffffffffffffffffffffffffffffffffffff1661175983610bb0565b73ffffffffffffffffffffffffffffffffffffffff167f8c5be1e5ebec7d5bd14f71427d1e84f3dd0314c0f7b2291e5b200ac8c7c3b92560405160405180910390a45050565b60006117aa82611672565b6117e9576040517f08c379a00000000000000000000000000000000000000000000000000000000081526004016117e090613110565b60405180910390fd5b60006117f483610bb0565b90508073ffffffffffffffffffffffffffffffffffffffff168473ffffffffffffffffffffffffffffffffffffffff1614806118365750611835818561147d565b5b8061187457508373ffffffffffffffffffffffffffffffffffffffff1661185c84610569565b73ffffffffffffffffffffffffffffffffffffffff16145b91505092915050565b8273ffffffffffffffffffffffffffffffffffffffff1661189d82610bb0565b73ffffffffffffffffffffffffffffffffffffffff16146118f3576040517f08c379a00000000000000000000000000000000000000000000000000000000081526004016118ea906131a2565b60405180910390fd5b600073ffffffffffffffffffffffffffffffffffffffff168273ffffffffffffffffffffffffffffffffffffffff1603611962576040517f08c379a000000000000000000000000000000000000000000000000000000000815260040161195990613234565b60405180910390fd5b61196d838383611f2f565b6119786000826116e6565b6001600460008573ffffffffffffffffffffffffffffffffffffffff1673ffffffffffffffffffffffffffffffffffffffff16815260200190815260200160002060008282546119c89190612cc5565b925050819055506001600460008473ffffffffffffffffffffffffffffffffffffffff1673ffffffffffffffffffffffffffffffffffffffff1681526020019081526020016000206000828254611a1f9190612c6f565b92505081905550816003600083815260200190815260200160002060006101000a81548173ffffffffffffffffffffffffffffffffffffffff021916908373ffffffffffffffffffffffffffffffffffffffff160217905550808273ffffffffffffffffffffffffffffffffffffffff168473ffffffffffffffffffffffffffffffffffffffff167fddf252ad1be2c89b69c2b068fc378daa952ba7f163c4a11628f55a4df523b3ef60405160405180910390a4611ade838383611f34565b505050565b611aee84848461187d565b611afa84848484611f39565b611b39576040517f08c379a0000000000000000000000000000000000000000000000000000000008152600401611b30906132c6565b60405180910390fd5b50505050565b60008060009054906101000a900473ffffffffffffffffffffffffffffffffffffffff169050816000806101000a81548173ffffffffffffffffffffffffffffffffffffffff021916908373ffffffffffffffffffffffffffffffffffffffff1602179055508173ffffffffffffffffffffffffffffffffffffffff168173ffffffffffffffffffffffffffffffffffffffff167f8be0079c531659141344cd1fd0a4f28419497f9722a3daafe3b4186f6b6457e060405160405180910390a35050565b600080600c5484611c1491906132e6565b90508281611c229190612c6f565b90508091505092915050565b611c488282604051806020016040528060008152506120c0565b5050565b8173ffffffffffffffffffffffffffffffffffffffff168373ffffffffffffffffffffffffffffffffffffffff1603611cba576040517f08c379a0000000000000000000000000000000000000000000000000000000008152600401611cb19061338c565b60405180910390fd5b80600660008573ffffffffffffffffffffffffffffffffffffffff1673ffffffffffffffffffffffffffffffffffffffff16815260200190815260200160002060008473ffffffffffffffffffffffffffffffffffffffff1673ffffffffffffffffffffffffffffffffffffffff16815260200190815260200160002060006101000a81548160ff0219169083151502179055508173ffffffffffffffffffffffffffffffffffffffff168373ffffffffffffffffffffffffffffffffffffffff167f17307eab39ab6107e8899845ad3d59bd9653f200f220920489ca2b5937696c3183604051611dab91906123cb565b60405180910390a3505050565b606060405180602001604052806000815250905090565b606060008203611e16576040518060400160405280600181526020017f30000000000000000000000000000000000000000000000000000000000000008152509050611f2a565b600082905060005b60008214611e48578080611e31906133ac565b915050600a82611e419190612ee9565b9150611e1e565b60008167ffffffffffffffff811115611e6457611e636127aa565b5b6040519080825280601f01601f191660200182016040528015611e965781602001600182028036833780820191505090505b5090505b60008514611f2357600182611eaf9190612cc5565b9150600a85611ebe9190612dba565b6030611eca9190612c6f565b60f81b818381518110611ee057611edf6133f4565b5b60200101907effffffffffffffffffffffffffffffffffffffffffffffffffffffffffffff1916908160001a905350600a85611f1c9190612ee9565b9450611e9a565b8093505050505b919050565b505050565b505050565b6000611f5a8473ffffffffffffffffffffffffffffffffffffffff1661211b565b156120b3578373ffffffffffffffffffffffffffffffffffffffff1663150b7a02611f836116de565b8786866040518563ffffffff1660e01b8152600401611fa59493929190613478565b6020604051808303816000875af1925050508015611fe157506040513d601f19601f82011682018060405250810190611fde91906134d9565b60015b612063573d8060008114612011576040519150601f19603f3d011682016040523d82523d6000602084013e612016565b606091505b50600081510361205b576040517f08c379a0000000000000000000000000000000000000000000000000000000008152600401612052906132c6565b60405180910390fd5b805181602001fd5b63150b7a0260e01b7bffffffffffffffffffffffffffffffffffffffffffffffffffffffff1916817bffffffffffffffffffffffffffffffffffffffffffffffffffffffff1916149150506120b8565b600190505b949350505050565b6120ca838361213e565b6120d76000848484611f39565b612116576040517f08c379a000000000000000000000000000000000000000000000000000000000815260040161210d906132c6565b60405180910390fd5b505050565b6000808273ffffffffffffffffffffffffffffffffffffffff163b119050919050565b600073ffffffffffffffffffffffffffffffffffffffff168273ffffffffffffffffffffffffffffffffffffffff16036121ad576040517f08c379a00000000000000000000000000000000000000000000000000000000081526004016121a490613552565b60405180910390fd5b6121b681611672565b156121f6576040517f08c379a00000000000000000000000000000000000000000000000000000000081526004016121ed906135be565b60405180910390fd5b61220260008383611f2f565b6001600460008473ffffffffffffffffffffffffffffffffffffffff1673ffffffffffffffffffffffffffffffffffffffff16815260200190815260200160002060008282546122529190612c6f565b92505081905550816003600083815260200190815260200160002060006101000a81548173ffffffffffffffffffffffffffffffffffffffff021916908373ffffffffffffffffffffffffffffffffffffffff160217905550808273ffffffffffffffffffffffffffffffffffffffff16600073ffffffffffffffffffffffffffffffffffffffff167fddf252ad1be2c89b69c2b068fc378daa952ba7f163c4a11628f55a4df523b3ef60405160405180910390a461231360008383611f34565b5050565b6000604051905090565b600080fd5b600080fd5b60007fffffffff0000000000000000000000000000000000000000000000000000000082169050919050565b6123608161232b565b811461236b57600080fd5b50565b60008135905061237d81612357565b92915050565b60006020828403121561239957612398612321565b5b60006123a78482850161236e565b91505092915050565b60008115159050919050565b6123c5816123b0565b82525050565b60006020820190506123e060008301846123bc565b92915050565b600081519050919050565b600082825260208201905092915050565b60005b83811015612420578082015181840152602081019050612405565b8381111561242f576000848401525b50505050565b6000601f19601f8301169050919050565b6000612451826123e6565b61245b81856123f1565b935061246b818560208601612402565b61247481612435565b840191505092915050565b600060208201905081810360008301526124998184612446565b905092915050565b6000819050919050565b6124b4816124a1565b81146124bf57600080fd5b50565b6000813590506124d1816124ab565b92915050565b6000602082840312156124ed576124ec612321565b5b60006124fb848285016124c2565b91505092915050565b600073ffffffffffffffffffffffffffffffffffffffff82169050919050565b600061252f82612504565b9050919050565b61253f81612524565b82525050565b600060208201905061255a6000830184612536565b92915050565b61256981612524565b811461257457600080fd5b50565b60008135905061258681612560565b92915050565b600080604083850312156125a3576125a2612321565b5b60006125b185828601612577565b92505060206125c2858286016124c2565b9150509250929050565b6000806000606084860312156125e5576125e4612321565b5b60006125f386828701612577565b935050602061260486828701612577565b9250506040612615868287016124c2565b9150509250925092565b612628816124a1565b82525050565b6000602082019050612643600083018461261f565b92915050565b60006020828403121561265f5761265e612321565b5b600061266d84828501612577565b91505092915050565b600061268182612504565b9050919050565b61269181612676565b811461269c57600080fd5b50565b6000813590506126ae81612688565b92915050565b600080604083850312156126cb576126ca612321565b5b60006126d9858286016124c2565b92505060206126ea8582860161269f565b9150509250929050565b6000806040838503121561270b5761270a612321565b5b6000612719858286016124c2565b925050602061272a85828601612577565b9150509250929050565b61273d816123b0565b811461274857600080fd5b50565b60008135905061275a81612734565b92915050565b6000806040838503121561277757612776612321565b5b600061278585828601612577565b92505060206127968582860161274b565b9150509250929050565b600080fd5b600080fd5b7f4e487b7100000000000000000000000000000000000000000000000000000000600052604160045260246000fd5b6127e282612435565b810181811067ffffffffffffffff82111715612801576128006127aa565b5b80604052505050565b6000612814612317565b905061282082826127d9565b919050565b600067ffffffffffffffff8211156128405761283f6127aa565b5b61284982612435565b9050602081019050919050565b82818337600083830152505050565b600061287861287384612825565b61280a565b905082815260208101848484011115612894576128936127a5565b5b61289f848285612856565b509392505050565b600082601f8301126128bc576128bb6127a0565b5b81356128cc848260208601612865565b91505092915050565b600080600080608085870312156128ef576128ee612321565b5b60006128fd87828801612577565b945050602061290e87828801612577565b935050604061291f878288016124c2565b925050606085013567ffffffffffffffff8111156129405761293f612326565b5b61294c878288016128a7565b91505092959194509250565b6000806040838503121561296f5761296e612321565b5b600061297d85828601612577565b925050602061298e85828601612577565b9150509250929050565b7f4e487b7100000000000000000000000000000000000000000000000000000000600052602260045260246000fd5b600060028204905060018216806129df57607f821691505b6020821081036129f2576129f1612998565b5b50919050565b7f4552433732313a20617070726f76656420717565727920666f72206e6f6e657860008201527f697374656e7420746f6b656e0000000000000000000000000000000000000000602082015250565b6000612a54602c836123f1565b9150612a5f826129f8565b604082019050919050565b60006020820190508181036000830152612a8381612a47565b9050919050565b7f4552433732313a20617070726f76616c20746f2063757272656e74206f776e6560008201527f7200000000000000000000000000000000000000000000000000000000000000602082015250565b6000612ae66021836123f1565b9150612af182612a8a565b604082019050919050565b60006020820190508181036000830152612b1581612ad9565b9050919050565b7f4552433732313a20617070726f76652063616c6c6572206973206e6f74206f7760008201527f6e6572206e6f7220617070726f76656420666f7220616c6c0000000000000000602082015250565b6000612b786038836123f1565b9150612b8382612b1c565b604082019050919050565b60006020820190508181036000830152612ba781612b6b565b9050919050565b7f4552433732313a207472616e736665722063616c6c6572206973206e6f74206f60008201527f776e6572206e6f7220617070726f766564000000000000000000000000000000602082015250565b6000612c0a6031836123f1565b9150612c1582612bae565b604082019050919050565b60006020820190508181036000830152612c3981612bfd565b9050919050565b7f4e487b7100000000000000000000000000000000000000000000000000000000600052601160045260246000fd5b6000612c7a826124a1565b9150612c85836124a1565b9250827fffffffffffffffffffffffffffffffffffffffffffffffffffffffffffffffff03821115612cba57612cb9612c40565b5b828201905092915050565b6000612cd0826124a1565b9150612cdb836124a1565b925082821015612cee57612ced612c40565b5b828203905092915050565b7f4552433732313a206f776e657220717565727920666f72206e6f6e657869737460008201527f656e7420746f6b656e0000000000000000000000000000000000000000000000602082015250565b6000612d556029836123f1565b9150612d6082612cf9565b604082019050919050565b60006020820190508181036000830152612d8481612d48565b9050919050565b7f4e487b7100000000000000000000000000000000000000000000000000000000600052601260045260246000fd5b6000612dc5826124a1565b9150612dd0836124a1565b925082612de057612ddf612d8b565b5b828206905092915050565b7f4552433732313a2062616c616e636520717565727920666f7220746865207a6560008201527f726f206164647265737300000000000000000000000000000000000000000000602082015250565b6000612e47602a836123f1565b9150612e5282612deb565b604082019050919050565b60006020820190508181036000830152612e7681612e3a565b9050919050565b7f4f776e61626c653a2063616c6c6572206973206e6f7420746865206f776e6572600082015250565b6000612eb36020836123f1565b9150612ebe82612e7d565b602082019050919050565b60006020820190508181036000830152612ee281612ea6565b9050919050565b6000612ef4826124a1565b9150612eff836124a1565b925082612f0f57612f0e612d8b565b5b828204905092915050565b7f4552433732314d657461646174613a2055524920717565727920666f72206e6f60008201527f6e6578697374656e7420746f6b656e0000000000000000000000000000000000602082015250565b6000612f76602f836123f1565b9150612f8182612f1a565b604082019050919050565b60006020820190508181036000830152612fa581612f69565b9050919050565b600081905092915050565b6000612fc2826123e6565b612fcc8185612fac565b9350612fdc818560208601612402565b80840191505092915050565b6000612ff48285612fb7565b91506130008284612fb7565b91508190509392505050565b7f4f776e61626c653a206e6577206f776e657220697320746865207a65726f206160008201527f6464726573730000000000000000000000000000000000000000000000000000602082015250565b60006130686026836123f1565b91506130738261300c565b604082019050919050565b600060208201905081810360008301526130978161305b565b9050919050565b7f4552433732313a206f70657261746f7220717565727920666f72206e6f6e657860008201527f697374656e7420746f6b656e0000000000000000000000000000000000000000602082015250565b60006130fa602c836123f1565b91506131058261309e565b604082019050919050565b60006020820190508181036000830152613129816130ed565b9050919050565b7f4552433732313a207472616e736665722066726f6d20696e636f72726563742060008201527f6f776e6572000000000000000000000000000000000000000000000000000000602082015250565b600061318c6025836123f1565b915061319782613130565b604082019050919050565b600060208201905081810360008301526131bb8161317f565b9050919050565b7f4552433732313a207472616e7366657220746f20746865207a65726f2061646460008201527f7265737300000000000000000000000000000000000000000000000000000000602082015250565b600061321e6024836123f1565b9150613229826131c2565b604082019050919050565b6000602082019050818103600083015261324d81613211565b9050919050565b7f4552433732313a207472616e7366657220746f206e6f6e20455243373231526560008201527f63656976657220696d706c656d656e7465720000000000000000000000000000602082015250565b60006132b06032836123f1565b91506132bb82613254565b604082019050919050565b600060208201905081810360008301526132df816132a3565b9050919050565b60006132f1826124a1565b91506132fc836124a1565b9250817fffffffffffffffffffffffffffffffffffffffffffffffffffffffffffffffff048311821515161561333557613334612c40565b5b828202905092915050565b7f4552433732313a20617070726f766520746f2063616c6c657200000000000000600082015250565b60006133766019836123f1565b915061338182613340565b602082019050919050565b600060208201905081810360008301526133a581613369565b9050919050565b60006133b7826124a1565b91507fffffffffffffffffffffffffffffffffffffffffffffffffffffffffffffffff82036133e9576133e8612c40565b5b600182019050919050565b7f4e487b7100000000000000000000000000000000000000000000000000000000600052603260045260246000fd5b600081519050919050565b600082825260208201905092915050565b600061344a82613423565b613454818561342e565b9350613464818560208601612402565b61346d81612435565b840191505092915050565b600060808201905061348d6000830187612536565b61349a6020830186612536565b6134a7604083018561261f565b81810360608301526134b9818461343f565b905095945050505050565b6000815190506134d381612357565b92915050565b6000602082840312156134ef576134ee612321565b5b60006134fd848285016134c4565b91505092915050565b7f4552433732313a206d696e7420746f20746865207a65726f2061646472657373600082015250565b600061353c6020836123f1565b915061354782613506565b602082019050919050565b6000602082019050818103600083015261356b8161352f565b9050919050565b7f4552433732313a20746f6b656e20616c7265616479206d696e74656400000000600082015250565b60006135a8601c836123f1565b91506135b382613572565b602082019050919050565b600060208201905081810360008301526135d78161359b565b905091905056fea2646970667358221220fb81f4fb7f3c6759870644fa93d2a76a5b351bd9bc26a79b2c4e11ee87c1ada164736f6c634300080d0033",
  "immutableReferences": {},
  "source": "// SPDX-License-Identifier: MIT\npragma solidity >=0.4.22 <0.9.0;\n\nimport \"@openzeppelin/contracts/token/ERC721/ERC721.sol\";\nimport \"@openzeppelin/contracts/access/Ownable.sol\";\n\ncontract TBookFactory is Ownable, ERC721 {\n    // A Copy of a Book\n    struct CopyInfo {\n        bool exists;\n        uint256 tbsn;\n        uint256 copyNumber;\n        uint256 numTransactions; // How many times sold/transacted\n        string title;\n        address initHolder; // Who minted this\n        address currentHolder;\n        address lastHolder; // Who was the last person to hold this NFT\n    }\n    // A Single Book\n    struct TBookInfo {\n        bool exists;\n        uint256 tbsn;\n        uint256 numCopies; // Max 10 ** 12 copies\n        uint256 mintPrice;\n        address payable author;\n        mapping(address => uint256) collectors;\n    }\n\n    // A Single User\n    struct UserInfo {\n        bool exists;\n        address userAddress;\n        uint256 collectionSize;\n        mapping(uint256 => uint256) books; // Maps TBSN to whether the number of copies the user has collected.\n    }\n\n    uint256 private _numUsers;\n    mapping(address => UserInfo) private _addressToUser;\n\n    // This ID is the NFT ID, is completely seperate from TBSN and Copy Number\n    mapping(uint256 => CopyInfo) private _idToCopy;\n\n    // Maps TBSN to TBook Info\n    mapping(uint256 => TBookInfo) private _tbsnToBook;\n\n    uint256 private _totalCopies;\n\n    // Max copies of a single TBook\n    uint256 private _maxCopies;\n\n    constructor() ERC721(\"TBook\", \"TBK\") {\n        _numUsers = 0;\n        _totalCopies = 0;\n        _maxCopies = 10**9;\n    }\n\n    /**\n    Gets the ID from the TBSN and the Copy Number\n    Copy 1 of 75025 would be 75025000000001\n     */\n    function getId(uint256 tbsn, uint256 copyNumber)\n        internal\n        view\n        returns (uint256)\n    {\n        uint256 id = tbsn * (_maxCopies);\n        id += copyNumber;\n        return id;\n    }\n\n    function tbsnFromId(uint256 id) public view returns (uint256) {\n        return id / _maxCopies;\n    }\n\n    function copyNumberFromId(uint256 id) public view returns (uint256) {\n        return id % _maxCopies;\n    }\n\n    function mint(uint256 tbsn, address mintAddress) public {\n        require(_tbsnToBook[tbsn].exists);\n        uint256 currentCopy = _tbsnToBook[tbsn].numCopies;\n\n        // Generate the ID from the TBSN + Copy Number\n        uint256 id = getId(tbsn, currentCopy);\n\n        // Update CopyInfo\n        _idToCopy[id].exists = true;\n        _idToCopy[id].tbsn = tbsn;\n        _idToCopy[id].copyNumber = currentCopy;\n        _idToCopy[id].initHolder = mintAddress;\n        _idToCopy[id].currentHolder = mintAddress;\n\n        // Update UserInfo\n        if (!_addressToUser[mintAddress].exists) {\n            _addressToUser[mintAddress].exists = true;\n            _addressToUser[mintAddress].userAddress = mintAddress;\n        }\n        _addressToUser[mintAddress].books[tbsn] += 1;\n        _addressToUser[mintAddress].collectionSize += 1;\n\n        // Update BookInfo\n        _tbsnToBook[tbsn].numCopies += 1;\n        _tbsnToBook[tbsn].collectors[mintAddress] += 1;\n        _safeMint(msg.sender, id);\n    }\n\n    function safeTransferFrom(\n        address from,\n        address to,\n        uint256 tokenId\n    ) public override {\n        uint256 tbsn = tbsnFromId(tokenId);\n        require(\n            (_tbsnToBook[tbsn].collectors[from] > 0) &&\n                (_addressToUser[from].books[tbsn] > 0)\n        );\n\n        // Update CopyInfo\n        _idToCopy[tokenId].lastHolder = from;\n        _idToCopy[tokenId].currentHolder = to;\n        _idToCopy[tokenId].numTransactions += 1;\n\n        // Update TBookInfo\n        _tbsnToBook[tbsn].collectors[from] -= 1;\n        _tbsnToBook[tbsn].collectors[to] += 1;\n\n        // Update UserInfo\n        _addressToUser[from].books[tbsn] -= 1;\n        _addressToUser[from].collectionSize -= 1;\n\n        _addressToUser[to].books[tbsn] += 1;\n        _addressToUser[to].collectionSize += 1;\n        _safeTransfer(from, to, tokenId, \" \");\n    }\n\n    function publish(uint256 tbsn, address payable author) external {\n        // Only the Foundation can Publish\n        require(msg.sender == owner());\n        // Update BookInfo\n        _tbsnToBook[tbsn].exists = true;\n        _tbsnToBook[tbsn].author = author;\n        // Free mint for the author\n        mint(tbsn, author);\n    }\n}\n",
  "sourcePath": "/Users/jayyu/Documents/OneDrive - Stanford/Work/Projects/TSalon/prototypes/tsalon-nft/contracts/TBookFactory.sol",
  "compiler": {
    "name": "solc",
    "version": "0.8.13+commit.abaa5c0e.Emscripten.clang"
  },
  "schemaVersion": "3.4.7",
  "updatedAt": "2022-06-18T03:08:24.631Z",
  "devdoc": {
    "kind": "dev",
    "methods": {
      "approve(address,uint256)": {
        "details": "See {IERC721-approve}."
      },
      "balanceOf(address)": {
        "details": "See {IERC721-balanceOf}."
      },
      "getApproved(uint256)": {
        "details": "See {IERC721-getApproved}."
      },
      "isApprovedForAll(address,address)": {
        "details": "See {IERC721-isApprovedForAll}."
      },
      "name()": {
        "details": "See {IERC721Metadata-name}."
      },
      "owner()": {
        "details": "Returns the address of the current owner."
      },
      "ownerOf(uint256)": {
        "details": "See {IERC721-ownerOf}."
      },
      "renounceOwnership()": {
        "details": "Leaves the contract without owner. It will not be possible to call `onlyOwner` functions anymore. Can only be called by the current owner. NOTE: Renouncing ownership will leave the contract without an owner, thereby removing any functionality that is only available to the owner."
      },
      "safeTransferFrom(address,address,uint256)": {
        "details": "See {IERC721-safeTransferFrom}."
      },
      "safeTransferFrom(address,address,uint256,bytes)": {
        "details": "See {IERC721-safeTransferFrom}."
      },
      "setApprovalForAll(address,bool)": {
        "details": "See {IERC721-setApprovalForAll}."
      },
      "supportsInterface(bytes4)": {
        "details": "See {IERC165-supportsInterface}."
      },
      "symbol()": {
        "details": "See {IERC721Metadata-symbol}."
      },
      "tokenURI(uint256)": {
        "details": "See {IERC721Metadata-tokenURI}."
      },
      "transferFrom(address,address,uint256)": {
        "details": "See {IERC721-transferFrom}."
      },
      "transferOwnership(address)": {
        "details": "Transfers ownership of the contract to a new account (`newOwner`). Can only be called by the current owner."
      }
    },
    "version": 1
  },
  "userdoc": {
    "kind": "user",
    "methods": {},
    "version": 1
  }
}